{
  "contractName": "Approvable",
  "abi": [
    {
      "constant": true,
      "inputs": [
        {
          "name": "",
          "type": "address"
        }
      ],
      "name": "approved",
      "outputs": [
        {
          "name": "",
          "type": "bool"
        }
      ],
      "payable": false,
      "stateMutability": "view",
      "type": "function"
    },
    {
      "inputs": [],
      "payable": false,
      "stateMutability": "nonpayable",
      "type": "constructor"
    },
    {
      "constant": false,
      "inputs": [
        {
          "name": "_address",
          "type": "address"
        }
      ],
      "name": "approve",
      "outputs": [],
      "payable": false,
      "stateMutability": "nonpayable",
      "type": "function"
    },
    {
      "constant": false,
      "inputs": [
        {
          "name": "_address",
          "type": "address"
        }
      ],
      "name": "revokeApproval",
      "outputs": [],
      "payable": false,
      "stateMutability": "nonpayable",
      "type": "function"
    }
  ],
  "bytecode": "0x608060405234801561001057600080fd5b50336000908152602081905260409020805460ff191660011790556101c08061003a6000396000f3006080604052600436106100565763ffffffff7c0100000000000000000000000000000000000000000000000000000000600035041663484685b0811461005b578063d8b964e61461007e578063daea85c5146100b3575b600080fd5b34801561006757600080fd5b5061007c600160a060020a03600435166100d4565b005b34801561008a57600080fd5b5061009f600160a060020a0360043516610128565b604080519115158252519081900360200190f35b3480156100bf57600080fd5b5061007c600160a060020a036004351661013d565b3360009081526020819052604090205460ff1615156100f257600080fd5b600160a060020a038116151561010757600080fd5b600160a060020a03166000908152602081905260409020805460ff19169055565b60006020819052908152604090205460ff1681565b3360009081526020819052604090205460ff16151561015b57600080fd5b600160a060020a038116151561017057600080fd5b600160a060020a03166000908152602081905260409020805460ff191660011790555600a165627a7a72305820e46281afc839aece3f8911820ffdd922489f4575303d11882c5f2649d684b9590029",
  "source": "pragma solidity ^0.4.21;\n\n\ncontract Approvable {\n\n    mapping(address => bool) public approved;\n\n    function Approvable() public {\n        approved[msg.sender] = true;\n    }\n\n    function approve(address _address) public onlyApproved {\n        require(_address != address(0));\n        approved[_address] = true;\n    }\n\n    function revokeApproval(address _address) public onlyApproved {\n        require(_address != address(0));\n        approved[_address] = false;\n    }\n\n    modifier onlyApproved() {\n        require(approved[msg.sender]);\n        _;\n    }\n}\n",
  "sourcePath": "/Users/john/distense-contracts/contracts/lib/Approvable.sol",
  "compiler": {
    "name": "solc",
    "version": "0.4.24+commit.e67f0147.Emscripten.clang"
  },
  "schemaVersion": "2.0.1",
  "updatedAt": "2018-09-18T22:39:04.829Z"
}