{
  "contractName": "DIDToken",
  "abi": [
    {
      "constant": true,
      "inputs": [],
      "name": "name",
      "outputs": [
        {
          "name": "",
          "type": "string"
        }
      ],
      "payable": false,
      "stateMutability": "view",
      "type": "function"
    },
    {
      "constant": true,
      "inputs": [],
      "name": "DistenseAddress",
      "outputs": [
        {
          "name": "",
          "type": "address"
        }
      ],
      "payable": false,
      "stateMutability": "view",
      "type": "function"
    },
    {
      "constant": true,
      "inputs": [],
      "name": "totalSupply",
      "outputs": [
        {
          "name": "",
          "type": "uint256"
        }
      ],
      "payable": false,
      "stateMutability": "view",
      "type": "function"
    },
    {
      "constant": true,
      "inputs": [],
      "name": "investedAggregate",
      "outputs": [
        {
          "name": "",
          "type": "uint256"
        }
      ],
      "payable": false,
      "stateMutability": "view",
      "type": "function"
    },
    {
      "constant": true,
      "inputs": [],
      "name": "decimals",
      "outputs": [
        {
          "name": "",
          "type": "uint8"
        }
      ],
      "payable": false,
      "stateMutability": "view",
      "type": "function"
    },
    {
      "constant": true,
      "inputs": [],
      "name": "PullRequestsAddress",
      "outputs": [
        {
          "name": "",
          "type": "address"
        }
      ],
      "payable": false,
      "stateMutability": "view",
      "type": "function"
    },
    {
      "constant": false,
      "inputs": [
        {
          "name": "_address",
          "type": "address"
        }
      ],
      "name": "revokeApproval",
      "outputs": [],
      "payable": false,
      "stateMutability": "nonpayable",
      "type": "function"
    },
    {
      "constant": true,
      "inputs": [],
      "name": "symbol",
      "outputs": [
        {
          "name": "",
          "type": "string"
        }
      ],
      "payable": false,
      "stateMutability": "view",
      "type": "function"
    },
    {
      "constant": true,
      "inputs": [],
      "name": "investmentLimitAggregate",
      "outputs": [
        {
          "name": "",
          "type": "uint256"
        }
      ],
      "payable": false,
      "stateMutability": "view",
      "type": "function"
    },
    {
      "constant": true,
      "inputs": [],
      "name": "investmentLimitAddress",
      "outputs": [
        {
          "name": "",
          "type": "uint256"
        }
      ],
      "payable": false,
      "stateMutability": "view",
      "type": "function"
    },
    {
      "constant": true,
      "inputs": [
        {
          "name": "",
          "type": "uint256"
        }
      ],
      "name": "DIDHoldersArray",
      "outputs": [
        {
          "name": "",
          "type": "address"
        }
      ],
      "payable": false,
      "stateMutability": "view",
      "type": "function"
    },
    {
      "constant": true,
      "inputs": [
        {
          "name": "",
          "type": "address"
        }
      ],
      "name": "DIDHolders",
      "outputs": [
        {
          "name": "balance",
          "type": "uint256"
        },
        {
          "name": "netContributionsDID",
          "type": "uint256"
        },
        {
          "name": "DIDHoldersIndex",
          "type": "uint256"
        },
        {
          "name": "weiInvested",
          "type": "uint256"
        },
        {
          "name": "tasksCompleted",
          "type": "uint256"
        }
      ],
      "payable": false,
      "stateMutability": "view",
      "type": "function"
    },
    {
      "constant": true,
      "inputs": [
        {
          "name": "",
          "type": "address"
        }
      ],
      "name": "approved",
      "outputs": [
        {
          "name": "",
          "type": "bool"
        }
      ],
      "payable": false,
      "stateMutability": "view",
      "type": "function"
    },
    {
      "constant": false,
      "inputs": [
        {
          "name": "_address",
          "type": "address"
        }
      ],
      "name": "approve",
      "outputs": [],
      "payable": false,
      "stateMutability": "nonpayable",
      "type": "function"
    },
    {
      "inputs": [],
      "payable": false,
      "stateMutability": "nonpayable",
      "type": "constructor"
    },
    {
      "anonymous": false,
      "inputs": [
        {
          "indexed": true,
          "name": "to",
          "type": "address"
        },
        {
          "indexed": false,
          "name": "numDID",
          "type": "uint256"
        }
      ],
      "name": "LogIssueDID",
      "type": "event"
    },
    {
      "anonymous": false,
      "inputs": [
        {
          "indexed": true,
          "name": "to",
          "type": "address"
        },
        {
          "indexed": false,
          "name": "numDID",
          "type": "uint256"
        }
      ],
      "name": "LogDecrementDID",
      "type": "event"
    },
    {
      "anonymous": false,
      "inputs": [
        {
          "indexed": true,
          "name": "to",
          "type": "address"
        },
        {
          "indexed": false,
          "name": "numDID",
          "type": "uint256"
        }
      ],
      "name": "LogExchangeDIDForEther",
      "type": "event"
    },
    {
      "anonymous": false,
      "inputs": [
        {
          "indexed": true,
          "name": "to",
          "type": "address"
        },
        {
          "indexed": false,
          "name": "numWei",
          "type": "uint256"
        }
      ],
      "name": "LogInvestEtherForDID",
      "type": "event"
    },
    {
      "constant": false,
      "inputs": [
        {
          "name": "_recipient",
          "type": "address"
        },
        {
          "name": "_numDID",
          "type": "uint256"
        }
      ],
      "name": "issueDID",
      "outputs": [
        {
          "name": "",
          "type": "uint256"
        }
      ],
      "payable": false,
      "stateMutability": "nonpayable",
      "type": "function"
    },
    {
      "constant": false,
      "inputs": [
        {
          "name": "_address",
          "type": "address"
        },
        {
          "name": "_numDID",
          "type": "uint256"
        }
      ],
      "name": "decrementDID",
      "outputs": [
        {
          "name": "",
          "type": "uint256"
        }
      ],
      "payable": false,
      "stateMutability": "nonpayable",
      "type": "function"
    },
    {
      "constant": true,
      "inputs": [
        {
          "name": "_address",
          "type": "address"
        }
      ],
      "name": "pctDIDOwned",
      "outputs": [
        {
          "name": "",
          "type": "uint256"
        }
      ],
      "payable": false,
      "stateMutability": "view",
      "type": "function"
    },
    {
      "constant": false,
      "inputs": [
        {
          "name": "_numDIDToExchange",
          "type": "uint256"
        }
      ],
      "name": "exchangeDIDForEther",
      "outputs": [
        {
          "name": "",
          "type": "uint256"
        }
      ],
      "payable": false,
      "stateMutability": "nonpayable",
      "type": "function"
    },
    {
      "constant": false,
      "inputs": [],
      "name": "investEtherForDID",
      "outputs": [
        {
          "name": "",
          "type": "uint256"
        }
      ],
      "payable": true,
      "stateMutability": "payable",
      "type": "function"
    },
    {
      "constant": false,
      "inputs": [
        {
          "name": "_contributor",
          "type": "address"
        }
      ],
      "name": "incrementTasksCompleted",
      "outputs": [
        {
          "name": "",
          "type": "bool"
        }
      ],
      "payable": false,
      "stateMutability": "nonpayable",
      "type": "function"
    },
    {
      "constant": true,
      "inputs": [
        {
          "name": "_contributor",
          "type": "address"
        }
      ],
      "name": "getNumWeiAddressMayInvest",
      "outputs": [
        {
          "name": "",
          "type": "uint256"
        }
      ],
      "payable": false,
      "stateMutability": "view",
      "type": "function"
    },
    {
      "constant": true,
      "inputs": [],
      "name": "getWeiAggregateMayInvest",
      "outputs": [
        {
          "name": "",
          "type": "uint256"
        }
      ],
      "payable": false,
      "stateMutability": "view",
      "type": "function"
    },
    {
      "constant": true,
      "inputs": [],
      "name": "getNumDIDHolders",
      "outputs": [
        {
          "name": "",
          "type": "uint256"
        }
      ],
      "payable": false,
      "stateMutability": "view",
      "type": "function"
    },
    {
      "constant": true,
      "inputs": [
        {
          "name": "_address",
          "type": "address"
        }
      ],
      "name": "getAddressBalance",
      "outputs": [
        {
          "name": "",
          "type": "uint256"
        }
      ],
      "payable": false,
      "stateMutability": "view",
      "type": "function"
    },
    {
      "constant": true,
      "inputs": [
        {
          "name": "_address",
          "type": "address"
        }
      ],
      "name": "getNetNumContributionsDID",
      "outputs": [
        {
          "name": "",
          "type": "uint256"
        }
      ],
      "payable": false,
      "stateMutability": "view",
      "type": "function"
    },
    {
      "constant": true,
      "inputs": [
        {
          "name": "_address",
          "type": "address"
        }
      ],
      "name": "getWeiInvested",
      "outputs": [
        {
          "name": "",
          "type": "uint256"
        }
      ],
      "payable": false,
      "stateMutability": "view",
      "type": "function"
    },
    {
      "constant": false,
      "inputs": [
        {
          "name": "_distenseAddress",
          "type": "address"
        }
      ],
      "name": "setDistenseAddress",
      "outputs": [],
      "payable": false,
      "stateMutability": "nonpayable",
      "type": "function"
    },
    {
      "constant": true,
      "inputs": [
        {
          "name": "msgValue",
          "type": "uint256"
        },
        {
          "name": "DIDPerEther",
          "type": "uint256"
        }
      ],
      "name": "calculateNumDIDToIssue",
      "outputs": [
        {
          "name": "",
          "type": "uint256"
        }
      ],
      "payable": false,
      "stateMutability": "pure",
      "type": "function"
    },
    {
      "constant": true,
      "inputs": [
        {
          "name": "msgValue",
          "type": "uint256"
        },
        {
          "name": "DIDPerEther",
          "type": "uint256"
        }
      ],
      "name": "investedOneDIDWorth",
      "outputs": [
        {
          "name": "",
          "type": "bool"
        }
      ],
      "payable": false,
      "stateMutability": "pure",
      "type": "function"
    },
    {
      "constant": false,
      "inputs": [
        {
          "name": "_contributor",
          "type": "address"
        },
        {
          "name": "_reward",
          "type": "uint256"
        }
      ],
      "name": "incrementDIDFromContributions",
      "outputs": [],
      "payable": false,
      "stateMutability": "nonpayable",
      "type": "function"
    },
    {
      "constant": false,
      "inputs": [
        {
          "name": "_contributor",
          "type": "address"
        },
        {
          "name": "_num",
          "type": "uint256"
        }
      ],
      "name": "decrementDIDFromContributions",
      "outputs": [],
      "payable": false,
      "stateMutability": "nonpayable",
      "type": "function"
    }
  ],
  "bytecode": "0x606060405269021e19e0c9bab240000060045568056bc75e2d63100000600555600060065534156200003057600080fd5b600160a060020a03331660009081526020819052604090819020805460ff191660011790558051908101604052600c81527f44697374656e7365204449440000000000000000000000000000000000000000602082015260079080516200009c929160200190620000ff565b5060408051908101604052600381527f444944000000000000000000000000000000000000000000000000000000000060208201526008908051620000e6929160200190620000ff565b506000600a556009805460ff19166012179055620001a4565b828054600181600116156101000203166002900490600052602060002090601f016020900481019282601f106200014257805160ff191683800117855562000172565b8280016001018555821562000172579182015b828111156200017257825182559160200191906001019062000155565b506200018092915062000184565b5090565b620001a191905b808211156200018057600081556001016200018b565b90565b61143d80620001b46000396000f3006060604052600436106101715763ffffffff60e060020a6000350416630261a403811461017657806306fdde03146101aa5780630762448a146102345780630afdbaed1461025357806318160ddd1461028257806325078bc4146102955780632a4caf67146102a8578063313ce567146102c957806335046722146102f257806346da6eee14610311578063484685b0146103245780635c7bd23d146103435780636168ba3c146103705780636a2875c11461038357806385ca017a146103a557806387b30845146103c757806388004950146103dd57806391555559146103fc57806395d89b411461041b5780639ac97e841461042e578063a0d229d814610441578063a723761a14610454578063bad0d4f11461045c578063c7560f461461046f578063cb1e4e4414610485578063d7b16d91146104a7578063d8b964e6146104f8578063daea85c514610517578063dc2b32e614610536578063f677466014610555578063fdf31b391461056e575b600080fd5b341561018157600080fd5b610198600160a060020a036004351660243561058d565b60405190815260200160405180910390f35b34156101b557600080fd5b6101bd6106f0565b60405160208082528190810183818151815260200191508051906020019080838360005b838110156101f95780820151838201526020016101e1565b50505050905090810190601f1680156102265780820380516001836020036101000a031916815260200191505b509250505060405180910390f35b341561023f57600080fd5b610198600160a060020a036004351661078e565b341561025e57600080fd5b6102666107ac565b604051600160a060020a03909116815260200160405180910390f35b341561028d57600080fd5b6101986107bb565b34156102a057600080fd5b6101986107c1565b34156102b357600080fd5b6102c7600160a060020a03600435166107c7565b005b34156102d457600080fd5b6102dc61081d565b60405160ff909116815260200160405180910390f35b34156102fd57600080fd5b610198600160a060020a0360043516610826565b341561031c57600080fd5b610266610841565b341561032f57600080fd5b6102c7600160a060020a0360043516610850565b341561034e57600080fd5b61035c6004356024356108ad565b604051901515815260200160405180910390f35b341561037b57600080fd5b6101986108d5565b341561038e57600080fd5b6102c7600160a060020a03600435166024356108eb565b34156103b057600080fd5b6102c7600160a060020a0360043516602435610910565b34156103d257600080fd5b610198600435610936565b34156103e857600080fd5b610198600160a060020a0360043516610c25565b341561040757600080fd5b610198600160a060020a0360043516610cba565b341561042657600080fd5b6101bd610d15565b341561043957600080fd5b610198610d80565b341561044c57600080fd5b610198610d86565b610198610d8c565b341561046757600080fd5b610198610fdc565b341561047a57600080fd5b610266600435610fe2565b341561049057600080fd5b610198600160a060020a036004351660243561100a565b34156104b257600080fd5b6104c6600160a060020a0360043516611223565b604051808681526020018581526020018481526020018381526020018281526020019550505050505060405180910390f35b341561050357600080fd5b61035c600160a060020a0360043516611252565b341561052257600080fd5b6102c7600160a060020a0360043516611267565b341561054157600080fd5b610198600160a060020a03600435166112c7565b341561056057600080fd5b6101986004356024356112e5565b341561057957600080fd5b61035c600160a060020a0360043516611311565b600160a060020a033316600090815260208190526040812054819060ff1615156105b657600080fd5b600160a060020a03841615156105cb57600080fd5b600083116105d857600080fd5b6105e4600a5484611360565b600a5550600160a060020a0383166000908152600b602052604090205461060b8184611360565b600160a060020a0385166000908152600b602052604090209081556002015415156106905760018054819080820161064383826113ca565b6000928352602080842092909201805473ffffffffffffffffffffffffffffffffffffffff1916600160a060020a038a169081179091558352600b90915260409091209190036002909101555b83600160a060020a03167f3433529aaca741f54b3397d6ef2d588bb92ecd0d87c4c41db2f379bfe5c168f48460405190815260200160405180910390a2600160a060020a0384166000908152600b602052604090205491505b5092915050565b60078054600181600116156101000203166002900480601f0160208091040260200160405190810160405280929190818152602001828054600181600116156101000203166002900480156107865780601f1061075b57610100808354040283529160200191610786565b820191906000526020600020905b81548152906001019060200180831161076957829003601f168201915b505050505081565b600160a060020a03166000908152600b602052604090206001015490565b600354600160a060020a031681565b600a5481565b60065481565b600160a060020a03331660009081526020819052604090205460ff1615156107ee57600080fd5b6003805473ffffffffffffffffffffffffffffffffffffffff1916600160a060020a0392909216919091179055565b60095460ff1681565b600160a060020a03166000908152600b602052604090205490565b600254600160a060020a031681565b600160a060020a03331660009081526020819052604090205460ff16151561087757600080fd5b600160a060020a038116151561088c57600080fd5b600160a060020a03166000908152602081905260409020805460ff19169055565b60006108c1670de0b6b3a764000083611376565b83116108cc57600080fd5b50600192915050565b60006108e560045460065461138d565b90505b90565b600160a060020a039091166000908152600b6020526040902060010180549091019055565b600160a060020a039091166000908152600b602052604090206001018054919091039055565b600080600080600080338780600b600084600160a060020a0316600160a060020a03168152602001908152602001600020600001541015151561097857600080fd5b600354600160a060020a0316965086638fc6ad2d81632273bae26040518163ffffffff1660e060020a028152600401602060405180830381600087803b15156109c057600080fd5b5af115156109cd57600080fd5b5050506040518051905060405160e060020a63ffffffff84160281526004810191909152602401602060405180830381600087803b1515610a0d57600080fd5b5af11515610a1a57600080fd5b505050604051805190509550610a308987611376565b9450309350600160a060020a03841631859011610a4c57600080fd5b600160a060020a0333166000908152600b6020526040902054610a6f908a61138d565b600160a060020a0333166000908152600b6020526040902055600a54610a95908a61138d565b600a55600160a060020a03331685156108fc0286604051600060405180830381858888f193505050501515610ac957600080fd5b600160a060020a0333166000908152600b60205260409020541515610bc257600180541115610bc257600180546000198101908110610b0457fe5b600091825260208083209091015433600160a060020a039081168452600b909252604090922060020154600180549290931695508592918110610b4357fe5b6000918252602090912001805473ffffffffffffffffffffffffffffffffffffffff1916600160a060020a03929092169190911790556001805490610b8c9060001983016113ca565b50600160a060020a0333166000908152600b60205260408120818155600181018290556002810182905560038101829055600401555b33600160a060020a03167feb7d31df09103642237866b5fa5946a266fda42585c7ba30a006a40e4e478d3f8a60405190815260200160405180910390a250505033600160a060020a03166000908152600b60205260409020549695505050505050565b600160a060020a0381166000908152600b6020819052604080832054600a5473__SafeMath______________________________93622c1a9e935160e060020a63ffffffff861602815260048101939093526024830191909152604482015260640160206040518083038186803b1515610c9e57600080fd5b5af41515610cab57600080fd5b50505060405180519392505050565b600160a060020a0381166000908152600b602052604081206001015481808211610ce357600080fd5b600554600160a060020a0385166000908152600b6020526040902060030154610d0c919061138d565b90505050919050565b60088054600181600116156101000203166002900480601f0160208091040260200160405190810160405280929190818152602001828054600181600116156101000203166002900480156107865780601f1061075b57610100808354040283529160200191610786565b60015490565b60045481565b6000806000806000610d9d33610cba565b905034811015610dac57600080fd5b60045460065410610dbc57600080fd5b600354600160a060020a03169350610e7584638fc6ad2d81632273bae26040518163ffffffff1660e060020a028152600401602060405180830381600087803b1515610e0757600080fd5b5af11515610e1457600080fd5b5050506040518051905060405160e060020a63ffffffff84160281526004810191909152602401602060405180830381600087803b1515610e5457600080fd5b5af11515610e6157600080fd5b50505060405180519050633b9aca00611376565b9250610e8134846108ad565b1515610e8c57600080fd5b610e9634846112e5565b600160a060020a0333166000908152600b602052604090206001015490925082901015610ec257600080fd5b610ece600a5483611360565b600a55600160a060020a0333166000908152600b6020526040902054610ef49083611360565b33600160a060020a0381166000908152600b6020526040902091909155610f1b9083610910565b600160a060020a0333166000818152600b6020526040908190206003018054349081019091556006805490910190557f3433529aaca741f54b3397d6ef2d588bb92ecd0d87c4c41db2f379bfe5c168f49084905190815260200160405180910390a233600160a060020a03167f71894dba69eac3a3461302b16631257b4580fbc7be61f1d4b0e988845e6400f03460405190815260200160405180910390a2600160a060020a0333166000908152600b602052604090205494505050505090565b60055481565b6001805482908110610ff057fe5b600091825260209091200154600160a060020a0316905081565b600160a060020a033316600090815260208190526040812054819060ff16151561103357600080fd5b600160a060020a038416151561104857600080fd5b6000831161105557600080fd5b600160a060020a0384166000908152600b6020526040812054611078908561138d565b101561108357600080fd5b6000611091600a548561138d565b101561109c57600080fd5b6110a8600a548461138d565b600a55600160a060020a0384166000908152600b60205260409020546110ce908461138d565b600160a060020a0385166000908152600b6020526040902081905515156111c8576001805411156111c85760018054600019810190811061110b57fe5b6000918252602080832090910154600160a060020a038781168452600b90925260409092206002015460018054929093169350839291811061114957fe5b6000918252602090912001805473ffffffffffffffffffffffffffffffffffffffff1916600160a060020a039290921691909117905560018054906111929060001983016113ca565b50600160a060020a0333166000908152600b60205260408120818155600181018290556002810182905560038101829055600401555b83600160a060020a03167f9fa46c80453c295693dfa0974d48b43bfdb58bb909cedd3af0ba93589a3332c18460405190815260200160405180910390a2505050600160a060020a03166000908152600b602052604090205490565b600b60205260009081526040902080546001820154600283015460038401546004909401549293919290919085565b60006020819052908152604090205460ff1681565b600160a060020a03331660009081526020819052604090205460ff16151561128e57600080fd5b600160a060020a03811615156112a357600080fd5b600160a060020a03166000908152602081905260409020805460ff19166001179055565b600160a060020a03166000908152600b602052604090206003015490565b60008060006112f4858561139f565b915061130882670de0b6b3a7640000611376565b95945050505050565b600160a060020a03331660009081526020819052604081205460ff16151561133857600080fd5b50600160a060020a03166000908152600b602052604090206004018054600190810190915590565b60008282018381101561136f57fe5b9392505050565b600080828481151561138457fe5b04949350505050565b60008282111561139957fe5b50900390565b6000808315156113b257600091506106e9565b508282028284828115156113c257fe5b041461136f57fe5b8154818355818115116113ee576000838152602090206113ee9181019083016113f3565b505050565b6108e891905b8082111561140d57600081556001016113f9565b50905600a165627a7a723058200418eb0fb7ecc335e42185aa467f4114affd43cc1cb7f408accda7e3917023a80029",
  "source": "pragma solidity ^0.4.21;\n\nimport './lib/Approvable.sol';\nimport './Distense.sol';\nimport './lib/SafeMath.sol';\n\ncontract DIDToken is Approvable {\n\n    using SafeMath for uint256;\n\n    event LogIssueDID(address indexed to, uint256 numDID);\n    event LogDecrementDID(address indexed to, uint256 numDID);\n    event LogExchangeDIDForEther(address indexed to, uint256 numDID);\n    event LogInvestEtherForDID(address indexed to, uint256 numWei);\n\n    address[] public DIDHoldersArray;\n\n    address public PullRequestsAddress;\n    address public DistenseAddress;\n\n    uint256 public investmentLimitAggregate  = 10000 ether;  // This is the max DID all addresses can receive from depositing ether\n    uint256 public investmentLimitAddress = 100 ether;  // This is the max DID any address can receive from Ether deposit\n    uint256 public investedAggregate = 0 ether;\n\n    string public name;\n    string public symbol;\n    uint8 public decimals;\n    uint256 public totalSupply;\n\n    struct DIDHolder {\n        uint256 balance;\n        uint256 netContributionsDID;    // essentially the number of DID remaining for calculating how much ether an account may invest\n        uint256 DIDHoldersIndex;\n        uint256 weiInvested;\n        uint256 tasksCompleted;\n    }\n    mapping (address => DIDHolder) public DIDHolders;\n\n    function DIDToken() public {\n        name = \"Distense DID\";\n        symbol = \"DID\";\n        totalSupply = 0;\n        decimals = 18;\n    }\n\n    function issueDID(address _recipient, uint256 _numDID) external onlyApproved returns (uint256) {\n        require(_recipient != address(0));\n        require(_numDID > 0);\n\n        totalSupply = SafeMath.add(totalSupply, _numDID);\n        uint256 balance = DIDHolders[_recipient].balance;\n        DIDHolders[_recipient].balance = SafeMath.add(balance, _numDID);\n\n        if (DIDHolders[_recipient].DIDHoldersIndex == 0)\n            DIDHolders[_recipient].DIDHoldersIndex = DIDHoldersArray.push(_recipient) - 1;\n\n        emit LogIssueDID(_recipient, _numDID);\n\n        return DIDHolders[_recipient].balance;\n    }\n\n    function decrementDID(address _address, uint256 _numDID) external onlyApproved returns (uint256) {\n        require(_address != address(0));\n        require(_numDID > 0);\n        require(SafeMath.sub(DIDHolders[_address].balance, _numDID) >= 0);\n        require(SafeMath.sub(totalSupply, _numDID) >= 0);\n\n        totalSupply = SafeMath.sub(totalSupply, _numDID);\n        DIDHolders[_address].balance = SafeMath.sub(DIDHolders[_address].balance, _numDID);\n        //  If DIDHolder has exchanged all of their DID remove from DIDHoldersArray\n        if (DIDHolders[_address].balance == 0) {\n            if (DIDHoldersArray.length > 1) {\n                address lastElement = DIDHoldersArray[DIDHoldersArray.length - 1];\n                DIDHoldersArray[DIDHolders[_address].DIDHoldersIndex] = lastElement;\n                DIDHoldersArray.length--;\n                delete DIDHolders[msg.sender];\n            }\n        }\n\n        emit LogDecrementDID(_address, _numDID);\n\n        return DIDHolders[_address].balance;\n    }\n\n    function pctDIDOwned(address _address) external view returns (uint256) {\n        return SafeMath.percent(DIDHolders[_address].balance, totalSupply, 11);\n    }\n\n    function exchangeDIDForEther(uint256 _numDIDToExchange)\n        hasEnoughDID(msg.sender, _numDIDToExchange)\n        external\n    returns (uint256) {\n\n        Distense distense = Distense(DistenseAddress);\n        uint256 DIDPerEther = distense.getParameterValueByTitle(distense.didPerEtherParameterTitle());\n\n        uint256 numEtherToIssue = SafeMath.div(_numDIDToExchange, DIDPerEther);\n\n        address contractAddress = this;\n        require(contractAddress.balance > numEtherToIssue);\n\n        //  Adjust number of DID owned first\n        DIDHolders[msg.sender].balance = SafeMath.sub(DIDHolders[msg.sender].balance, _numDIDToExchange);\n        totalSupply = SafeMath.sub(totalSupply, _numDIDToExchange);\n\n        msg.sender.transfer(numEtherToIssue);\n\n        if (DIDHolders[msg.sender].balance == 0) {\n            if (DIDHoldersArray.length > 1) {\n                address lastElement = DIDHoldersArray[DIDHoldersArray.length - 1];\n                DIDHoldersArray[DIDHolders[msg.sender].DIDHoldersIndex] = lastElement;\n                DIDHoldersArray.length--;\n                delete DIDHolders[msg.sender];\n            }\n        }\n        emit LogExchangeDIDForEther(msg.sender, _numDIDToExchange);\n\n        return DIDHolders[msg.sender].balance;\n    }\n\n    function investEtherForDID() canDepositThisManyEtherForDID external payable returns (uint256) {\n\n        Distense distense = Distense(DistenseAddress);\n        uint256 DIDPerEther = SafeMath.div(distense.getParameterValueByTitle(distense.didPerEtherParameterTitle()), 1000000000);\n\n        require(investedOneDIDWorth(msg.value, DIDPerEther));\n//\n//        // require ether investment to be worth at least 1 DID\n        uint256 numDIDToIssue = calculateNumDIDToIssue(msg.value, DIDPerEther);\n        require(DIDHolders[msg.sender].netContributionsDID >= numDIDToIssue);\n\n        totalSupply = SafeMath.add(totalSupply, numDIDToIssue);\n        DIDHolders[msg.sender].balance = SafeMath.add(DIDHolders[msg.sender].balance, numDIDToIssue);\n        decrementDIDFromContributions(msg.sender, numDIDToIssue);\n\n        DIDHolders[msg.sender].weiInvested += msg.value;\n        investedAggregate += msg.value;\n\n        emit LogIssueDID(msg.sender, numDIDToIssue);\n        emit LogInvestEtherForDID(msg.sender, msg.value);\n\n        return DIDHolders[msg.sender].balance;\n    }\n\n    function incrementTasksCompleted(address _contributor) onlyApproved public returns (bool) {\n        DIDHolders[_contributor].tasksCompleted++;\n        return true;\n    }\n\n    function getNumWeiAddressMayInvest(address _contributor) public view returns (uint256) {\n        uint256 DIDFromContributions = DIDHolders[_contributor].netContributionsDID;\n        require(DIDFromContributions > 0);\n        uint256 netUninvestedEther = SafeMath.sub(investmentLimitAddress, DIDHolders[_contributor].weiInvested);\n    }\n\n    function getWeiAggregateMayInvest() public view returns (uint256) {\n        return SafeMath.sub(investmentLimitAggregate, investedAggregate);\n    }\n\n    function getNumDIDHolders() external view returns (uint256) {\n        return DIDHoldersArray.length;\n    }\n\n    function getAddressBalance(address _address) public view returns (uint256) {\n        return DIDHolders[_address].balance;\n    }\n\n    function getNetNumContributionsDID(address _address) public view returns (uint256) {\n        return DIDHolders[_address].netContributionsDID;\n    }\n\n    function getWeiInvested(address _address) public view returns (uint256) {\n        return DIDHolders[_address].weiInvested;\n    }\n\n    function setDistenseAddress(address _distenseAddress) public onlyApproved {\n        DistenseAddress = _distenseAddress;\n    }\n\n    function calculateNumDIDToIssue(uint256 msgValue, uint256 DIDPerEther) public pure returns (uint256) {\n        uint256 numDIDToIssueNum = SafeMath.mul(msgValue, DIDPerEther);\n        uint256 numDIDToIssue = SafeMath.div(numDIDToIssueNum, 1 ether);\n        return numDIDToIssue;\n    }\n\n    function investedOneDIDWorth(uint256 msgValue, uint256 DIDPerEther) public pure returns (bool) {\n        require(msgValue > SafeMath.div(1 ether, DIDPerEther));\n        return true;\n    }\n\n    function incrementDIDFromContributions(address _contributor, uint256 _reward) public {\n        DIDHolders[_contributor].netContributionsDID += _reward;\n    }\n\n    function decrementDIDFromContributions(address _contributor, uint256 _num) public {\n        DIDHolders[_contributor].netContributionsDID -= _num;\n    }\n\n    modifier hasEnoughDID(address _address, uint256 _num) {\n        require(DIDHolders[_address].balance >= _num);\n        _;\n    }\n\n    modifier canDepositThisManyEtherForDID() {\n        uint256 numWeiMayInvest = getNumWeiAddressMayInvest(msg.sender);\n        require(numWeiMayInvest >= msg.value);\n        require(investedAggregate < investmentLimitAggregate);\n        _;\n    }\n}\n",
  "sourcePath": "/Users/john/distense-contracts/contracts/DIDToken.sol",
  "compiler": {
    "name": "solc",
    "version": "0.4.21+commit.dfe3193c.Emscripten.clang"
  },
  "schemaVersion": "1.0.1",
  "updatedAt": "2018-04-10T22:29:18.054Z"
}