{
  "contractName": "DIDToken",
  "abi": [
    {
      "constant": true,
      "inputs": [],
      "name": "name",
      "outputs": [
        {
          "name": "",
          "type": "string"
        }
      ],
      "payable": false,
      "stateMutability": "view",
      "type": "function"
    },
    {
      "constant": true,
      "inputs": [],
      "name": "DistenseAddress",
      "outputs": [
        {
          "name": "",
          "type": "address"
        }
      ],
      "payable": false,
      "stateMutability": "view",
      "type": "function"
    },
    {
      "constant": true,
      "inputs": [],
      "name": "totalSupply",
      "outputs": [
        {
          "name": "",
          "type": "uint256"
        }
      ],
      "payable": false,
      "stateMutability": "view",
      "type": "function"
    },
    {
      "constant": true,
      "inputs": [],
      "name": "investedAggregate",
      "outputs": [
        {
          "name": "",
          "type": "uint256"
        }
      ],
      "payable": false,
      "stateMutability": "view",
      "type": "function"
    },
    {
      "constant": true,
      "inputs": [],
      "name": "decimals",
      "outputs": [
        {
          "name": "",
          "type": "uint8"
        }
      ],
      "payable": false,
      "stateMutability": "view",
      "type": "function"
    },
    {
      "constant": true,
      "inputs": [],
      "name": "PullRequestsAddress",
      "outputs": [
        {
          "name": "",
          "type": "address"
        }
      ],
      "payable": false,
      "stateMutability": "view",
      "type": "function"
    },
    {
      "constant": false,
      "inputs": [
        {
          "name": "_address",
          "type": "address"
        }
      ],
      "name": "revokeApproval",
      "outputs": [],
      "payable": false,
      "stateMutability": "nonpayable",
      "type": "function"
    },
    {
      "constant": true,
      "inputs": [],
      "name": "symbol",
      "outputs": [
        {
          "name": "",
          "type": "string"
        }
      ],
      "payable": false,
      "stateMutability": "view",
      "type": "function"
    },
    {
      "constant": true,
      "inputs": [],
      "name": "investmentLimitAggregate",
      "outputs": [
        {
          "name": "",
          "type": "uint256"
        }
      ],
      "payable": false,
      "stateMutability": "view",
      "type": "function"
    },
    {
      "constant": true,
      "inputs": [],
      "name": "investmentLimitAddress",
      "outputs": [
        {
          "name": "",
          "type": "uint256"
        }
      ],
      "payable": false,
      "stateMutability": "view",
      "type": "function"
    },
    {
      "constant": true,
      "inputs": [
        {
          "name": "",
          "type": "uint256"
        }
      ],
      "name": "DIDHoldersArray",
      "outputs": [
        {
          "name": "",
          "type": "address"
        }
      ],
      "payable": false,
      "stateMutability": "view",
      "type": "function"
    },
    {
      "constant": true,
      "inputs": [
        {
          "name": "",
          "type": "address"
        }
      ],
      "name": "DIDHolders",
      "outputs": [
        {
          "name": "balance",
          "type": "uint256"
        },
        {
          "name": "netContributionsDID",
          "type": "uint256"
        },
        {
          "name": "DIDHoldersIndex",
          "type": "uint256"
        },
        {
          "name": "weiInvested",
          "type": "uint256"
        },
        {
          "name": "tasksCompleted",
          "type": "uint256"
        }
      ],
      "payable": false,
      "stateMutability": "view",
      "type": "function"
    },
    {
      "constant": true,
      "inputs": [
        {
          "name": "",
          "type": "address"
        }
      ],
      "name": "approved",
      "outputs": [
        {
          "name": "",
          "type": "bool"
        }
      ],
      "payable": false,
      "stateMutability": "view",
      "type": "function"
    },
    {
      "constant": false,
      "inputs": [
        {
          "name": "_address",
          "type": "address"
        }
      ],
      "name": "approve",
      "outputs": [],
      "payable": false,
      "stateMutability": "nonpayable",
      "type": "function"
    },
    {
      "inputs": [],
      "payable": false,
      "stateMutability": "nonpayable",
      "type": "constructor"
    },
    {
      "anonymous": false,
      "inputs": [
        {
          "indexed": true,
          "name": "to",
          "type": "address"
        },
        {
          "indexed": false,
          "name": "numDID",
          "type": "uint256"
        }
      ],
      "name": "LogIssueDID",
      "type": "event"
    },
    {
      "anonymous": false,
      "inputs": [
        {
          "indexed": true,
          "name": "to",
          "type": "address"
        },
        {
          "indexed": false,
          "name": "numDID",
          "type": "uint256"
        }
      ],
      "name": "LogDecrementDID",
      "type": "event"
    },
    {
      "anonymous": false,
      "inputs": [
        {
          "indexed": true,
          "name": "to",
          "type": "address"
        },
        {
          "indexed": false,
          "name": "numDID",
          "type": "uint256"
        }
      ],
      "name": "LogExchangeDIDForEther",
      "type": "event"
    },
    {
      "anonymous": false,
      "inputs": [
        {
          "indexed": true,
          "name": "to",
          "type": "address"
        },
        {
          "indexed": false,
          "name": "numWei",
          "type": "uint256"
        }
      ],
      "name": "LogInvestEtherForDID",
      "type": "event"
    },
    {
      "anonymous": false,
      "inputs": [
        {
          "indexed": false,
          "name": "someAddress",
          "type": "address"
        }
      ],
      "name": "LogAddress",
      "type": "event"
    },
    {
      "anonymous": false,
      "inputs": [
        {
          "indexed": false,
          "name": "boolean",
          "type": "bool"
        }
      ],
      "name": "LogBool",
      "type": "event"
    },
    {
      "anonymous": false,
      "inputs": [
        {
          "indexed": false,
          "name": "someBytes",
          "type": "bytes"
        }
      ],
      "name": "LogBytes",
      "type": "event"
    },
    {
      "anonymous": false,
      "inputs": [
        {
          "indexed": false,
          "name": "aBytes32",
          "type": "bytes32"
        }
      ],
      "name": "LogBytes32",
      "type": "event"
    },
    {
      "anonymous": false,
      "inputs": [
        {
          "indexed": false,
          "name": "aString",
          "type": "string"
        }
      ],
      "name": "LogString",
      "type": "event"
    },
    {
      "anonymous": false,
      "inputs": [
        {
          "indexed": false,
          "name": "someInt",
          "type": "uint256"
        }
      ],
      "name": "LogUInt256",
      "type": "event"
    },
    {
      "anonymous": false,
      "inputs": [
        {
          "indexed": false,
          "name": "someInt",
          "type": "int256"
        }
      ],
      "name": "LogInt256",
      "type": "event"
    },
    {
      "constant": false,
      "inputs": [
        {
          "name": "_recipient",
          "type": "address"
        },
        {
          "name": "_numDID",
          "type": "uint256"
        }
      ],
      "name": "issueDID",
      "outputs": [
        {
          "name": "",
          "type": "bool"
        }
      ],
      "payable": false,
      "stateMutability": "nonpayable",
      "type": "function"
    },
    {
      "constant": false,
      "inputs": [
        {
          "name": "_address",
          "type": "address"
        },
        {
          "name": "_numDID",
          "type": "uint256"
        }
      ],
      "name": "decrementDID",
      "outputs": [
        {
          "name": "",
          "type": "uint256"
        }
      ],
      "payable": false,
      "stateMutability": "nonpayable",
      "type": "function"
    },
    {
      "constant": false,
      "inputs": [
        {
          "name": "_numDIDToExchange",
          "type": "uint256"
        }
      ],
      "name": "exchangeDIDForEther",
      "outputs": [
        {
          "name": "",
          "type": "uint256"
        }
      ],
      "payable": false,
      "stateMutability": "nonpayable",
      "type": "function"
    },
    {
      "constant": false,
      "inputs": [],
      "name": "investEtherForDID",
      "outputs": [
        {
          "name": "",
          "type": "uint256"
        }
      ],
      "payable": true,
      "stateMutability": "payable",
      "type": "function"
    },
    {
      "constant": false,
      "inputs": [
        {
          "name": "_contributor",
          "type": "address"
        },
        {
          "name": "_reward",
          "type": "uint256"
        }
      ],
      "name": "incrementDIDFromContributions",
      "outputs": [],
      "payable": false,
      "stateMutability": "nonpayable",
      "type": "function"
    },
    {
      "constant": false,
      "inputs": [
        {
          "name": "_contributor",
          "type": "address"
        }
      ],
      "name": "incrementTasksCompleted",
      "outputs": [
        {
          "name": "",
          "type": "bool"
        }
      ],
      "payable": false,
      "stateMutability": "nonpayable",
      "type": "function"
    },
    {
      "constant": true,
      "inputs": [
        {
          "name": "_address",
          "type": "address"
        }
      ],
      "name": "pctDIDOwned",
      "outputs": [
        {
          "name": "",
          "type": "uint256"
        }
      ],
      "payable": false,
      "stateMutability": "view",
      "type": "function"
    },
    {
      "constant": true,
      "inputs": [
        {
          "name": "_contributor",
          "type": "address"
        }
      ],
      "name": "getNumWeiAddressMayInvest",
      "outputs": [
        {
          "name": "",
          "type": "uint256"
        }
      ],
      "payable": false,
      "stateMutability": "view",
      "type": "function"
    },
    {
      "constant": false,
      "inputs": [
        {
          "name": "_contributor",
          "type": "address"
        },
        {
          "name": "_reward",
          "type": "uint256"
        }
      ],
      "name": "rewardContributor",
      "outputs": [
        {
          "name": "",
          "type": "bool"
        }
      ],
      "payable": false,
      "stateMutability": "nonpayable",
      "type": "function"
    },
    {
      "constant": true,
      "inputs": [],
      "name": "getWeiAggregateMayInvest",
      "outputs": [
        {
          "name": "",
          "type": "uint256"
        }
      ],
      "payable": false,
      "stateMutability": "view",
      "type": "function"
    },
    {
      "constant": true,
      "inputs": [],
      "name": "getNumDIDHolders",
      "outputs": [
        {
          "name": "",
          "type": "uint256"
        }
      ],
      "payable": false,
      "stateMutability": "view",
      "type": "function"
    },
    {
      "constant": true,
      "inputs": [
        {
          "name": "_address",
          "type": "address"
        }
      ],
      "name": "getAddressBalance",
      "outputs": [
        {
          "name": "",
          "type": "uint256"
        }
      ],
      "payable": false,
      "stateMutability": "view",
      "type": "function"
    },
    {
      "constant": true,
      "inputs": [
        {
          "name": "_address",
          "type": "address"
        }
      ],
      "name": "getNumContributionsDID",
      "outputs": [
        {
          "name": "",
          "type": "uint256"
        }
      ],
      "payable": false,
      "stateMutability": "view",
      "type": "function"
    },
    {
      "constant": true,
      "inputs": [
        {
          "name": "_address",
          "type": "address"
        }
      ],
      "name": "getWeiInvested",
      "outputs": [
        {
          "name": "",
          "type": "uint256"
        }
      ],
      "payable": false,
      "stateMutability": "view",
      "type": "function"
    },
    {
      "constant": true,
      "inputs": [
        {
          "name": "msgValue",
          "type": "uint256"
        },
        {
          "name": "DIDPerEther",
          "type": "uint256"
        }
      ],
      "name": "calculateNumDIDToIssue",
      "outputs": [
        {
          "name": "",
          "type": "uint256"
        }
      ],
      "payable": false,
      "stateMutability": "pure",
      "type": "function"
    },
    {
      "constant": true,
      "inputs": [
        {
          "name": "_numDIDToExchange",
          "type": "uint256"
        },
        {
          "name": "_DIDPerEther",
          "type": "uint256"
        }
      ],
      "name": "calculateNumWeiToIssue",
      "outputs": [
        {
          "name": "",
          "type": "uint256"
        }
      ],
      "payable": false,
      "stateMutability": "pure",
      "type": "function"
    },
    {
      "constant": false,
      "inputs": [
        {
          "name": "holder",
          "type": "address"
        }
      ],
      "name": "deleteDIDHolder",
      "outputs": [],
      "payable": false,
      "stateMutability": "nonpayable",
      "type": "function"
    },
    {
      "constant": false,
      "inputs": [
        {
          "name": "_distenseAddress",
          "type": "address"
        }
      ],
      "name": "setDistenseAddress",
      "outputs": [],
      "payable": false,
      "stateMutability": "nonpayable",
      "type": "function"
    }
  ],
  "bytecode": "0x608060405269152d02c7e14af680000060045568056bc75e2d63100000600555670de0b6b3a76400006006553480156200003857600080fd5b503360009081526020818152604091829020805460ff191660011790558151808301909252600c8083527f44697374656e7365204449440000000000000000000000000000000000000000929091019182526200009891600791620000f8565b506040805180820190915260038082527f44494400000000000000000000000000000000000000000000000000000000006020909201918252620000df91600891620000f8565b506000600a556009805460ff191660121790556200019d565b828054600181600116156101000203166002900490600052602060002090601f016020900481019282601f106200013b57805160ff19168380011785556200016b565b828001600101855582156200016b579182015b828111156200016b5782518255916020019190600101906200014e565b50620001799291506200017d565b5090565b6200019a91905b8082111562000179576000815560010162000184565b90565b61165080620001ad6000396000f30060806040526004361061017c5763ffffffff60e060020a6000350416630261a403811461018157806306fdde03146101b95780630afdbaed1461024357806311c091001461027457806312967182146102a157806318160ddd146102c257806325078bc4146102d75780632a4caf67146102ec578063313ce5671461030f578063350467221461033a5780633b15a3981461035b57806346da6eee1461037f578063484685b0146103945780636168ba3c146103b55780636a2875c1146103ca57806387b30845146103ee5780638800495014610406578063915555591461042757806395d89b41146104485780639ac97e841461045d578063a0d229d814610472578063a723761a14610487578063bad0d4f11461048f578063c621f96e146104a4578063c7560f46146104c5578063cb1e4e44146104dd578063d7b16d9114610501578063d8b964e61461054d578063daea85c51461056e578063dc2b32e61461058f578063f6774660146105b0578063fdf31b39146105cb575b600080fd5b34801561018d57600080fd5b506101a5600160a060020a03600435166024356105ec565b604080519115158252519081900360200190f35b3480156101c557600080fd5b506101ce61074c565b6040805160208082528351818301528351919283929083019185019080838360005b838110156102085781810151838201526020016101f0565b50505050905090810190601f1680156102355780820380516001836020036101000a031916815260200191505b509250505060405180910390f35b34801561024f57600080fd5b506102586107da565b60408051600160a060020a039092168252519081900360200190f35b34801561028057600080fd5b5061028f6004356024356107e9565b60408051918252519081900360200190f35b3480156102ad57600080fd5b5061028f600160a060020a0360043516610809565b3480156102ce57600080fd5b5061028f610827565b3480156102e357600080fd5b5061028f61082d565b3480156102f857600080fd5b5061030d600160a060020a0360043516610833565b005b34801561031b57600080fd5b50610324610880565b6040805160ff9092168252519081900360200190f35b34801561034657600080fd5b5061028f600160a060020a0360043516610889565b34801561036757600080fd5b506101a5600160a060020a03600435166024356108a4565b34801561038b57600080fd5b50610258610908565b3480156103a057600080fd5b5061030d600160a060020a0360043516610917565b3480156103c157600080fd5b5061028f61096b565b3480156103d657600080fd5b5061030d600160a060020a0360043516602435610981565b3480156103fa57600080fd5b5061028f6004356109f6565b34801561041257600080fd5b5061028f600160a060020a0360043516610ccc565b34801561043357600080fd5b5061028f600160a060020a0360043516610d8d565b34801561045457600080fd5b506101ce610f0c565b34801561046957600080fd5b5061028f610f67565b34801561047e57600080fd5b5061028f610f6d565b61028f610f73565b34801561049b57600080fd5b5061028f6111d2565b3480156104b057600080fd5b5061030d600160a060020a03600435166111d8565b3480156104d157600080fd5b506102586004356112d3565b3480156104e957600080fd5b5061028f600160a060020a03600435166024356112fb565b34801561050d57600080fd5b50610522600160a060020a0360043516611450565b6040805195865260208601949094528484019290925260608401526080830152519081900360a00190f35b34801561055957600080fd5b506101a5600160a060020a036004351661147f565b34801561057a57600080fd5b5061030d600160a060020a0360043516611494565b34801561059b57600080fd5b5061028f600160a060020a03600435166114eb565b3480156105bc57600080fd5b5061028f600435602435611509565b3480156105d757600080fd5b506101a5600160a060020a0360043516611515565b336000908152602081905260408120548190819060ff16151561060e57600080fd5b600160a060020a038516151561062357600080fd5b6000841161063057600080fd5b83670de0b6b3a7640000029350610649600a548561155b565b600a55600160a060020a0385166000908152600b60205260409020549150610671828561155b565b600160a060020a0386166000908152600b602052604090209081556002015415156107025750600180548082019091557fb10e2d527612073b26eecdfd717e6a320cf44b4afac2b0732d9fcbe2b7fa0cf68101805473ffffffffffffffffffffffffffffffffffffffff1916600160a060020a0387169081179091556000908152600b602052604090206002018190555b604080518581529051600160a060020a038716917f3433529aaca741f54b3397d6ef2d588bb92ecd0d87c4c41db2f379bfe5c168f4919081900360200190a2506001949350505050565b6007805460408051602060026001851615610100026000190190941693909304601f810184900484028201840190925281815292918301828280156107d25780601f106107a7576101008083540402835291602001916107d2565b820191906000526020600020905b8154815290600101906020018083116107b557829003601f168201915b505050505081565b600354600160a060020a031681565b600082670de0b6b3a7640000029250610802838361156a565b9392505050565b600160a060020a03166000908152600b602052604090206001015490565b600a5481565b60065481565b3360009081526020819052604090205460ff16151561085157600080fd5b6003805473ffffffffffffffffffffffffffffffffffffffff1916600160a060020a0392909216919091179055565b60095460ff1681565b600160a060020a03166000908152600b602052604090205490565b336000908152602081905260408120548190819060ff1615156108c657600080fd5b6108d884670de0b6b3a764000061156a565b91506108e485836105ec565b905080156108f6576108f68583610981565b6108ff85611515565b50505092915050565b600254600160a060020a031681565b3360009081526020819052604090205460ff16151561093557600080fd5b600160a060020a038116151561094a57600080fd5b600160a060020a03166000908152602081905260409020805460ff19169055565b600061097b600454600654611581565b90505b90565b3360009081526020819052604081205460ff16151561099f57600080fd5b50600160a060020a0382166000908152600b6020526040902060010154670de0b6b3a76400008202906109d2908261155b565b600160a060020a039093166000908152600b60205260409020600101929092555050565b6000670de0b6b3a764000082028180808080610a1133610809565b945085851015610a2057600080fd5b600360009054906101000a9004600160a060020a0316935083600160a060020a0316638fc6ad2d85600160a060020a0316632273bae26040518163ffffffff1660e060020a028152600401602060405180830381600087803b158015610a8557600080fd5b505af1158015610a99573d6000803e3d6000fd5b505050506040513d6020811015610aaf57600080fd5b50516040805160e060020a63ffffffff851602815260048101929092525160248083019260209291908290030181600087803b158015610aee57600080fd5b505af1158015610b02573d6000803e3d6000fd5b505050506040513d6020811015610b1857600080fd5b5051600a549093508610610b2b57600080fd5b610b3586846107e9565b91503090508031821115610bd057604080517f08c379a000000000000000000000000000000000000000000000000000000000815260206004820152602a60248201527f444944546f6b656e20636f6e7472616374206d7573742068617665207375666660448201527f696369656e742077656900000000000000000000000000000000000000000000606482015290519081900360840190fd5b336000908152600b6020526040902054610bea9087611581565b336000908152600b6020526040902090815560010154610c0a9087611581565b336000908152600b6020526040902060010155600a54610c2a9087611581565b600a55604051339083156108fc029084906000818181858888f19350505050158015610c5a573d6000803e3d6000fd5b50336000908152600b60205260409020541515610c7a57610c7a33611593565b60408051878152905133917feb7d31df09103642237866b5fa5946a266fda42585c7ba30a006a40e4e478d3f919081900360200190a25050336000908152600b60205260409020549695505050505050565b600160a060020a0381166000908152600b6020908152604080832054600a5482517e2c1a9e0000000000000000000000000000000000000000000000000000000081526004810192909252602482015260146044820152905173__SafeMath______________________________92622c1a9e9260648082019391829003018186803b158015610d5b57600080fd5b505af4158015610d6f573d6000803e3d6000fd5b505050506040513d6020811015610d8557600080fd5b505192915050565b600160a060020a0381166000908152600b6020526040812060010154818080808411610db857600080fd5b600554600160a060020a0387166000908152600b6020526040902060030154610de19190611581565b925060008311610df057600080fd5b600360009054906101000a9004600160a060020a0316915081600160a060020a0316638fc6ad2d83600160a060020a0316632273bae26040518163ffffffff1660e060020a028152600401602060405180830381600087803b158015610e5557600080fd5b505af1158015610e69573d6000803e3d6000fd5b505050506040513d6020811015610e7f57600080fd5b50516040805160e060020a63ffffffff851602815260048101929092525160248083019260209291908290030181600087803b158015610ebe57600080fd5b505af1158015610ed2573d6000803e3d6000fd5b505050506040513d6020811015610ee857600080fd5b5051905080670de0b6b3a76400008502811515610f0157fe5b049695505050505050565b6008805460408051602060026001851615610100026000190190941693909304601f810184900484028201840190925281815292918301828280156107d25780601f106107a7576101008083540402835291602001916107d2565b60015490565b60045481565b60008060008034610f8333610d8d565b1015610f8e57600080fd5b60045460065410610f9e57600080fd5b600360009054906101000a9004600160a060020a031692506110a983600160a060020a0316638fc6ad2d85600160a060020a0316632273bae26040518163ffffffff1660e060020a028152600401602060405180830381600087803b15801561100657600080fd5b505af115801561101a573d6000803e3d6000fd5b505050506040513d602081101561103057600080fd5b50516040805160e060020a63ffffffff851602815260048101929092525160248083019260209291908290030181600087803b15801561106f57600080fd5b505af1158015611083573d6000803e3d6000fd5b505050506040513d602081101561109957600080fd5b5051670de0b6b3a764000061156a565b91506110b53483611509565b336000908152600b60205260409020600101549091508111156110d757600080fd5b6110e3600a548261155b565b600a55336000908152600b6020526040902054611100908261155b565b336000908152600b60205260409020908155600101546111209082611581565b336000818152600b6020908152604091829020600181019490945560039093018054349081019091556006805490910190558051848152905191927f3433529aaca741f54b3397d6ef2d588bb92ecd0d87c4c41db2f379bfe5c168f492918290030190a260408051348152905133917f71894dba69eac3a3461302b16631257b4580fbc7be61f1d4b0e988845e6400f0919081900360200190a2336000908152600b6020526040902054935050505090565b60055481565b3360009081526020819052604081205460ff1615156111f657600080fd5b6001805411156112cf5760018054600019810190811061121257fe5b6000918252602080832090910154600160a060020a038581168452600b90925260409092206002015460018054929093169350839291811061125057fe5b6000918252602090912001805473ffffffffffffffffffffffffffffffffffffffff1916600160a060020a039290921691909117905560018054906112999060001983016115dd565b50600160a060020a0382166000908152600b60205260408120818155600181018290556002810182905560038101829055600401555b5050565b60018054829081106112e157fe5b600091825260209091200154600160a060020a0316905081565b33600090815260208190526040812054819060ff16151561131b57600080fd5b600160a060020a038416151561133057600080fd5b6000831161133d57600080fd5b50600160a060020a0383166000908152600b6020526040812054670de0b6b3a76400008402919061136e9083611581565b101561137957600080fd5b6000611387600a5483611581565b101561139257600080fd5b61139e600a5482611581565b600a55600160a060020a0384166000908152600b60205260409020546113c49082611581565b600160a060020a0385166000908152600b6020526040902081905515156113ee576113ee84611593565b604080518281529051600160a060020a038616917f9fa46c80453c295693dfa0974d48b43bfdb58bb909cedd3af0ba93589a3332c1919081900360200190a2600160a060020a0384166000908152600b602052604090205491505b5092915050565b600b60205260009081526040902080546001820154600283015460038401546004909401549293919290919085565b60006020819052908152604090205460ff1681565b3360009081526020819052604090205460ff1615156114b257600080fd5b600160a060020a03811615156114c757600080fd5b600160a060020a03166000908152602081905260409020805460ff19166001179055565b600160a060020a03166000908152600b602052604090206003015490565b600061080283836115b2565b3360009081526020819052604081205460ff16151561153357600080fd5b50600160a060020a03166000908152600b602052604090206004018054600190810190915590565b60008282018381101561080257fe5b600080828481151561157857fe5b04949350505050565b60008282111561158d57fe5b50900390565b6001805460009110156112cf5760018054600019810190811061121257fe5b6000808315156115c55760009150611449565b508282028284828115156115d557fe5b041461080257fe5b81548183558181111561160157600083815260209020611601918101908301611606565b505050565b61097e91905b80821115611620576000815560010161160c565b50905600a165627a7a7230582030698ec968863888513d0c49f0f8ca9be84e8345aea67c524b6b2360907847650029",
  "source": "pragma solidity ^0.4.23;\n\nimport './lib/Approvable.sol';\nimport './Distense.sol';\nimport './Debuggable.sol';\nimport './lib/SafeMath.sol';\n\ncontract DIDToken is Approvable, Debuggable {\n\n    using SafeMath for uint256;\n\n    event LogIssueDID(address indexed to, uint256 numDID);\n    event LogDecrementDID(address indexed to, uint256 numDID);\n    event LogExchangeDIDForEther(address indexed to, uint256 numDID);\n    event LogInvestEtherForDID(address indexed to, uint256 numWei);\n\n    address[] public DIDHoldersArray;\n\n    address public PullRequestsAddress;\n    address public DistenseAddress;\n\n    uint256 public investmentLimitAggregate  = 100000 ether;  // This is the max DID all addresses can receive from depositing ether\n    uint256 public investmentLimitAddress = 100 ether;  // This is the max DID any address can receive from Ether deposit\n    uint256 public investedAggregate = 1 ether;\n\n    string public name;\n    string public symbol;\n    uint8 public decimals;\n    uint256 public totalSupply;\n\n    struct DIDHolder {\n        uint256 balance;\n        uint256 netContributionsDID;    // essentially the number of DID remaining for calculating how much ether an account may invest\n        uint256 DIDHoldersIndex;\n        uint256 weiInvested;\n        uint256 tasksCompleted;\n    }\n    mapping (address => DIDHolder) public DIDHolders;\n\n    function DIDToken () {\n        name = \"Distense DID\";\n        symbol = \"DID\";\n        totalSupply = 0;\n        decimals = 18;\n    }\n\n    function issueDID(address _recipient, uint256 _numDID) public onlyApproved returns (bool) {\n        require(_recipient != address(0));\n        require(_numDID > 0);\n\n        _numDID = _numDID * 1 ether;\n        totalSupply = SafeMath.add(totalSupply, _numDID);\n        \n        uint256 balance = DIDHolders[_recipient].balance;\n        DIDHolders[_recipient].balance = SafeMath.add(balance, _numDID);\n\n        //  If is a new DIDHolder, set their position in DIDHoldersArray\n        if (DIDHolders[_recipient].DIDHoldersIndex == 0) {\n            uint256 index = DIDHoldersArray.push(_recipient) - 1;\n            DIDHolders[_recipient].DIDHoldersIndex = index;\n        }\n\n        emit LogIssueDID(_recipient, _numDID);\n\n        return true;\n    }\n\n    function decrementDID(address _address, uint256 _numDID) external onlyApproved returns (uint256) {\n        require(_address != address(0));\n        require(_numDID > 0);\n\n        uint256 numDID = _numDID * 1 ether;\n        require(SafeMath.sub(DIDHolders[_address].balance, numDID) >= 0);\n        require(SafeMath.sub(totalSupply, numDID ) >= 0);\n\n        totalSupply = SafeMath.sub(totalSupply, numDID);\n        DIDHolders[_address].balance = SafeMath.sub(DIDHolders[_address].balance, numDID);\n\n        //  If DIDHolder has exchanged all of their DID remove from DIDHoldersArray\n        //  For minimizing blockchain size and later client query performance\n        if (DIDHolders[_address].balance == 0) {\n            deleteDIDHolderWhenBalanceZero(_address);\n        }\n\n        emit LogDecrementDID(_address, numDID);\n\n        return DIDHolders[_address].balance;\n    }\n\n    function exchangeDIDForEther(uint256 _numDIDToExchange)\n        external\n    returns (uint256) {\n\n        uint256 numDIDToExchange = _numDIDToExchange * 1 ether;\n        uint256 netContributionsDID = getNumContributionsDID(msg.sender);\n        require(netContributionsDID >= numDIDToExchange);\n\n        Distense distense = Distense(DistenseAddress);\n        uint256 DIDPerEther = distense.getParameterValueByTitle(distense.didPerEtherParameterTitle());\n\n        require(numDIDToExchange < totalSupply);\n\n        uint256 numWeiToIssue = calculateNumWeiToIssue(numDIDToExchange, DIDPerEther);\n        address contractAddress = this;\n        require(contractAddress.balance >= numWeiToIssue, \"DIDToken contract must have sufficient wei\");\n\n        //  Adjust number of DID owned first\n        DIDHolders[msg.sender].balance = SafeMath.sub(DIDHolders[msg.sender].balance, numDIDToExchange);\n        DIDHolders[msg.sender].netContributionsDID = SafeMath.sub(DIDHolders[msg.sender].netContributionsDID, numDIDToExchange);\n        totalSupply = SafeMath.sub(totalSupply, numDIDToExchange);\n\n        msg.sender.transfer(numWeiToIssue);\n\n        if (DIDHolders[msg.sender].balance == 0) {\n            deleteDIDHolderWhenBalanceZero(msg.sender);\n        }\n        emit LogExchangeDIDForEther(msg.sender, numDIDToExchange);\n\n        return DIDHolders[msg.sender].balance;\n    }\n\n    function investEtherForDID() external payable returns (uint256) {\n        require(getNumWeiAddressMayInvest(msg.sender) >= msg.value);\n        require(investedAggregate < investmentLimitAggregate);\n\n        Distense distense = Distense(DistenseAddress);\n        uint256 DIDPerEther = SafeMath.div(distense.getParameterValueByTitle(distense.didPerEtherParameterTitle()), 1 ether);\n\n        uint256 numDIDToIssue = calculateNumDIDToIssue(msg.value, DIDPerEther);\n        require(DIDHolders[msg.sender].netContributionsDID >= numDIDToIssue);\n        totalSupply = SafeMath.add(totalSupply, numDIDToIssue);\n        DIDHolders[msg.sender].balance = SafeMath.add(DIDHolders[msg.sender].balance, numDIDToIssue);\n        DIDHolders[msg.sender].netContributionsDID = SafeMath.sub(DIDHolders[msg.sender].netContributionsDID, numDIDToIssue);\n\n        DIDHolders[msg.sender].weiInvested += msg.value;\n        investedAggregate = investedAggregate + msg.value;\n\n        emit LogIssueDID(msg.sender, numDIDToIssue);\n        emit LogInvestEtherForDID(msg.sender, msg.value);\n\n        return DIDHolders[msg.sender].balance;\n    }\n\n    function incrementDIDFromContributions(address _contributor, uint256 _reward) onlyApproved public {\n        uint256 weiReward = _reward * 1 ether;\n        DIDHolders[_contributor].netContributionsDID = SafeMath.add(DIDHolders[_contributor].netContributionsDID, weiReward);\n    }\n\n    function incrementTasksCompleted(address _contributor) onlyApproved public returns (bool) {\n        DIDHolders[_contributor].tasksCompleted++;\n        return true;\n    }\n\n    function pctDIDOwned(address _address) external view returns (uint256) {\n        return SafeMath.percent(DIDHolders[_address].balance, totalSupply, 20);\n    }\n\n    function getNumWeiAddressMayInvest(address _contributor) public view returns (uint256) {\n\n        uint256 DIDFromContributions = DIDHolders[_contributor].netContributionsDID;\n        require(DIDFromContributions > 0);\n        uint256 netUninvestedEther = SafeMath.sub(investmentLimitAddress, DIDHolders[_contributor].weiInvested);\n        require(netUninvestedEther > 0);\n\n        Distense distense = Distense(DistenseAddress);\n        uint256 DIDPerEther = distense.getParameterValueByTitle(distense.didPerEtherParameterTitle());\n\n        return (DIDFromContributions * 1 ether) / DIDPerEther;\n    }\n\n    function rewardContributor(address _contributor, uint256 _reward) external onlyApproved returns (bool) {\n        uint256 reward = SafeMath.div(_reward, 1 ether);\n        bool issued = issueDID(_contributor, reward);\n        if (issued) incrementDIDFromContributions(_contributor, reward);\n        incrementTasksCompleted(_contributor);\n    }\n\n    function getWeiAggregateMayInvest() public view returns (uint256) {\n        return SafeMath.sub(investmentLimitAggregate, investedAggregate);\n    }\n\n    function getNumDIDHolders() external view returns (uint256) {\n        return DIDHoldersArray.length;\n    }\n\n    function getAddressBalance(address _address) public view returns (uint256) {\n        return DIDHolders[_address].balance;\n    }\n\n    function getNumContributionsDID(address _address) public view returns (uint256) {\n        return DIDHolders[_address].netContributionsDID;\n    }\n\n    function getWeiInvested(address _address) public view returns (uint256) {\n        return DIDHolders[_address].weiInvested;\n    }\n\n    function calculateNumDIDToIssue(uint256 msgValue, uint256 DIDPerEther) public pure returns (uint256) {\n        return SafeMath.mul(msgValue, DIDPerEther);\n    }\n\n    function calculateNumWeiToIssue(uint256 _numDIDToExchange, uint256 _DIDPerEther) public pure returns (uint256) {\n        _numDIDToExchange = _numDIDToExchange * 1 ether;\n        return SafeMath.div(_numDIDToExchange, _DIDPerEther);\n    }\n\n    function deleteDIDHolderWhenBalanceZero(address holder) internal {\n        if (DIDHoldersArray.length > 1) {\n            address lastElement = DIDHoldersArray[DIDHoldersArray.length - 1];\n            DIDHoldersArray[DIDHolders[holder].DIDHoldersIndex] = lastElement;\n            DIDHoldersArray.length--;\n            delete DIDHolders[holder];\n        }\n    }\n\n    function deleteDIDHolder(address holder) public onlyApproved {\n        if (DIDHoldersArray.length > 1) {\n            address lastElement = DIDHoldersArray[DIDHoldersArray.length - 1];\n            DIDHoldersArray[DIDHolders[holder].DIDHoldersIndex] = lastElement;\n            DIDHoldersArray.length--;\n            delete DIDHolders[holder];\n        }\n    }\n\n    function setDistenseAddress(address _distenseAddress) onlyApproved public  {\n        DistenseAddress = _distenseAddress;\n    }\n\n}\n",
  "sourcePath": "/Users/john/distense-contracts/contracts/DIDToken.sol",
  "compiler": {
    "name": "solc",
    "version": "0.4.24+commit.e67f0147.Emscripten.clang"
  },
  "schemaVersion": "2.0.1",
  "updatedAt": "2018-09-19T16:56:31.275Z"
}