{
  "contractName": "DIDToken",
  "abi": [
    {
      "constant": true,
      "inputs": [],
      "name": "name",
      "outputs": [
        {
          "name": "",
          "type": "string"
        }
      ],
      "payable": false,
      "stateMutability": "view",
      "type": "function"
    },
    {
      "constant": true,
      "inputs": [],
      "name": "DistenseAddress",
      "outputs": [
        {
          "name": "",
          "type": "address"
        }
      ],
      "payable": false,
      "stateMutability": "view",
      "type": "function"
    },
    {
      "constant": true,
      "inputs": [],
      "name": "totalSupply",
      "outputs": [
        {
          "name": "",
          "type": "uint256"
        }
      ],
      "payable": false,
      "stateMutability": "view",
      "type": "function"
    },
    {
      "constant": true,
      "inputs": [],
      "name": "investedAggregate",
      "outputs": [
        {
          "name": "",
          "type": "uint256"
        }
      ],
      "payable": false,
      "stateMutability": "view",
      "type": "function"
    },
    {
      "constant": true,
      "inputs": [],
      "name": "decimals",
      "outputs": [
        {
          "name": "",
          "type": "uint8"
        }
      ],
      "payable": false,
      "stateMutability": "view",
      "type": "function"
    },
    {
      "constant": true,
      "inputs": [],
      "name": "PullRequestsAddress",
      "outputs": [
        {
          "name": "",
          "type": "address"
        }
      ],
      "payable": false,
      "stateMutability": "view",
      "type": "function"
    },
    {
      "constant": false,
      "inputs": [
        {
          "name": "_address",
          "type": "address"
        }
      ],
      "name": "revokeApproval",
      "outputs": [],
      "payable": false,
      "stateMutability": "nonpayable",
      "type": "function"
    },
    {
      "constant": true,
      "inputs": [],
      "name": "symbol",
      "outputs": [
        {
          "name": "",
          "type": "string"
        }
      ],
      "payable": false,
      "stateMutability": "view",
      "type": "function"
    },
    {
      "constant": true,
      "inputs": [],
      "name": "investmentLimitAggregate",
      "outputs": [
        {
          "name": "",
          "type": "uint256"
        }
      ],
      "payable": false,
      "stateMutability": "view",
      "type": "function"
    },
    {
      "constant": true,
      "inputs": [],
      "name": "investmentLimitAddress",
      "outputs": [
        {
          "name": "",
          "type": "uint256"
        }
      ],
      "payable": false,
      "stateMutability": "view",
      "type": "function"
    },
    {
      "constant": true,
      "inputs": [
        {
          "name": "",
          "type": "uint256"
        }
      ],
      "name": "DIDHoldersArray",
      "outputs": [
        {
          "name": "",
          "type": "address"
        }
      ],
      "payable": false,
      "stateMutability": "view",
      "type": "function"
    },
    {
      "constant": true,
      "inputs": [
        {
          "name": "",
          "type": "address"
        }
      ],
      "name": "DIDHolders",
      "outputs": [
        {
          "name": "balance",
          "type": "uint256"
        },
        {
          "name": "netContributionsDID",
          "type": "uint256"
        },
        {
          "name": "DIDHoldersIndex",
          "type": "uint256"
        },
        {
          "name": "weiInvested",
          "type": "uint256"
        },
        {
          "name": "tasksCompleted",
          "type": "uint256"
        }
      ],
      "payable": false,
      "stateMutability": "view",
      "type": "function"
    },
    {
      "constant": true,
      "inputs": [
        {
          "name": "",
          "type": "address"
        }
      ],
      "name": "approved",
      "outputs": [
        {
          "name": "",
          "type": "bool"
        }
      ],
      "payable": false,
      "stateMutability": "view",
      "type": "function"
    },
    {
      "constant": false,
      "inputs": [
        {
          "name": "_address",
          "type": "address"
        }
      ],
      "name": "approve",
      "outputs": [],
      "payable": false,
      "stateMutability": "nonpayable",
      "type": "function"
    },
    {
      "inputs": [],
      "payable": false,
      "stateMutability": "nonpayable",
      "type": "constructor"
    },
    {
      "anonymous": false,
      "inputs": [
        {
          "indexed": true,
          "name": "to",
          "type": "address"
        },
        {
          "indexed": false,
          "name": "numDID",
          "type": "uint256"
        }
      ],
      "name": "LogIssueDID",
      "type": "event"
    },
    {
      "anonymous": false,
      "inputs": [
        {
          "indexed": true,
          "name": "to",
          "type": "address"
        },
        {
          "indexed": false,
          "name": "numDID",
          "type": "uint256"
        }
      ],
      "name": "LogDecrementDID",
      "type": "event"
    },
    {
      "anonymous": false,
      "inputs": [
        {
          "indexed": true,
          "name": "to",
          "type": "address"
        },
        {
          "indexed": false,
          "name": "numDID",
          "type": "uint256"
        }
      ],
      "name": "LogExchangeDIDForEther",
      "type": "event"
    },
    {
      "anonymous": false,
      "inputs": [
        {
          "indexed": true,
          "name": "to",
          "type": "address"
        },
        {
          "indexed": false,
          "name": "numWei",
          "type": "uint256"
        }
      ],
      "name": "LogInvestEtherForDID",
      "type": "event"
    },
    {
      "anonymous": false,
      "inputs": [
        {
          "indexed": false,
          "name": "someAddress",
          "type": "address"
        }
      ],
      "name": "LogAddress",
      "type": "event"
    },
    {
      "anonymous": false,
      "inputs": [
        {
          "indexed": false,
          "name": "boolean",
          "type": "bool"
        }
      ],
      "name": "LogBool",
      "type": "event"
    },
    {
      "anonymous": false,
      "inputs": [
        {
          "indexed": false,
          "name": "someBytes",
          "type": "bytes"
        }
      ],
      "name": "LogBytes",
      "type": "event"
    },
    {
      "anonymous": false,
      "inputs": [
        {
          "indexed": false,
          "name": "aBytes32",
          "type": "bytes32"
        }
      ],
      "name": "LogBytes32",
      "type": "event"
    },
    {
      "anonymous": false,
      "inputs": [
        {
          "indexed": false,
          "name": "aString",
          "type": "string"
        }
      ],
      "name": "LogString",
      "type": "event"
    },
    {
      "anonymous": false,
      "inputs": [
        {
          "indexed": false,
          "name": "someInt",
          "type": "uint256"
        }
      ],
      "name": "LogUInt256",
      "type": "event"
    },
    {
      "anonymous": false,
      "inputs": [
        {
          "indexed": false,
          "name": "someInt",
          "type": "int256"
        }
      ],
      "name": "LogInt256",
      "type": "event"
    },
    {
      "constant": false,
      "inputs": [
        {
          "name": "_recipient",
          "type": "address"
        },
        {
          "name": "_numDID",
          "type": "uint256"
        }
      ],
      "name": "issueDID",
      "outputs": [
        {
          "name": "",
          "type": "uint256"
        }
      ],
      "payable": false,
      "stateMutability": "nonpayable",
      "type": "function"
    },
    {
      "constant": false,
      "inputs": [
        {
          "name": "_address",
          "type": "address"
        },
        {
          "name": "_numDID",
          "type": "uint256"
        }
      ],
      "name": "decrementDID",
      "outputs": [
        {
          "name": "",
          "type": "uint256"
        }
      ],
      "payable": false,
      "stateMutability": "nonpayable",
      "type": "function"
    },
    {
      "constant": false,
      "inputs": [
        {
          "name": "_numDIDToExchange",
          "type": "uint256"
        }
      ],
      "name": "exchangeDIDForEther",
      "outputs": [
        {
          "name": "",
          "type": "uint256"
        }
      ],
      "payable": false,
      "stateMutability": "nonpayable",
      "type": "function"
    },
    {
      "constant": false,
      "inputs": [],
      "name": "investEtherForDID",
      "outputs": [
        {
          "name": "",
          "type": "uint256"
        }
      ],
      "payable": true,
      "stateMutability": "payable",
      "type": "function"
    },
    {
      "constant": false,
      "inputs": [
        {
          "name": "_contributor",
          "type": "address"
        },
        {
          "name": "_reward",
          "type": "uint256"
        }
      ],
      "name": "incrementDIDFromContributions",
      "outputs": [],
      "payable": false,
      "stateMutability": "nonpayable",
      "type": "function"
    },
    {
      "constant": false,
      "inputs": [
        {
          "name": "_contributor",
          "type": "address"
        }
      ],
      "name": "incrementTasksCompleted",
      "outputs": [
        {
          "name": "",
          "type": "bool"
        }
      ],
      "payable": false,
      "stateMutability": "nonpayable",
      "type": "function"
    },
    {
      "constant": true,
      "inputs": [
        {
          "name": "_address",
          "type": "address"
        }
      ],
      "name": "pctDIDOwned",
      "outputs": [
        {
          "name": "",
          "type": "uint256"
        }
      ],
      "payable": false,
      "stateMutability": "view",
      "type": "function"
    },
    {
      "constant": true,
      "inputs": [
        {
          "name": "_contributor",
          "type": "address"
        }
      ],
      "name": "getNumWeiAddressMayInvest",
      "outputs": [
        {
          "name": "",
          "type": "uint256"
        }
      ],
      "payable": false,
      "stateMutability": "view",
      "type": "function"
    },
    {
      "constant": false,
      "inputs": [
        {
          "name": "_contributor",
          "type": "address"
        },
        {
          "name": "_reward",
          "type": "uint256"
        }
      ],
      "name": "rewardContributor",
      "outputs": [
        {
          "name": "",
          "type": "bool"
        }
      ],
      "payable": false,
      "stateMutability": "nonpayable",
      "type": "function"
    },
    {
      "constant": true,
      "inputs": [],
      "name": "getWeiAggregateMayInvest",
      "outputs": [
        {
          "name": "",
          "type": "uint256"
        }
      ],
      "payable": false,
      "stateMutability": "view",
      "type": "function"
    },
    {
      "constant": true,
      "inputs": [],
      "name": "getNumDIDHolders",
      "outputs": [
        {
          "name": "",
          "type": "uint256"
        }
      ],
      "payable": false,
      "stateMutability": "view",
      "type": "function"
    },
    {
      "constant": true,
      "inputs": [
        {
          "name": "_address",
          "type": "address"
        }
      ],
      "name": "getAddressBalance",
      "outputs": [
        {
          "name": "",
          "type": "uint256"
        }
      ],
      "payable": false,
      "stateMutability": "view",
      "type": "function"
    },
    {
      "constant": true,
      "inputs": [
        {
          "name": "_address",
          "type": "address"
        }
      ],
      "name": "getNumContributionsDID",
      "outputs": [
        {
          "name": "",
          "type": "uint256"
        }
      ],
      "payable": false,
      "stateMutability": "view",
      "type": "function"
    },
    {
      "constant": true,
      "inputs": [
        {
          "name": "_address",
          "type": "address"
        }
      ],
      "name": "getWeiInvested",
      "outputs": [
        {
          "name": "",
          "type": "uint256"
        }
      ],
      "payable": false,
      "stateMutability": "view",
      "type": "function"
    },
    {
      "constant": true,
      "inputs": [
        {
          "name": "msgValue",
          "type": "uint256"
        },
        {
          "name": "DIDPerEther",
          "type": "uint256"
        }
      ],
      "name": "calculateNumDIDToIssue",
      "outputs": [
        {
          "name": "",
          "type": "uint256"
        }
      ],
      "payable": false,
      "stateMutability": "pure",
      "type": "function"
    },
    {
      "constant": true,
      "inputs": [
        {
          "name": "_numDIDToExchange",
          "type": "uint256"
        },
        {
          "name": "_DIDPerEther",
          "type": "uint256"
        }
      ],
      "name": "calculateNumWeiToIssue",
      "outputs": [
        {
          "name": "",
          "type": "uint256"
        }
      ],
      "payable": false,
      "stateMutability": "pure",
      "type": "function"
    },
    {
      "constant": false,
      "inputs": [
        {
          "name": "_distenseAddress",
          "type": "address"
        }
      ],
      "name": "setDistenseAddress",
      "outputs": [],
      "payable": false,
      "stateMutability": "nonpayable",
      "type": "function"
    }
  ],
  "bytecode": "0x608060405269021e19e0c9bab240000060045568056bc75e2d63100000600555670de0b6b3a76400006006553480156200003857600080fd5b50600160a060020a03331660009081526020818152604091829020805460ff191660011790558151808301909252600c8083527f44697374656e736520444944000000000000000000000000000000000000000092909101918252620000a19160079162000101565b506040805180820190915260038082527f44494400000000000000000000000000000000000000000000000000000000006020909201918252620000e89160089162000101565b506000600a556009805460ff19166012179055620001a6565b828054600181600116156101000203166002900490600052602060002090601f016020900481019282601f106200014457805160ff191683800117855562000174565b8280016001018555821562000174579182015b828111156200017457825182559160200191906001019062000157565b506200018292915062000186565b5090565b620001a391905b808211156200018257600081556001016200018d565b90565b61179d80620001b66000396000f3006080604052600436106101715763ffffffff60e060020a6000350416630261a403811461017657806306fdde03146101ac5780630afdbaed1461023657806311c0910014610267578063129671821461028257806318160ddd146102a357806325078bc4146102b85780632a4caf67146102cd578063313ce567146102f0578063350467221461031b5780633b15a3981461033c57806346da6eee14610374578063484685b0146103895780636168ba3c146103aa5780636a2875c1146103bf57806387b30845146103e357806388004950146103fb578063915555591461041c57806395d89b411461043d5780639ac97e8414610452578063a0d229d814610467578063a723761a1461047c578063bad0d4f114610484578063c7560f4614610499578063cb1e4e44146104b1578063d7b16d91146104d5578063d8b964e614610521578063daea85c514610542578063dc2b32e614610563578063f677466014610584578063fdf31b391461059f575b600080fd5b34801561018257600080fd5b5061019a600160a060020a03600435166024356105c0565b60408051918252519081900360200190f35b3480156101b857600080fd5b506101c161073b565b6040805160208082528351818301528351919283929083019185019080838360005b838110156101fb5781810151838201526020016101e3565b50505050905090810190601f1680156102285780820380516001836020036101000a031916815260200191505b509250505060405180910390f35b34801561024257600080fd5b5061024b6107c9565b60408051600160a060020a039092168252519081900360200190f35b34801561027357600080fd5b5061019a6004356024356107d8565b34801561028e57600080fd5b5061019a600160a060020a03600435166107f8565b3480156102af57600080fd5b5061019a610816565b3480156102c457600080fd5b5061019a61081c565b3480156102d957600080fd5b506102ee600160a060020a0360043516610822565b005b3480156102fc57600080fd5b50610305610878565b6040805160ff9092168252519081900360200190f35b34801561032757600080fd5b5061019a600160a060020a0360043516610881565b34801561034857600080fd5b50610360600160a060020a036004351660243561089c565b604080519115158252519081900360200190f35b34801561038057600080fd5b5061024b6108f8565b34801561039557600080fd5b506102ee600160a060020a0360043516610907565b3480156103b657600080fd5b5061019a610964565b3480156103cb57600080fd5b506102ee600160a060020a036004351660243561097a565b3480156103ef57600080fd5b5061019a6004356109f8565b34801561040757600080fd5b5061019a600160a060020a0360043516610e15565b34801561042857600080fd5b5061019a600160a060020a0360043516610ed6565b34801561044957600080fd5b506101c1611055565b34801561045e57600080fd5b5061019a6110b0565b34801561047357600080fd5b5061019a6110b6565b61019a6110bc565b34801561049057600080fd5b5061019a611351565b3480156104a557600080fd5b5061024b600435611357565b3480156104bd57600080fd5b5061019a600160a060020a036004351660243561137f565b3480156104e157600080fd5b506104f6600160a060020a03600435166115aa565b6040805195865260208601949094528484019290925260608401526080830152519081900360a00190f35b34801561052d57600080fd5b50610360600160a060020a03600435166115d9565b34801561054e57600080fd5b506102ee600160a060020a03600435166115ee565b34801561056f57600080fd5b5061019a600160a060020a036004351661164e565b34801561059057600080fd5b5061019a60043560243561166c565b3480156105ab57600080fd5b50610360600160a060020a0360043516611678565b600160a060020a033316600090815260208190526040812054819060ff1615156105e957600080fd5b600160a060020a03841615156105fe57600080fd5b6000831161060b57600080fd5b82670de0b6b3a7640000029250610624600a54846116c7565b600a5550600160a060020a0383166000908152600b602052604090205461064b81846116c7565b600160a060020a0385166000908152600b602052604090209081556002015415156106d957600180548082019091557fb10e2d527612073b26eecdfd717e6a320cf44b4afac2b0732d9fcbe2b7fa0cf68101805473ffffffffffffffffffffffffffffffffffffffff1916600160a060020a0387169081179091556000908152600b60205260409020600201555b604080518481529051600160a060020a038616917f3433529aaca741f54b3397d6ef2d588bb92ecd0d87c4c41db2f379bfe5c168f4919081900360200190a2600160a060020a0384166000908152600b602052604090205491505b5092915050565b6007805460408051602060026001851615610100026000190190941693909304601f810184900484028201840190925281815292918301828280156107c15780601f10610796576101008083540402835291602001916107c1565b820191906000526020600020905b8154815290600101906020018083116107a457829003601f168201915b505050505081565b600354600160a060020a031681565b600082670de0b6b3a76400000292506107f183836116d6565b9392505050565b600160a060020a03166000908152600b602052604090206001015490565b600a5481565b60065481565b600160a060020a03331660009081526020819052604090205460ff16151561084957600080fd5b6003805473ffffffffffffffffffffffffffffffffffffffff1916600160a060020a0392909216919091179055565b60095460ff1681565b600160a060020a03166000908152600b602052604090205490565b600160a060020a033316600090815260208190526040812054819060ff1615156108c557600080fd5b6108d783670de0b6b3a76400006116d6565b90506108e384826105c0565b506108ed84611678565b50610734848261097a565b600254600160a060020a031681565b600160a060020a03331660009081526020819052604090205460ff16151561092e57600080fd5b600160a060020a038116151561094357600080fd5b600160a060020a03166000908152602081905260409020805460ff19169055565b60006109746004546006546116ed565b90505b90565b600160a060020a03331660009081526020819052604081205460ff1615156109a157600080fd5b50600160a060020a0382166000908152600b6020526040902060010154670de0b6b3a76400008202906109d490826116c7565b600160a060020a039093166000908152600b60205260409020600101929092555050565b600080600080600080600080610a0d336107f8565b600160a060020a0333166000908152600b6020526040902060010154909750670de0b6b3a76400008a021115610a4257600080fd5b600360009054906101000a9004600160a060020a0316955085600160a060020a0316638fc6ad2d87600160a060020a0316632273bae26040518163ffffffff1660e060020a028152600401602060405180830381600087803b158015610aa757600080fd5b505af1158015610abb573d6000803e3d6000fd5b505050506040513d6020811015610ad157600080fd5b50516040805160e060020a63ffffffff851602815260048101929092525160248083019260209291908290030181600087803b158015610b1057600080fd5b505af1158015610b24573d6000803e3d6000fd5b505050506040513d6020811015610b3a57600080fd5b5051600a54909550670de0b6b3a76400008a0294508410610b5a57600080fd5b610b6484866107d8565b9250309150600160a060020a03821631831115610c0857604080517f08c379a000000000000000000000000000000000000000000000000000000000815260206004820152602a60248201527f444944546f6b656e20636f6e7472616374206d7573742068617665207375666660448201527f696369656e742077656900000000000000000000000000000000000000000000606482015290519081900360840190fd5b600160a060020a0333166000908152600b6020526040902054610c2b90856116ed565b600160a060020a0333166000908152600b6020526040902090815560010154610c5490856116ed565b600160a060020a0333166000908152600b6020526040902060010155600a54610c7d90856116ed565b600a55604051600160a060020a0333169084156108fc029085906000818181858888f19350505050158015610cb6573d6000803e3d6000fd5b50600160a060020a0333166000908152600b60205260409020541515610db057600180541115610db057600180546000198101908110610cf257fe5b600091825260208083209091015433600160a060020a039081168452600b909252604090922060020154600180549290931693508392918110610d3157fe5b6000918252602090912001805473ffffffffffffffffffffffffffffffffffffffff1916600160a060020a03929092169190911790556001805490610d7a90600019830161172a565b50600160a060020a0333166000908152600b60205260408120818155600181018290556002810182905560038101829055600401555b604080518581529051600160a060020a033316917feb7d31df09103642237866b5fa5946a266fda42585c7ba30a006a40e4e478d3f919081900360200190a250505033600160a060020a03166000908152600b60205260409020549695505050505050565b600160a060020a0381166000908152600b6020908152604080832054600a5482517e2c1a9e0000000000000000000000000000000000000000000000000000000081526004810192909252602482015260146044820152905173__SafeMath______________________________92622c1a9e9260648082019391829003018186803b158015610ea457600080fd5b505af4158015610eb8573d6000803e3d6000fd5b505050506040513d6020811015610ece57600080fd5b505192915050565b600160a060020a0381166000908152600b6020526040812060010154818080808411610f0157600080fd5b600554600160a060020a0387166000908152600b6020526040902060030154610f2a91906116ed565b925060008311610f3957600080fd5b600360009054906101000a9004600160a060020a0316915081600160a060020a0316638fc6ad2d83600160a060020a0316632273bae26040518163ffffffff1660e060020a028152600401602060405180830381600087803b158015610f9e57600080fd5b505af1158015610fb2573d6000803e3d6000fd5b505050506040513d6020811015610fc857600080fd5b50516040805160e060020a63ffffffff851602815260048101929092525160248083019260209291908290030181600087803b15801561100757600080fd5b505af115801561101b573d6000803e3d6000fd5b505050506040513d602081101561103157600080fd5b5051905080670de0b6b3a7640000850281151561104a57fe5b049695505050505050565b6008805460408051602060026001851615610100026000190190941693909304601f810184900484028201840190925281815292918301828280156107c15780601f10610796576101008083540402835291602001916107c1565b60015490565b60045481565b600080600080346110cc33610ed6565b10156110d757600080fd5b600454600654106110e757600080fd5b600360009054906101000a9004600160a060020a031692506111f283600160a060020a0316638fc6ad2d85600160a060020a0316632273bae26040518163ffffffff1660e060020a028152600401602060405180830381600087803b15801561114f57600080fd5b505af1158015611163573d6000803e3d6000fd5b505050506040513d602081101561117957600080fd5b50516040805160e060020a63ffffffff851602815260048101929092525160248083019260209291908290030181600087803b1580156111b857600080fd5b505af11580156111cc573d6000803e3d6000fd5b505050506040513d60208110156111e257600080fd5b5051670de0b6b3a76400006116d6565b91506111fe348361166c565b600160a060020a0333166000908152600b602052604090206001015490915081111561122957600080fd5b611235600a54826116c7565b600a55600160a060020a0333166000908152600b602052604090205461125b90826116c7565b600160a060020a0333166000908152600b602052604090209081556001015461128490826116ed565b600160a060020a0333166000818152600b6020908152604091829020600181019490945560039093018054349081019091556006805490910190558051848152905191927f3433529aaca741f54b3397d6ef2d588bb92ecd0d87c4c41db2f379bfe5c168f492918290030190a2604080513481529051600160a060020a033316917f71894dba69eac3a3461302b16631257b4580fbc7be61f1d4b0e988845e6400f0919081900360200190a2600160a060020a0333166000908152600b6020526040902054935050505090565b60055481565b600180548290811061136557fe5b600091825260209091200154600160a060020a0316905081565b600160a060020a0333166000908152602081905260408120548190819060ff1615156113aa57600080fd5b600160a060020a03851615156113bf57600080fd5b600084116113cc57600080fd5b600160a060020a0385166000908152600b6020526040812054670de0b6b3a7640000860293506113fc90846116ed565b101561140757600080fd5b6000611415600a54846116ed565b101561142057600080fd5b61142c600a54836116ed565b600a55600160a060020a0385166000908152600b602052604090205461145290836116ed565b600160a060020a0386166000908152600b60205260409020819055151561154c5760018054111561154c5760018054600019810190811061148f57fe5b6000918252602080832090910154600160a060020a038881168452600b9092526040909220600201546001805492909316935083929181106114cd57fe5b6000918252602090912001805473ffffffffffffffffffffffffffffffffffffffff1916600160a060020a0392909216919091179055600180549061151690600019830161172a565b50600160a060020a0333166000908152600b60205260408120818155600181018290556002810182905560038101829055600401555b604080518381529051600160a060020a038716917f9fa46c80453c295693dfa0974d48b43bfdb58bb909cedd3af0ba93589a3332c1919081900360200190a250505050600160a060020a03166000908152600b602052604090205490565b600b60205260009081526040902080546001820154600283015460038401546004909401549293919290919085565b60006020819052908152604090205460ff1681565b600160a060020a03331660009081526020819052604090205460ff16151561161557600080fd5b600160a060020a038116151561162a57600080fd5b600160a060020a03166000908152602081905260409020805460ff19166001179055565b600160a060020a03166000908152600b602052604090206003015490565b60006107f183836116ff565b600160a060020a03331660009081526020819052604081205460ff16151561169f57600080fd5b50600160a060020a03166000908152600b602052604090206004018054600190810190915590565b6000828201838110156107f157fe5b60008082848115156116e457fe5b04949350505050565b6000828211156116f957fe5b50900390565b6000808315156117125760009150610734565b5082820282848281151561172257fe5b04146107f157fe5b81548183558181111561174e5760008381526020902061174e918101908301611753565b505050565b61097791905b8082111561176d5760008155600101611759565b50905600a165627a7a7230582090a77f28bebe458cf63c5aa9a9a2ca001efb1c9c678cff11d6259332a22e445d0029",
  "source": "pragma solidity ^0.4.23;\n\nimport './lib/Approvable.sol';\nimport './Distense.sol';\nimport './Debuggable.sol';\nimport './lib/SafeMath.sol';\n\ncontract DIDToken is Approvable, Debuggable {\n\n    using SafeMath for uint256;\n\n    event LogIssueDID(address indexed to, uint256 numDID);\n    event LogDecrementDID(address indexed to, uint256 numDID);\n    event LogExchangeDIDForEther(address indexed to, uint256 numDID);\n    event LogInvestEtherForDID(address indexed to, uint256 numWei);\n\n    address[] public DIDHoldersArray;\n\n    address public PullRequestsAddress;\n    address public DistenseAddress;\n\n    uint256 public investmentLimitAggregate  = 10000 ether;  // This is the max DID all addresses can receive from depositing ether\n    uint256 public investmentLimitAddress = 100 ether;  // This is the max DID any address can receive from Ether deposit\n    uint256 public investedAggregate = 1 ether;\n\n    string public name;\n    string public symbol;\n    uint8 public decimals;\n    uint256 public totalSupply;\n\n    struct DIDHolder {\n        uint256 balance;\n        uint256 netContributionsDID;    // essentially the number of DID remaining for calculating how much ether an account may invest\n        uint256 DIDHoldersIndex;\n        uint256 weiInvested;\n        uint256 tasksCompleted;\n    }\n    mapping (address => DIDHolder) public DIDHolders;\n\n    function DIDToken () {\n        name = \"Distense DID\";\n        symbol = \"DID\";\n        totalSupply = 0;\n        decimals = 18;\n    }\n\n    function issueDID(address _recipient, uint256 _numDID) public onlyApproved returns (uint256) {\n        require(_recipient != address(0));\n        require(_numDID > 0);\n\n        _numDID = _numDID * 1 ether;\n        totalSupply = SafeMath.add(totalSupply, _numDID);\n        \n        uint256 balance = DIDHolders[_recipient].balance;\n        DIDHolders[_recipient].balance = SafeMath.add(balance, _numDID);\n\n        //  If is a new DIDHolder, set their position in DIDHoldersArray\n        if (DIDHolders[_recipient].DIDHoldersIndex == 0)\n            DIDHolders[_recipient].DIDHoldersIndex = DIDHoldersArray.push(_recipient) - 1;\n\n        emit LogIssueDID(_recipient, _numDID);\n\n        return DIDHolders[_recipient].balance;\n    }\n\n    function decrementDID(address _address, uint256 _numDID) external onlyApproved returns (uint256) {\n        require(_address != address(0));\n        require(_numDID > 0);\n\n        uint256 numDID = _numDID * 1 ether;\n        require(SafeMath.sub(DIDHolders[_address].balance, numDID) >= 0);\n        require(SafeMath.sub(totalSupply, numDID ) >= 0);\n\n        totalSupply = SafeMath.sub(totalSupply, numDID);\n        DIDHolders[_address].balance = SafeMath.sub(DIDHolders[_address].balance, numDID);\n\n        //  If DIDHolder has exchanged all of their DID remove from DIDHoldersArray\n        if (DIDHolders[_address].balance == 0) {\n            if (DIDHoldersArray.length > 1) {\n                address lastElement = DIDHoldersArray[DIDHoldersArray.length - 1];\n                DIDHoldersArray[DIDHolders[_address].DIDHoldersIndex] = lastElement;\n                DIDHoldersArray.length--;\n                delete DIDHolders[msg.sender];\n            }\n        }\n\n        emit LogDecrementDID(_address, numDID);\n\n        return DIDHolders[_address].balance;\n    }\n\n    function exchangeDIDForEther(uint256 _numDIDToExchange)\n        external\n    returns (uint256) {\n\n        uint256 netContributionsDID = getNumContributionsDID(msg.sender);\n        require(DIDHolders[msg.sender].netContributionsDID >= (_numDIDToExchange * 1 ether));\n\n        Distense distense = Distense(DistenseAddress);\n        uint256 DIDPerEther = distense.getParameterValueByTitle(distense.didPerEtherParameterTitle());\n\n        uint256 numDIDToExchange = _numDIDToExchange * 1 ether;\n        require(numDIDToExchange < totalSupply);\n\n        uint256 numWeiToIssue = calculateNumWeiToIssue(numDIDToExchange, DIDPerEther);\n        address contractAddress = this;\n        require(contractAddress.balance >= numWeiToIssue, \"DIDToken contract must have sufficient wei\");\n\n        //  Adjust number of DID owned first\n        DIDHolders[msg.sender].balance = SafeMath.sub(DIDHolders[msg.sender].balance, numDIDToExchange);\n        DIDHolders[msg.sender].netContributionsDID = SafeMath.sub(DIDHolders[msg.sender].netContributionsDID, numDIDToExchange);\n        totalSupply = SafeMath.sub(totalSupply, numDIDToExchange);\n\n        msg.sender.transfer(numWeiToIssue);\n\n        if (DIDHolders[msg.sender].balance == 0) {\n            if (DIDHoldersArray.length > 1) {\n                address lastElement = DIDHoldersArray[DIDHoldersArray.length - 1];\n                DIDHoldersArray[DIDHolders[msg.sender].DIDHoldersIndex] = lastElement;\n                DIDHoldersArray.length--;\n                delete DIDHolders[msg.sender];\n            }\n        }\n        emit LogExchangeDIDForEther(msg.sender, numDIDToExchange);\n\n        return DIDHolders[msg.sender].balance;\n    }\n\n    function investEtherForDID() external payable returns (uint256) {\n        require(getNumWeiAddressMayInvest(msg.sender) >= msg.value);\n        require(investedAggregate < investmentLimitAggregate);\n\n        Distense distense = Distense(DistenseAddress);\n        uint256 DIDPerEther = SafeMath.div(distense.getParameterValueByTitle(distense.didPerEtherParameterTitle()), 1 ether);\n\n        uint256 numDIDToIssue = calculateNumDIDToIssue(msg.value, DIDPerEther);\n        require(DIDHolders[msg.sender].netContributionsDID >= numDIDToIssue);\n        totalSupply = SafeMath.add(totalSupply, numDIDToIssue);\n        DIDHolders[msg.sender].balance = SafeMath.add(DIDHolders[msg.sender].balance, numDIDToIssue);\n        DIDHolders[msg.sender].netContributionsDID = SafeMath.sub(DIDHolders[msg.sender].netContributionsDID, numDIDToIssue);\n\n        DIDHolders[msg.sender].weiInvested += msg.value;\n        investedAggregate = investedAggregate + msg.value;\n\n        emit LogIssueDID(msg.sender, numDIDToIssue);\n        emit LogInvestEtherForDID(msg.sender, msg.value);\n\n        return DIDHolders[msg.sender].balance;\n    }\n\n    function incrementDIDFromContributions(address _contributor, uint256 _reward) onlyApproved public {\n        uint256 weiReward = _reward * 1 ether;\n        DIDHolders[_contributor].netContributionsDID = SafeMath.add(DIDHolders[_contributor].netContributionsDID, weiReward);\n    }\n\n    function incrementTasksCompleted(address _contributor) onlyApproved public returns (bool) {\n        DIDHolders[_contributor].tasksCompleted++;\n        return true;\n    }\n\n    function pctDIDOwned(address _address) external view returns (uint256) {\n        return SafeMath.percent(DIDHolders[_address].balance, totalSupply, 20);\n    }\n\n    function getNumWeiAddressMayInvest(address _contributor) public view returns (uint256) {\n\n        uint256 DIDFromContributions = DIDHolders[_contributor].netContributionsDID;\n        require(DIDFromContributions > 0);\n        uint256 netUninvestedEther = SafeMath.sub(investmentLimitAddress, DIDHolders[_contributor].weiInvested);\n        require(netUninvestedEther > 0);\n\n        Distense distense = Distense(DistenseAddress);\n        uint256 DIDPerEther = distense.getParameterValueByTitle(distense.didPerEtherParameterTitle());\n\n        return (DIDFromContributions * 1 ether) / DIDPerEther;\n    }\n\n    function rewardContributor(address _contributor, uint256 _reward) onlyApproved external returns (bool) {\n        uint256 reward = SafeMath.div(_reward, 1 ether);\n        issueDID(_contributor, reward);\n        incrementTasksCompleted(_contributor);\n        incrementDIDFromContributions(_contributor, reward);\n    }\n\n    function getWeiAggregateMayInvest() public view returns (uint256) {\n        return SafeMath.sub(investmentLimitAggregate, investedAggregate);\n    }\n\n    function getNumDIDHolders() external view returns (uint256) {\n        return DIDHoldersArray.length;\n    }\n\n    function getAddressBalance(address _address) public view returns (uint256) {\n        return DIDHolders[_address].balance;\n    }\n\n    function getNumContributionsDID(address _address) public view returns (uint256) {\n        return DIDHolders[_address].netContributionsDID;\n    }\n\n    function getWeiInvested(address _address) public view returns (uint256) {\n        return DIDHolders[_address].weiInvested;\n    }\n\n    function calculateNumDIDToIssue(uint256 msgValue, uint256 DIDPerEther) public pure returns (uint256) {\n        return SafeMath.mul(msgValue, DIDPerEther);\n    }\n\n    function calculateNumWeiToIssue(uint256 _numDIDToExchange, uint256 _DIDPerEther) public pure returns (uint256) {\n        _numDIDToExchange = _numDIDToExchange * 1 ether;\n        return SafeMath.div(_numDIDToExchange, _DIDPerEther);\n    }\n\n    function setDistenseAddress(address _distenseAddress) onlyApproved public  {\n        DistenseAddress = _distenseAddress;\n    }\n\n}\n",
  "sourcePath": "/Users/john/distense-contracts/contracts/DIDToken.sol",
  "compiler": {
    "name": "solc",
    "version": "0.4.23+commit.124ca40d.Emscripten.clang"
  },
  "schemaVersion": "2.0.0",
  "updatedAt": "2018-05-08T20:32:49.024Z"
}