{
  "contractName": "Distense",
  "abi": [
    {
      "constant": true,
      "inputs": [
        {
          "name": "",
          "type": "bytes32"
        }
      ],
      "name": "parameters",
      "outputs": [
        {
          "name": "title",
          "type": "bytes32"
        },
        {
          "name": "value",
          "type": "uint256"
        }
      ],
      "payable": false,
      "stateMutability": "view",
      "type": "function"
    },
    {
      "constant": true,
      "inputs": [],
      "name": "numDIDRequiredToApproveVotePullRequestParameter",
      "outputs": [
        {
          "name": "title",
          "type": "bytes32"
        },
        {
          "name": "value",
          "type": "uint256"
        }
      ],
      "payable": false,
      "stateMutability": "view",
      "type": "function"
    },
    {
      "constant": true,
      "inputs": [],
      "name": "pctDIDRequiredToMergePullRequestTitle",
      "outputs": [
        {
          "name": "",
          "type": "bytes32"
        }
      ],
      "payable": false,
      "stateMutability": "view",
      "type": "function"
    },
    {
      "constant": true,
      "inputs": [],
      "name": "didPerEtherParameter",
      "outputs": [
        {
          "name": "title",
          "type": "bytes32"
        },
        {
          "name": "value",
          "type": "uint256"
        }
      ],
      "payable": false,
      "stateMutability": "view",
      "type": "function"
    },
    {
      "constant": true,
      "inputs": [],
      "name": "maxRewardParameter",
      "outputs": [
        {
          "name": "title",
          "type": "bytes32"
        },
        {
          "name": "value",
          "type": "uint256"
        }
      ],
      "payable": false,
      "stateMutability": "view",
      "type": "function"
    },
    {
      "constant": true,
      "inputs": [],
      "name": "votingIntervalParameter",
      "outputs": [
        {
          "name": "title",
          "type": "bytes32"
        },
        {
          "name": "value",
          "type": "uint256"
        }
      ],
      "payable": false,
      "stateMutability": "view",
      "type": "function"
    },
    {
      "constant": true,
      "inputs": [],
      "name": "didPerEtherParameterTitle",
      "outputs": [
        {
          "name": "",
          "type": "bytes32"
        }
      ],
      "payable": false,
      "stateMutability": "view",
      "type": "function"
    },
    {
      "constant": true,
      "inputs": [],
      "name": "numDIDRequiredToTaskRewardVoteParameter",
      "outputs": [
        {
          "name": "title",
          "type": "bytes32"
        },
        {
          "name": "value",
          "type": "uint256"
        }
      ],
      "payable": false,
      "stateMutability": "view",
      "type": "function"
    },
    {
      "constant": true,
      "inputs": [],
      "name": "defaultRewardParameter",
      "outputs": [
        {
          "name": "title",
          "type": "bytes32"
        },
        {
          "name": "value",
          "type": "uint256"
        }
      ],
      "payable": false,
      "stateMutability": "view",
      "type": "function"
    },
    {
      "constant": true,
      "inputs": [],
      "name": "defaultRewardParameterTitle",
      "outputs": [
        {
          "name": "",
          "type": "bytes32"
        }
      ],
      "payable": false,
      "stateMutability": "view",
      "type": "function"
    },
    {
      "constant": false,
      "inputs": [
        {
          "name": "_address",
          "type": "address"
        }
      ],
      "name": "revokeApproval",
      "outputs": [],
      "payable": false,
      "stateMutability": "nonpayable",
      "type": "function"
    },
    {
      "constant": true,
      "inputs": [],
      "name": "numDIDRequiredToAddTaskParameter",
      "outputs": [
        {
          "name": "title",
          "type": "bytes32"
        },
        {
          "name": "value",
          "type": "uint256"
        }
      ],
      "payable": false,
      "stateMutability": "view",
      "type": "function"
    },
    {
      "constant": true,
      "inputs": [],
      "name": "votingPowerLimitParameter",
      "outputs": [
        {
          "name": "title",
          "type": "bytes32"
        },
        {
          "name": "value",
          "type": "uint256"
        }
      ],
      "payable": false,
      "stateMutability": "view",
      "type": "function"
    },
    {
      "constant": true,
      "inputs": [],
      "name": "numDIDRequiredToTaskRewardVoteParameterTitle",
      "outputs": [
        {
          "name": "",
          "type": "bytes32"
        }
      ],
      "payable": false,
      "stateMutability": "view",
      "type": "function"
    },
    {
      "constant": true,
      "inputs": [
        {
          "name": "",
          "type": "uint256"
        }
      ],
      "name": "parameterTitles",
      "outputs": [
        {
          "name": "",
          "type": "bytes32"
        }
      ],
      "payable": false,
      "stateMutability": "view",
      "type": "function"
    },
    {
      "constant": true,
      "inputs": [],
      "name": "numDIDRequiredToAddTaskParameterTitle",
      "outputs": [
        {
          "name": "",
          "type": "bytes32"
        }
      ],
      "payable": false,
      "stateMutability": "view",
      "type": "function"
    },
    {
      "constant": true,
      "inputs": [],
      "name": "maxRewardParameterTitle",
      "outputs": [
        {
          "name": "",
          "type": "bytes32"
        }
      ],
      "payable": false,
      "stateMutability": "view",
      "type": "function"
    },
    {
      "constant": true,
      "inputs": [],
      "name": "numDIDRequiredToApproveVotePullRequestParameterTitle",
      "outputs": [
        {
          "name": "",
          "type": "bytes32"
        }
      ],
      "payable": false,
      "stateMutability": "view",
      "type": "function"
    },
    {
      "constant": true,
      "inputs": [],
      "name": "DIDTokenAddress",
      "outputs": [
        {
          "name": "",
          "type": "address"
        }
      ],
      "payable": false,
      "stateMutability": "view",
      "type": "function"
    },
    {
      "constant": true,
      "inputs": [],
      "name": "pctDIDRequiredToMergePullRequest",
      "outputs": [
        {
          "name": "title",
          "type": "bytes32"
        },
        {
          "name": "value",
          "type": "uint256"
        }
      ],
      "payable": false,
      "stateMutability": "view",
      "type": "function"
    },
    {
      "constant": true,
      "inputs": [],
      "name": "minNumberOfTaskRewardVotersParameter",
      "outputs": [
        {
          "name": "title",
          "type": "bytes32"
        },
        {
          "name": "value",
          "type": "uint256"
        }
      ],
      "payable": false,
      "stateMutability": "view",
      "type": "function"
    },
    {
      "constant": true,
      "inputs": [],
      "name": "pctDIDToDetermineTaskRewardParameter",
      "outputs": [
        {
          "name": "title",
          "type": "bytes32"
        },
        {
          "name": "value",
          "type": "uint256"
        }
      ],
      "payable": false,
      "stateMutability": "view",
      "type": "function"
    },
    {
      "constant": true,
      "inputs": [],
      "name": "votingIntervalParameterTitle",
      "outputs": [
        {
          "name": "",
          "type": "bytes32"
        }
      ],
      "payable": false,
      "stateMutability": "view",
      "type": "function"
    },
    {
      "constant": true,
      "inputs": [],
      "name": "minNumberOfTaskRewardVotersParameterTitle",
      "outputs": [
        {
          "name": "",
          "type": "bytes32"
        }
      ],
      "payable": false,
      "stateMutability": "view",
      "type": "function"
    },
    {
      "constant": true,
      "inputs": [
        {
          "name": "",
          "type": "address"
        }
      ],
      "name": "approved",
      "outputs": [
        {
          "name": "",
          "type": "bool"
        }
      ],
      "payable": false,
      "stateMutability": "view",
      "type": "function"
    },
    {
      "constant": false,
      "inputs": [
        {
          "name": "_address",
          "type": "address"
        }
      ],
      "name": "approve",
      "outputs": [],
      "payable": false,
      "stateMutability": "nonpayable",
      "type": "function"
    },
    {
      "constant": true,
      "inputs": [],
      "name": "votingPowerLimitParameterTitle",
      "outputs": [
        {
          "name": "",
          "type": "bytes32"
        }
      ],
      "payable": false,
      "stateMutability": "view",
      "type": "function"
    },
    {
      "constant": true,
      "inputs": [],
      "name": "pctDIDToDetermineTaskRewardParameterTitle",
      "outputs": [
        {
          "name": "",
          "type": "bytes32"
        }
      ],
      "payable": false,
      "stateMutability": "view",
      "type": "function"
    },
    {
      "inputs": [
        {
          "name": "_DIDTokenAddress",
          "type": "address"
        }
      ],
      "payable": false,
      "stateMutability": "nonpayable",
      "type": "constructor"
    },
    {
      "anonymous": false,
      "inputs": [
        {
          "indexed": false,
          "name": "title",
          "type": "bytes32"
        },
        {
          "indexed": false,
          "name": "value",
          "type": "uint256"
        }
      ],
      "name": "LogParameterValueUpdate",
      "type": "event"
    },
    {
      "constant": true,
      "inputs": [
        {
          "name": "_title",
          "type": "bytes32"
        }
      ],
      "name": "getParameterValueByTitle",
      "outputs": [
        {
          "name": "",
          "type": "uint256"
        }
      ],
      "payable": false,
      "stateMutability": "view",
      "type": "function"
    },
    {
      "constant": false,
      "inputs": [
        {
          "name": "_title",
          "type": "bytes32"
        },
        {
          "name": "_voteValue",
          "type": "int256"
        }
      ],
      "name": "voteOnParameter",
      "outputs": [
        {
          "name": "",
          "type": "uint256"
        }
      ],
      "payable": false,
      "stateMutability": "nonpayable",
      "type": "function"
    },
    {
      "constant": true,
      "inputs": [
        {
          "name": "_title",
          "type": "bytes32"
        }
      ],
      "name": "getParameterByTitle",
      "outputs": [
        {
          "name": "",
          "type": "bytes32"
        },
        {
          "name": "",
          "type": "uint256"
        }
      ],
      "payable": false,
      "stateMutability": "view",
      "type": "function"
    },
    {
      "constant": true,
      "inputs": [],
      "name": "getNumParameters",
      "outputs": [
        {
          "name": "",
          "type": "uint256"
        }
      ],
      "payable": false,
      "stateMutability": "view",
      "type": "function"
    },
    {
      "constant": false,
      "inputs": [
        {
          "name": "_didTokenAddress",
          "type": "address"
        }
      ],
      "name": "setDIDTokenAddress",
      "outputs": [],
      "payable": false,
      "stateMutability": "nonpayable",
      "type": "function"
    }
  ],
  "bytecode": "0x60806040527f766f74696e67496e74657276616c0000000000000000000000000000000000006007557f706374444944546f44657465726d696e655461736b5265776172640000000000600b557f7063744449445265717569726564546f4d6572676550756c6c52657175657374600f557f6d617852657761726400000000000000000000000000000000000000000000006013557f6e756d444944526571417070726f7665566f746550756c6c52657175657374006017557f6e756d4449445265717569726564546f5461736b526577617264566f74650000601b557f6d696e4e756d6265724f665461736b526577617264566f746572730000000000601f557f6e756d4449445265717569726564546f4164645461736b0000000000000000006023557f64656661756c74526577617264000000000000000000000000000000000000006027557f6469645065724574686572000000000000000000000000000000000000000000602b557f766f74696e67506f7765724c696d697400000000000000000000000000000000602f5534801561019c57600080fd5b50604051602080610f6983398101604081815291513360009081526020818152848220805460ff191660019081179091558054600160a060020a03909416600160a060020a03199094169390931783558484018552600b805480865267d02ab486cedc0000958301869052600881905560099586558084526003808452878520918255955490850155546002805480860182557f405787fa12a823e0f2b7631cc41b3ba8828b3321ca811111fa75cd3aa3bb5ace9081019290925586518088018852600f8054808352678ac7230489e80000928601839052600c819055600d928355808752888652898720908155915491870191909155548154808701835583015586518088018852600780548083526a0112704cffb9b70a0000009286018390526004819055600592835580875288865289872090815591549187019190915554815480870183558301558651808801885260138054808352686c6b935b8bbd400000928601839052601081905560119283558087528886528987209081559154918701919091555481548087018355830155865180880188526017805480835268056bc75e2d63100000928601839052601481905560158381558188528987528a88209182555490880155548254808801845584015587518089018952601b8054808352918601839052601882905560198381558288528987528a88209283555491880191909155548254808801845584015587518089018952601f8054808352676124fee993bc0000928701839052601c819055601d9283558088528987528a88209081559154918801919091555482548088018455840155875180890189526023805480835291860183905281865560218381558288528987528a882092835554918801919091555482548088018455840155875180890189526027805480835291860183905260248290556025928355818752888652898720918255915490870155548154808701835583015586518088018852602b8054808352680ad78ebc5ac620000092860183905260288190556029928355808752888652898720908155915491870191909155548154808701835583015586518088018852602f80548083526801158e460913d00000928601839052602c819055602d9283558087529790945296842095865595549484019490945554845492830185559390520155610a59806105106000396000f3006080604052600436106101a05763ffffffff7c01000000000000000000000000000000000000000000000000000000006000350416630250680481146101a557806303226601146101d657806314eb172c146101eb57806318946e8f14610212578063190554861461022d5780631acdd7f0146102425780631cf7549c146102575780632273bae21461026c57806325172b94146102815780632b570c5e1461029657806333360632146102ab57806345a528bf146102c0578063484685b0146102d55780634882b6d2146102f85780635ab3f3431461030d5780636263a27f1461032257806364d05f4d1461033757806365c4284b1461034f5780637da1373a146103645780638fc6ad2d14610379578063a3b8e7b514610391578063ac847d49146103a6578063adfbf396146103d7578063b1ec5c55146103ec578063b41cde5014610401578063b9ff6d0f14610416578063c8f3e5f01461042b578063cec9bb9f14610443578063cf2fb7ca14610458578063d8b964e614610479578063daea85c5146104ae578063e2f97c8d146104cf578063fb4347eb146104e4575b600080fd5b3480156101b157600080fd5b506101bd6004356104f9565b6040805192835260208301919091528051918290030190f35b3480156101e257600080fd5b506101bd610512565b3480156101f757600080fd5b5061020061051b565b60408051918252519081900360200190f35b34801561021e57600080fd5b50610200600435602435610521565b34801561023957600080fd5b506101bd610765565b34801561024e57600080fd5b506101bd61076e565b34801561026357600080fd5b506101bd610777565b34801561027857600080fd5b50610200610780565b34801561028d57600080fd5b506101bd610786565b3480156102a257600080fd5b506101bd61078f565b3480156102b757600080fd5b50610200610798565b3480156102cc57600080fd5b5061020061079e565b3480156102e157600080fd5b506102f6600160a060020a03600435166107a4565b005b34801561030457600080fd5b506101bd6107f8565b34801561031957600080fd5b506101bd610801565b34801561032e57600080fd5b5061020061080a565b34801561034357600080fd5b50610200600435610810565b34801561035b57600080fd5b5061020061082f565b34801561037057600080fd5b50610200610835565b34801561038557600080fd5b5061020060043561083b565b34801561039d57600080fd5b50610200610850565b3480156103b257600080fd5b506103bb610856565b60408051600160a060020a039092168252519081900360200190f35b3480156103e357600080fd5b506101bd610865565b3480156103f857600080fd5b506101bd61086e565b34801561040d57600080fd5b506101bd610877565b34801561042257600080fd5b50610200610880565b34801561043757600080fd5b506101bd600435610886565b34801561044f57600080fd5b506102006108c3565b34801561046457600080fd5b506102f6600160a060020a03600435166108c9565b34801561048557600080fd5b5061049a600160a060020a0360043516610916565b604080519115158252519081900360200190f35b3480156104ba57600080fd5b506102f6600160a060020a036004351661092b565b3480156104db57600080fd5b50610200610982565b3480156104f057600080fd5b50610200610988565b6003602052600090815260409020805460019091015482565b60145460155482565b600f5481565b6000828152600360209081526040808320338085526002820190935290832060010154600754849384938493849384938493849391928d92670de0b6b3a7640000029061056d9061083b565b8101670de0b6b3a76400004202101561058557600080fd5b600154604080517f880049500000000000000000000000000000000000000000000000000000000081523360048201529051600160a060020a039092169c508c916388004950916024808201926020929091908290030181600087803b1580156105ee57600080fd5b505af1158015610602573d6000803e3d6000fd5b505050506040513d602081101561061857600080fd5b5051995060008a1161062957600080fd5b6106328e61083b565b985061063f602f5461083b565b9750878a1161064e5789610650565b875b96508c6001148061066257508c600019145b8061066c5750868d135b806106795750866000038d125b156106945768056bc75e2d63100000878a025b0495506106db565b60008d13156106b9576106b2898e0268056bc75e2d6310000061098e565b95506106db565b60008d12156101a05760008d9003945068056bc75e2d6310000089860261068c565b60008d13156106f5576106ee89876109a5565b9850610702565b6106ff89876109bb565b98505b61070c8e8a6109cd565b506107178e336109e5565b50604080518f8152602081018b905281517fa4ca2f829529e953006ffeae7c1e288ca47c5086b391aa85fffb0a129adce375929181900390910190a150969c9b505050505050505050505050565b60285460295482565b60105460115482565b60045460055482565b602b5481565b60185460195482565b60245460255482565b60025490565b60275481565b3360009081526020819052604090205460ff1615156107c257600080fd5b600160a060020a03811615156107d757600080fd5b600160a060020a03166000908152602081905260409020805460ff19169055565b60205460215482565b602c54602d5482565b601b5481565b600280548290811061081e57fe5b600091825260209091200154905081565b60235481565b60135481565b60009081526003602052604090206001015490565b60175481565b600154600160a060020a031681565b600c54600d5482565b601c54601d5482565b60085460095482565b60075481565b600080610891610a16565b505050600090815260036020908152604091829020825180840190935280548084526001909101549290910182905291565b601f5481565b3360009081526020819052604090205460ff1615156108e757600080fd5b6001805473ffffffffffffffffffffffffffffffffffffffff1916600160a060020a0392909216919091179055565b60006020819052908152604090205460ff1681565b3360009081526020819052604090205460ff16151561094957600080fd5b600160a060020a038116151561095e57600080fd5b600160a060020a03166000908152602081905260409020805460ff19166001179055565b602f5481565b600b5481565b600080828481151561099c57fe5b04949350505050565b6000828201838110156109b457fe5b9392505050565b6000828211156109c757fe5b50900390565b60009182526003602052604090912060010181905590565b6000918252600360209081526040808420600160a060020a0390931684526002909201905281204260019091015590565b6040805180820190915260008082526020820152905600a165627a7a72305820f163a7ce3a7e5b6334b92d0b656cf50137c32d4b2836bc97ffd4dd5c37ba3bd20029",
  "source": "pragma solidity ^0.4.24;\n\nimport './lib/Approvable.sol';\nimport './DIDToken.sol';\nimport './lib/SafeMath.sol';\n\ncontract Distense is Approvable {\n\n    using SafeMath for uint256;\n\n    address public DIDTokenAddress;\n\n    /*\n      Distense' votable parameters\n      Parameter is the perfect word` for these: \"a numerical or other measurable factor forming one of a set\n      that defines a system or sets the conditions of its operation\".\n    */\n\n    //  Titles are what uniquely identify parameters, so query by titles when iterating with clients\n    bytes32[] public parameterTitles;\n\n    struct Parameter {\n        bytes32 title;\n        uint256 value;\n        mapping(address => Vote) votes;\n    }\n\n    struct Vote {\n        address voter;\n        uint256 lastVoted;\n    }\n\n    mapping(bytes32 => Parameter) public parameters;\n\n    Parameter public votingIntervalParameter;\n    bytes32 public votingIntervalParameterTitle = 'votingInterval';\n\n    Parameter public pctDIDToDetermineTaskRewardParameter;\n    bytes32 public pctDIDToDetermineTaskRewardParameterTitle = 'pctDIDToDetermineTaskReward';\n\n    Parameter public pctDIDRequiredToMergePullRequest;\n    bytes32 public pctDIDRequiredToMergePullRequestTitle = 'pctDIDRequiredToMergePullRequest';\n\n    Parameter public maxRewardParameter;\n    bytes32 public maxRewardParameterTitle = 'maxReward';\n\n    Parameter public numDIDRequiredToApproveVotePullRequestParameter;\n    bytes32 public numDIDRequiredToApproveVotePullRequestParameterTitle = 'numDIDReqApproveVotePullRequest';\n\n    Parameter public numDIDRequiredToTaskRewardVoteParameter;\n    bytes32 public numDIDRequiredToTaskRewardVoteParameterTitle = 'numDIDRequiredToTaskRewardVote';\n\n    Parameter public minNumberOfTaskRewardVotersParameter;\n    bytes32 public minNumberOfTaskRewardVotersParameterTitle = 'minNumberOfTaskRewardVoters';\n\n    Parameter public numDIDRequiredToAddTaskParameter;\n    bytes32 public numDIDRequiredToAddTaskParameterTitle = 'numDIDRequiredToAddTask';\n\n    Parameter public defaultRewardParameter;\n    bytes32 public defaultRewardParameterTitle = 'defaultReward';\n\n    Parameter public didPerEtherParameter;\n    bytes32 public didPerEtherParameterTitle = 'didPerEther';\n\n    Parameter public votingPowerLimitParameter;\n    bytes32 public votingPowerLimitParameterTitle = 'votingPowerLimit';\n\n    event LogParameterValueUpdate(bytes32 title, uint256 value);\n\n    constructor (address _DIDTokenAddress) public {\n\n        DIDTokenAddress = _DIDTokenAddress;\n\n        // Launch Distense with some votable parameters\n        // that can be later updated by contributors\n        // Current values can be found at https://disten.se/parameters\n\n        // Percentage of DID that must vote on a proposal for it to be approved and payable\n        pctDIDToDetermineTaskRewardParameter = Parameter({\n            title : pctDIDToDetermineTaskRewardParameterTitle,\n            //     Every hard-coded int except for dates and numbers (not percentages) pertaining to ether or DID are decimals to two decimal places\n            //     So this is 15.00%\n            value: 15 * 1 ether\n        });\n        parameters[pctDIDToDetermineTaskRewardParameterTitle] = pctDIDToDetermineTaskRewardParameter;\n        parameterTitles.push(pctDIDToDetermineTaskRewardParameterTitle);\n\n\n        pctDIDRequiredToMergePullRequest = Parameter({\n            title : pctDIDRequiredToMergePullRequestTitle,\n            value: 10 * 1 ether\n        });\n        parameters[pctDIDRequiredToMergePullRequestTitle] = pctDIDRequiredToMergePullRequest;\n        parameterTitles.push(pctDIDRequiredToMergePullRequestTitle);\n\n\n        votingIntervalParameter = Parameter({\n            title : votingIntervalParameterTitle,\n            value: 1296000 * 1 ether// 15 * 86400 = 1.296e+6\n        });\n        parameters[votingIntervalParameterTitle] = votingIntervalParameter;\n        parameterTitles.push(votingIntervalParameterTitle);\n\n\n        maxRewardParameter = Parameter({\n            title : maxRewardParameterTitle,\n            value: 2000 * 1 ether\n        });\n        parameters[maxRewardParameterTitle] = maxRewardParameter;\n        parameterTitles.push(maxRewardParameterTitle);\n\n\n        numDIDRequiredToApproveVotePullRequestParameter = Parameter({\n            title : numDIDRequiredToApproveVotePullRequestParameterTitle,\n            //     100 DID\n            value: 100 * 1 ether\n        });\n        parameters[numDIDRequiredToApproveVotePullRequestParameterTitle] = numDIDRequiredToApproveVotePullRequestParameter;\n        parameterTitles.push(numDIDRequiredToApproveVotePullRequestParameterTitle);\n\n\n        // This parameter is the number of DID an account must own to vote on a task's reward\n        // The task reward is the number of DID payable upon successful completion and approval of a task\n\n        // This parameter mostly exists to get the percentage of DID that have voted higher per voter\n        //   as looping through voters to determineReward()s is gas-expensive.\n\n        // This parameter also limits attacks by noobs that want to mess with Distense.\n        numDIDRequiredToTaskRewardVoteParameter = Parameter({\n            title : numDIDRequiredToTaskRewardVoteParameterTitle,\n            // 100\n            value: 100 * 1 ether\n        });\n        parameters[numDIDRequiredToTaskRewardVoteParameterTitle] = numDIDRequiredToTaskRewardVoteParameter;\n        parameterTitles.push(numDIDRequiredToTaskRewardVoteParameterTitle);\n\n\n        minNumberOfTaskRewardVotersParameter = Parameter({\n            title : minNumberOfTaskRewardVotersParameterTitle,\n            //     7\n            value: 7 * 1 ether\n        });\n        parameters[minNumberOfTaskRewardVotersParameterTitle] = minNumberOfTaskRewardVotersParameter;\n        parameterTitles.push(minNumberOfTaskRewardVotersParameterTitle);\n\n\n        numDIDRequiredToAddTaskParameter = Parameter({\n            title : numDIDRequiredToAddTaskParameterTitle,\n            //     100\n            value: 100 * 1 ether\n        });\n        parameters[numDIDRequiredToAddTaskParameterTitle] = numDIDRequiredToAddTaskParameter;\n        parameterTitles.push(numDIDRequiredToAddTaskParameterTitle);\n\n\n        defaultRewardParameter = Parameter({\n            title : defaultRewardParameterTitle,\n            //     100\n            value: 100 * 1 ether\n        });\n        parameters[defaultRewardParameterTitle] = defaultRewardParameter;\n        parameterTitles.push(defaultRewardParameterTitle);\n\n\n        didPerEtherParameter = Parameter({\n            title : didPerEtherParameterTitle,\n            //     1000\n            value: 200 * 1 ether\n        });\n        parameters[didPerEtherParameterTitle] = didPerEtherParameter;\n        parameterTitles.push(didPerEtherParameterTitle);\n\n        votingPowerLimitParameter = Parameter({\n            title : votingPowerLimitParameterTitle,\n            //     20.00%\n            value: 20 * 1 ether\n        });\n        parameters[votingPowerLimitParameterTitle] = votingPowerLimitParameter;\n        parameterTitles.push(votingPowerLimitParameterTitle);\n\n    }\n\n    function getParameterValueByTitle(bytes32 _title) public view returns (uint256) {\n        return parameters[_title].value;\n    }\n\n    /**\n        Function called when contributors vote on parameters at /parameters url\n        In the client there are: max and min buttons and a text input\n\n        @param _title name of parameter title the DID holder is voting on.  This must be one of the hardcoded titles in this file.\n        @param _voteValue integer in percentage effect.  For example if the current value of a parameter is 20, and the voter votes 24, _voteValue\n        would be 20, for a 20% increase.\n\n        If _voteValue is 1 it's a max upvote, if -1 max downvote. Maximum votes, as just mentioned, affect parameter values by\n        max(percentage of DID owned by the voter, value of the votingLimit parameter).\n        If _voteValue has a higher absolute value than 1, the user has voted a specific value not maximum up or downvote.\n        In that case we update the value to the voted value if the value would affect the parameter value less than their percentage DID ownership.\n          If they voted a value that would affect the parameter's value by more than their percentage DID ownership we affect the value by their percentage DID ownership.\n    */\n    function voteOnParameter(bytes32 _title, int256 _voteValue)\n        public\n        votingIntervalReached(msg.sender, _title)\n        returns\n    (uint256) {\n\n        DIDToken didToken = DIDToken(DIDTokenAddress);\n        uint256 votersDIDPercent = didToken.pctDIDOwned(msg.sender);\n        require(votersDIDPercent > 0);\n\n        uint256 currentValue = getParameterValueByTitle(_title);\n\n        //  For voting power purposes, limit the pctDIDOwned to the maximum of the Voting Power Limit parameter or the voter's percentage ownership\n        //  of DID\n        uint256 votingPowerLimit = getParameterValueByTitle(votingPowerLimitParameterTitle);\n\n        uint256 limitedVotingPower = votersDIDPercent > votingPowerLimit ? votingPowerLimit : votersDIDPercent;\n\n        uint256 update;\n        if (\n            _voteValue == 1 ||  // maximum upvote\n            _voteValue == - 1 || // minimum downvote\n            _voteValue > int(limitedVotingPower) || // vote value greater than votingPowerLimit\n            _voteValue < - int(limitedVotingPower)  // vote value greater than votingPowerLimit absolute value\n        ) {\n            update = (limitedVotingPower * currentValue) / (100 * 1 ether);\n        } else if (_voteValue > 0) {\n            update = SafeMath.div((uint(_voteValue) * currentValue), (1 ether * 100));\n        } else if (_voteValue < 0) {\n            int256 adjustedVoteValue = (-_voteValue); // make the voteValue positive and convert to on-chain decimals\n            update = uint((adjustedVoteValue * int(currentValue))) / (100 * 1 ether);\n        } else revert(); //  If _voteValue is 0 refund gas to voter\n\n        if (_voteValue > 0)\n            currentValue = SafeMath.add(currentValue, update);\n        else\n            currentValue = SafeMath.sub(currentValue, update);\n\n        updateParameterValue(_title, currentValue);\n        updateLastVotedOnParameter(_title, msg.sender);\n        emit LogParameterValueUpdate(_title, currentValue);\n\n        return currentValue;\n    }\n\n    function getParameterByTitle(bytes32 _title) public view returns (bytes32, uint256) {\n        Parameter memory param = parameters[_title];\n        return (param.title, param.value);\n    }\n\n    function getNumParameters() public view returns (uint256) {\n        return parameterTitles.length;\n    }\n\n    function updateParameterValue(bytes32 _title, uint256 _newValue) internal returns (uint256) {\n        Parameter storage parameter = parameters[_title];\n        parameter.value = _newValue;\n        return parameter.value;\n    }\n\n    function updateLastVotedOnParameter(bytes32 _title, address voter) internal returns (bool) {\n        Parameter storage parameter = parameters[_title];\n        parameter.votes[voter].lastVoted = now;\n    }\n\n    function setDIDTokenAddress(address _didTokenAddress) public onlyApproved {\n        DIDTokenAddress = _didTokenAddress;\n    }\n\n    modifier votingIntervalReached(address _voter, bytes32 _title) {\n        Parameter storage parameter = parameters[_title];\n        uint256 lastVotedOnParameter = parameter.votes[_voter].lastVoted * 1 ether;\n        require((now * 1 ether) >= lastVotedOnParameter + getParameterValueByTitle(votingIntervalParameterTitle));\n        _;\n    }\n}\n",
  "sourcePath": "/Users/john/distense-contracts/contracts/Distense.sol",
  "compiler": {
    "name": "solc",
    "version": "0.4.24+commit.e67f0147.Emscripten.clang"
  },
  "schemaVersion": "2.0.1",
  "updatedAt": "2018-09-24T19:00:26.827Z"
}