{
  "contractName": "Faucet",
  "abi": [
    {
      "inputs": [],
      "payable": false,
      "stateMutability": "nonpayable",
      "type": "constructor"
    },
    {
      "payable": true,
      "stateMutability": "payable",
      "type": "fallback"
    },
    {
      "anonymous": false,
      "inputs": [
        {
          "indexed": false,
          "name": "receiver",
          "type": "address"
        }
      ],
      "name": "SendEther",
      "type": "event"
    },
    {
      "constant": false,
      "inputs": [],
      "name": "requestEther",
      "outputs": [
        {
          "name": "",
          "type": "bool"
        }
      ],
      "payable": false,
      "stateMutability": "nonpayable",
      "type": "function"
    }
  ],
  "bytecode": "0x60806040524260015534801561001457600080fd5b50610179806100246000396000f3006080604052600436106100405763ffffffff7c010000000000000000000000000000000000000000000000000000000060003504166361ed46488114610042575b005b34801561004e57600080fd5b5061005761006b565b604080519115158252519081900360200190f35b6000674563918244f4000033311080156100ae575033600090815260208190526040902054610708014211806100ae575033600090815260208190526040902054155b80156100be5750600154600a0142115b15610146576040805133815290517f52a051bca553b0a466ddf55904bf9b9a11c8234e4b8c33f40bf79749a8df06709181900360200190a16040513390600090678ac7230489e800009082818181858883f19350505050158015610126573d6000803e3d6000fd5b50503360009081526020819052604090204290819055600190815561014a565b5060005b905600a165627a7a72305820357e16cf4eb4d64a13334511dfc2d0a3bb895f7f84c39ed1432def51d9d36f080029",
  "source": "pragma solidity ^0.4.21;\n\ncontract Faucet {\n\n    event SendEther(address receiver);\n\n    mapping(address => uint256) lastRequested;\n\n    uint256 lastPaid = now;\n    function Faucet() public {\n\n    }\n\n    function requestEther() public returns (bool) {\n        if (\n            msg.sender.balance < 5 ether &&\n            (\n                now > (lastRequested[msg.sender] + 30 minutes) ||\n                lastRequested[msg.sender] == 0\n            ) &&\n            now > lastPaid + 10 seconds\n        ) {\n            emit SendEther(msg.sender);\n            msg.sender.transfer(10 ether);\n            lastRequested[msg.sender] = now;\n            lastPaid = now;\n            return true;\n        } else return false;\n    }\n\n    function () public payable {\n\n    }\n}\n",
  "sourcePath": "/Users/john/distense-contracts/contracts/Faucet.sol",
  "compiler": {
    "name": "solc",
    "version": "0.4.24+commit.e67f0147.Emscripten.clang"
  },
  "schemaVersion": "2.0.1",
  "updatedAt": "2018-09-17T14:47:52.504Z"
}