{
  "contractName": "Faucet",
  "abi": [
    {
      "inputs": [],
      "payable": false,
      "stateMutability": "nonpayable",
      "type": "constructor"
    },
    {
      "payable": true,
      "stateMutability": "payable",
      "type": "fallback"
    },
    {
      "anonymous": false,
      "inputs": [
        {
          "indexed": false,
          "name": "receiver",
          "type": "address"
        }
      ],
      "name": "SendEther",
      "type": "event"
    },
    {
      "constant": false,
      "inputs": [],
      "name": "requestEther",
      "outputs": [
        {
          "name": "",
          "type": "bool"
        }
      ],
      "payable": false,
      "stateMutability": "nonpayable",
      "type": "function"
    }
  ],
  "bytecode": "0x60806040524260015534801561001457600080fd5b506101fd806100246000396000f3006080604052600436106100405763ffffffff7c010000000000000000000000000000000000000000000000000000000060003504166361ed46488114610042575b005b34801561004e57600080fd5b5061005761006b565b604080519115158252519081900360200190f35b6000674563918244f400003373ffffffffffffffffffffffffffffffffffffffff16311080156100f0575073ffffffffffffffffffffffffffffffffffffffff3316600090815260208190526040902054610708014211806100f0575073ffffffffffffffffffffffffffffffffffffffff3316600090815260208190526040902054155b80156101005750600154600a0142115b156101ca576040805173ffffffffffffffffffffffffffffffffffffffff3316815290517f52a051bca553b0a466ddf55904bf9b9a11c8234e4b8c33f40bf79749a8df06709181900360200190a160405173ffffffffffffffffffffffffffffffffffffffff331690600090678ac7230489e800009082818181858883f19350505050158015610194573d6000803e3d6000fd5b505073ffffffffffffffffffffffffffffffffffffffff33166000908152602081905260409020429081905560019081556101ce565b5060005b905600a165627a7a723058203a85aebd3c9eaae3883a1330385b8b96cce829cc4bbd83f94e9327e05f4326fd0029",
  "source": "pragma solidity ^0.4.21;\n\ncontract Faucet {\n\n    event SendEther(address receiver);\n\n    mapping(address => uint256) lastRequested;\n\n    uint256 lastPaid = now;\n    function Faucet() public {\n\n    }\n\n    function requestEther() public returns (bool) {\n        if (\n            msg.sender.balance < 5 ether &&\n            (\n                now > (lastRequested[msg.sender] + 30 minutes) ||\n                lastRequested[msg.sender] == 0\n            ) &&\n            now > lastPaid + 10 seconds\n        ) {\n            emit SendEther(msg.sender);\n            msg.sender.transfer(10 ether);\n            lastRequested[msg.sender] = now;\n            lastPaid = now;\n            return true;\n        } else return false;\n    }\n\n    function () public payable {\n\n    }\n}\n",
  "sourcePath": "/Users/john/distense-contracts/contracts/Faucet.sol",
  "compiler": {
    "name": "solc",
    "version": "0.4.23+commit.124ca40d.Emscripten.clang"
  },
  "schemaVersion": "2.0.0",
  "updatedAt": "2018-05-08T20:24:44.984Z"
}