{
  "contractName": "PullRequests",
  "abi": [
    {
      "constant": true,
      "inputs": [],
      "name": "TasksAddress",
      "outputs": [
        {
          "name": "",
          "type": "address"
        }
      ],
      "payable": false,
      "stateMutability": "view",
      "type": "function"
    },
    {
      "constant": true,
      "inputs": [],
      "name": "DistenseAddress",
      "outputs": [
        {
          "name": "",
          "type": "address"
        }
      ],
      "payable": false,
      "stateMutability": "view",
      "type": "function"
    },
    {
      "constant": false,
      "inputs": [
        {
          "name": "_address",
          "type": "address"
        }
      ],
      "name": "revokeApproval",
      "outputs": [],
      "payable": false,
      "stateMutability": "nonpayable",
      "type": "function"
    },
    {
      "constant": true,
      "inputs": [
        {
          "name": "",
          "type": "uint256"
        }
      ],
      "name": "pullRequestIds",
      "outputs": [
        {
          "name": "",
          "type": "bytes32"
        }
      ],
      "payable": false,
      "stateMutability": "view",
      "type": "function"
    },
    {
      "constant": true,
      "inputs": [],
      "name": "DIDTokenAddress",
      "outputs": [
        {
          "name": "",
          "type": "address"
        }
      ],
      "payable": false,
      "stateMutability": "view",
      "type": "function"
    },
    {
      "constant": true,
      "inputs": [
        {
          "name": "",
          "type": "address"
        }
      ],
      "name": "approved",
      "outputs": [
        {
          "name": "",
          "type": "bool"
        }
      ],
      "payable": false,
      "stateMutability": "view",
      "type": "function"
    },
    {
      "constant": false,
      "inputs": [
        {
          "name": "_address",
          "type": "address"
        }
      ],
      "name": "approve",
      "outputs": [],
      "payable": false,
      "stateMutability": "nonpayable",
      "type": "function"
    },
    {
      "inputs": [
        {
          "name": "_DIDTokenAddress",
          "type": "address"
        },
        {
          "name": "_DistenseAddress",
          "type": "address"
        },
        {
          "name": "_TasksAddress",
          "type": "address"
        }
      ],
      "payable": false,
      "stateMutability": "nonpayable",
      "type": "constructor"
    },
    {
      "anonymous": false,
      "inputs": [
        {
          "indexed": false,
          "name": "_prId",
          "type": "bytes32"
        },
        {
          "indexed": false,
          "name": "taskId",
          "type": "bytes32"
        },
        {
          "indexed": false,
          "name": "prNum",
          "type": "uint128"
        }
      ],
      "name": "LogAddPullRequest",
      "type": "event"
    },
    {
      "anonymous": false,
      "inputs": [
        {
          "indexed": false,
          "name": "_prId",
          "type": "bytes32"
        },
        {
          "indexed": false,
          "name": "pctDIDApproved",
          "type": "uint256"
        }
      ],
      "name": "LogPullRequestApprovalVote",
      "type": "event"
    },
    {
      "anonymous": false,
      "inputs": [
        {
          "indexed": false,
          "name": "_prId",
          "type": "bytes32"
        },
        {
          "indexed": false,
          "name": "taskId",
          "type": "bytes32"
        },
        {
          "indexed": false,
          "name": "prNum",
          "type": "uint128"
        }
      ],
      "name": "LogRewardPullRequest",
      "type": "event"
    },
    {
      "constant": false,
      "inputs": [
        {
          "name": "_prId",
          "type": "bytes32"
        },
        {
          "name": "_taskId",
          "type": "bytes32"
        },
        {
          "name": "_prNum",
          "type": "uint128"
        }
      ],
      "name": "addPullRequest",
      "outputs": [
        {
          "name": "",
          "type": "bool"
        }
      ],
      "payable": false,
      "stateMutability": "nonpayable",
      "type": "function"
    },
    {
      "constant": true,
      "inputs": [
        {
          "name": "_prId",
          "type": "bytes32"
        }
      ],
      "name": "getPullRequestById",
      "outputs": [
        {
          "name": "",
          "type": "address"
        },
        {
          "name": "",
          "type": "bytes32"
        },
        {
          "name": "",
          "type": "uint128"
        },
        {
          "name": "",
          "type": "uint256"
        }
      ],
      "payable": false,
      "stateMutability": "view",
      "type": "function"
    },
    {
      "constant": true,
      "inputs": [],
      "name": "getNumPullRequests",
      "outputs": [
        {
          "name": "",
          "type": "uint256"
        }
      ],
      "payable": false,
      "stateMutability": "view",
      "type": "function"
    },
    {
      "constant": false,
      "inputs": [
        {
          "name": "_prId",
          "type": "bytes32"
        }
      ],
      "name": "approvePullRequest",
      "outputs": [
        {
          "name": "",
          "type": "uint256"
        }
      ],
      "payable": false,
      "stateMutability": "nonpayable",
      "type": "function"
    },
    {
      "constant": false,
      "inputs": [
        {
          "name": "_DIDTokenAddress",
          "type": "address"
        }
      ],
      "name": "setDIDTokenAddress",
      "outputs": [],
      "payable": false,
      "stateMutability": "nonpayable",
      "type": "function"
    },
    {
      "constant": false,
      "inputs": [
        {
          "name": "_DistenseAddress",
          "type": "address"
        }
      ],
      "name": "setDistenseAddress",
      "outputs": [],
      "payable": false,
      "stateMutability": "nonpayable",
      "type": "function"
    },
    {
      "constant": false,
      "inputs": [
        {
          "name": "_TasksAddress",
          "type": "address"
        }
      ],
      "name": "setTasksAddress",
      "outputs": [],
      "payable": false,
      "stateMutability": "nonpayable",
      "type": "function"
    }
  ],
  "bytecode": "0x608060405234801561001057600080fd5b506040516060806110f783398101604090815281516020808401519383015133600090815291829052929020805460ff191660019081179091558054600160a060020a03928316600160a060020a031991821617909155600280549483169482169490941790935560038054919092169216919091179055611060806100976000396000f3006080604052600436106100b65763ffffffff60e060020a600035041663072f630c81146100bb5780630afdbaed146100ec578063253caf94146101015780632a4caf6714610124578063484685b014610145578063650ee0ff146101665780637caf59d914610190578063a01fdbef146101d4578063ac847d49146101ec578063af692e0014610201578063cf2fb7ca1461025a578063d8b964e61461027b578063daea85c51461029c578063e71a5577146102bd575b600080fd5b3480156100c757600080fd5b506100d06102d2565b60408051600160a060020a039092168252519081900360200190f35b3480156100f857600080fd5b506100d06102e1565b34801561010d57600080fd5b50610122600160a060020a03600435166102f0565b005b34801561013057600080fd5b50610122600160a060020a036004351661033d565b34801561015157600080fd5b50610122600160a060020a036004351661038a565b34801561017257600080fd5b5061017e6004356103de565b60408051918252519081900360200190f35b34801561019c57600080fd5b506101c06004356024356fffffffffffffffffffffffffffffffff604435166103fd565b604080519115158252519081900360200190f35b3480156101e057600080fd5b5061017e6004356104dd565b3480156101f857600080fd5b506100d0610ec7565b34801561020d57600080fd5b50610219600435610ed6565b60408051600160a060020a03909516855260208501939093526fffffffffffffffffffffffffffffffff909116838301526060830152519081900360800190f35b34801561026657600080fd5b50610122600160a060020a0360043516610f4e565b34801561028757600080fd5b506101c0600160a060020a0360043516610f9b565b3480156102a857600080fd5b50610122600160a060020a0360043516610fb0565b3480156102c957600080fd5b5061017e611007565b600354600160a060020a031681565b600254600160a060020a031681565b3360009081526020819052604090205460ff16151561030e57600080fd5b6003805473ffffffffffffffffffffffffffffffffffffffff1916600160a060020a0392909216919091179055565b3360009081526020819052604090205460ff16151561035b57600080fd5b6002805473ffffffffffffffffffffffffffffffffffffffff1916600160a060020a0392909216919091179055565b3360009081526020819052604090205460ff1615156103a857600080fd5b600160a060020a03811615156103bd57600080fd5b600160a060020a03166000908152602081905260409020805460ff19169055565b60048054829081106103ec57fe5b600091825260209091200154905081565b6000838152600560209081526040808320805473ffffffffffffffffffffffffffffffffffffffff1916331781556001808201879055600290910180546fffffffffffffffffffffffffffffffff87166fffffffffffffffffffffffffffffffff19909116811790915560048054928301815585527f8a35acfbc15ff81a39ae7d344fd709f28e8600b4aa8c65c6b64bfe7fe36bd19b909101879055815187815292830186905282820152517f1cb7fef23eb23bac1c82dc07555d40809aa3ecde37c0fd1d06481a512352c04e9181900360600190a15060019392505050565b6000806000806000806000806000806000600260009054906101000a9004600160a060020a0316925082600160a060020a0316638fc6ad2d84600160a060020a031663a3b8e7b56040518163ffffffff1660e060020a028152600401602060405180830381600087803b15801561055357600080fd5b505af1158015610567573d6000803e3d6000fd5b505050506040513d602081101561057d57600080fd5b50516040805160e060020a63ffffffff851602815260048101929092525160248083019260209291908290030181600087803b1580156105bc57600080fd5b505af11580156105d0573d6000803e3d6000fd5b505050506040513d60208110156105e657600080fd5b5051600154604080517f129671820000000000000000000000000000000000000000000000000000000081523360048201529051929450600160a060020a0390911692508391839163129671829160248083019260209291908290030181600087803b15801561065557600080fd5b505af1158015610669573d6000803e3d6000fd5b505050506040513d602081101561067f57600080fd5b50511161068b57600080fd5b60008c815260056020908152604080832033845260040190915290205460ff161561071757604080517f08c379a000000000000000000000000000000000000000000000000000000000815260206004820152601e60248201527f766f74657220616c726561647920766f746564206f6e20746869732050520000604482015290519081900360640190fd5b60008c815260056020526040902054600160a060020a031633141561079d57604080517f08c379a000000000000000000000000000000000000000000000000000000000815260206004820152601d60248201527f636f6e7472696275746f7220766f746564206f6e207468656972205052000000604482015290519081900360640190fd5b600260009054906101000a9004600160a060020a03169950600160009054906101000a9004600160a060020a03169850600560008d600019166000191681526020019081526020016000209750600188600401600033600160a060020a0316600160a060020a0316815260200190815260200160002060006101000a81548160ff02191690831515021790555089600160a060020a0316638fc6ad2d8b600160a060020a031663e2f97c8d6040518163ffffffff1660e060020a028152600401602060405180830381600087803b15801561087757600080fd5b505af115801561088b573d6000803e3d6000fd5b505050506040513d60208110156108a157600080fd5b50516040805160e060020a63ffffffff851602815260048101929092525160248083019260209291908290030181600087803b1580156108e057600080fd5b505af11580156108f4573d6000803e3d6000fd5b505050506040513d602081101561090a57600080fd5b5051604080517f880049500000000000000000000000000000000000000000000000000000000081523360048201529051600160a060020a038c169163880049509160248083019260209291908290030181600087803b15801561096d57600080fd5b505af1158015610981573d6000803e3d6000fd5b505050506040513d602081101561099757600080fd5b505111610a3057604080517f880049500000000000000000000000000000000000000000000000000000000081523360048201529051600160a060020a038b169163880049509160248083019260209291908290030181600087803b1580156109ff57600080fd5b505af1158015610a13573d6000803e3d6000fd5b505050506040513d6020811015610a2957600080fd5b5051610b13565b89600160a060020a0316638fc6ad2d8b600160a060020a031663e2f97c8d6040518163ffffffff1660e060020a028152600401602060405180830381600087803b158015610a7d57600080fd5b505af1158015610a91573d6000803e3d6000fd5b505050506040513d6020811015610aa757600080fd5b50516040805160e060020a63ffffffff851602815260048101929092525160248083019260209291908290030181600087803b158015610ae657600080fd5b505af1158015610afa573d6000803e3d6000fd5b505050506040513d6020811015610b1057600080fd5b50515b886003016000828254019250508190555089600160a060020a0316638fc6ad2d8b600160a060020a03166314eb172c6040518163ffffffff1660e060020a028152600401602060405180830381600087803b158015610b7157600080fd5b505af1158015610b85573d6000803e3d6000fd5b505050506040513d6020811015610b9b57600080fd5b50516040805160e060020a63ffffffff851602815260048101929092525160248083019260209291908290030181600087803b158015610bda57600080fd5b505af1158015610bee573d6000803e3d6000fd5b505050506040513d6020811015610c0457600080fd5b505160038901541115610e72576003546001890154604080517fb9c105cf00000000000000000000000000000000000000000000000000000000815260048101929092528051600160a060020a039093169950899263b9c105cf9260248082019392918290030181600087803b158015610c7d57600080fd5b505af1158015610c91573d6000803e3d6000fd5b505050506040513d6040811015610ca757600080fd5b50805160209091015190965094506002856002811115610cc357fe5b1415610cce57600080fd5b6001880154604080517fd30bf323000000000000000000000000000000000000000000000000000000008152600481019290925251600160a060020a0389169163d30bf3239160248083019260209291908290030181600087803b158015610d3557600080fd5b505af1158015610d49573d6000803e3d6000fd5b505050506040513d6020811015610d5f57600080fd5b505193506002846002811115610d7157fe5b14610d7b57600080fd5b8754604080517f3b15a398000000000000000000000000000000000000000000000000000000008152600160a060020a039283166004820152602481018990529051918b1691633b15a398916044808201926020929091908290030181600087803b158015610de957600080fd5b505af1158015610dfd573d6000803e3d6000fd5b505050506040513d6020811015610e1357600080fd5b505060018801546002890154604080518f815260208101939093526fffffffffffffffffffffffffffffffff90911682820152517f4027175c911e4ac813df71c7433aa237efa18e51adbe2f8deb2e21d5d1db81c69181900360600190a15b6003880154604080518e8152602081019290925280517f38f90e6894903aa729dbd3b9fab7151d08066ab4be17eb5e695d541eb1fe73519281900390910190a150505060039094015498975050505050505050565b600154600160a060020a031681565b600080600080610ee461100d565b505050600092835250506005602090815260409182902082516080810184528154600160a060020a0316808252600183015493820184905260028301546fffffffffffffffffffffffffffffffff1694820185905260039092015460609091018190529093919291565b3360009081526020819052604090205460ff161515610f6c57600080fd5b6001805473ffffffffffffffffffffffffffffffffffffffff1916600160a060020a0392909216919091179055565b60006020819052908152604090205460ff1681565b3360009081526020819052604090205460ff161515610fce57600080fd5b600160a060020a0381161515610fe357600080fd5b600160a060020a03166000908152602081905260409020805460ff19166001179055565b60045490565b604080516080810182526000808252602082018190529181018290526060810191909152905600a165627a7a72305820696657847ae060ceeebded68a5fd6f1a125e4b222bd0722afbf55791e64312640029",
  "source": "pragma solidity ^0.4.23;\n\nimport './lib/Approvable.sol';\nimport './DIDToken.sol';\nimport './Distense.sol';\nimport './Debuggable.sol';\nimport './Tasks.sol';\n\ncontract PullRequests is Approvable {\n\n    address public DIDTokenAddress;\n    address public DistenseAddress;\n    address public TasksAddress;\n\n    struct PullRequest {\n        address contributor;\n        bytes32 taskId;\n        uint128 prNum;\n        uint256 pctDIDApproved;\n        mapping(address => bool) voted;\n    }\n\n    bytes32[] public pullRequestIds;\n\n    mapping(bytes32 => PullRequest) pullRequests;\n\n    event LogAddPullRequest(bytes32 _prId, bytes32 taskId, uint128 prNum);\n    event LogPullRequestApprovalVote(bytes32 _prId, uint256 pctDIDApproved);\n    event LogRewardPullRequest(bytes32 _prId, bytes32 taskId, uint128 prNum);\n\n    function PullRequests (\n        address _DIDTokenAddress,\n        address _DistenseAddress,\n        address _TasksAddress\n    ) public {\n        DIDTokenAddress = _DIDTokenAddress;\n        DistenseAddress = _DistenseAddress;\n        TasksAddress = _TasksAddress;\n    }\n\n    function addPullRequest(bytes32 _prId, bytes32 _taskId, uint128 _prNum) external returns (bool) {\n        pullRequests[_prId].contributor = msg.sender;\n        pullRequests[_prId].taskId = _taskId;\n        pullRequests[_prId].prNum = _prNum;\n        pullRequestIds.push(_prId);\n\n        emit LogAddPullRequest(_prId, _taskId, _prNum);\n\n        return true;\n    }\n\n    function getPullRequestById(bytes32 _prId) external view returns (address, bytes32, uint128, uint256) {\n        PullRequest memory pr = pullRequests[_prId];\n        return (pr.contributor, pr.taskId, pr.prNum, pr.pctDIDApproved);\n    }\n\n    function getNumPullRequests() external view returns (uint256) {\n        return pullRequestIds.length;\n    }\n\n    function approvePullRequest(bytes32 _prId)\n        hasEnoughDIDToApprovePR\n        external\n    returns (uint256) {\n\n        require(pullRequests[_prId].voted[msg.sender] == false, \"voter already voted on this PR\");\n        require(pullRequests[_prId].contributor != msg.sender, \"contributor voted on their PR\");\n        Distense distense = Distense(DistenseAddress);\n        DIDToken didToken = DIDToken(DIDTokenAddress);\n\n        PullRequest storage _pr = pullRequests[_prId];\n\n        //  Record approval vote to prevent multiple voting\n        _pr.voted[msg.sender] = true;\n\n        //  This is not very gas efficient at all but the stack was too deep.  Need to refactor/research ways to improve\n        //  Increment _pr.pctDIDApproved by the lower of the votingPowerLimitParameter or the voters pctDIDOwned\n        _pr.pctDIDApproved += didToken.pctDIDOwned(msg.sender) > distense.getParameterValueByTitle(\n            distense.votingPowerLimitParameterTitle()\n        ) ? distense.getParameterValueByTitle(\n            distense.votingPowerLimitParameterTitle()\n        ) : didToken.pctDIDOwned(msg.sender);\n\n        if (\n            _pr.pctDIDApproved > distense.getParameterValueByTitle(\n                distense.pctDIDRequiredToMergePullRequestTitle()\n            )\n        ) {\n            Tasks tasks = Tasks(TasksAddress);\n\n            uint256 reward;\n            Tasks.RewardStatus rewardStatus;\n            (reward, rewardStatus) = tasks.getTaskRewardAndStatus(_pr.taskId);\n\n            require(rewardStatus != Tasks.RewardStatus.PAID);\n            Tasks.RewardStatus updatedRewardStatus = tasks.setTaskRewardPaid(_pr.taskId);\n\n            //  Only issueDID after we confirm taskRewardPaid\n            require(updatedRewardStatus == Tasks.RewardStatus.PAID);\n            didToken.rewardContributor(_pr.contributor, reward);\n\n            emit LogRewardPullRequest(_prId, _pr.taskId, _pr.prNum);\n        }\n\n        emit LogPullRequestApprovalVote(_prId, _pr.pctDIDApproved);\n        return _pr.pctDIDApproved;\n    }\n\n    modifier hasEnoughDIDToApprovePR() {\n\n        Distense distense = Distense(DistenseAddress);\n        uint256 threshold = distense.getParameterValueByTitle(\n            distense.numDIDRequiredToApproveVotePullRequestParameterTitle()\n        );\n\n        DIDToken didToken = DIDToken(DIDTokenAddress);\n\n        require(didToken.getNumContributionsDID(msg.sender) > threshold);\n        _;\n    }\n\n    function setDIDTokenAddress(address _DIDTokenAddress) public onlyApproved {\n        DIDTokenAddress = _DIDTokenAddress;\n    }\n\n    function setDistenseAddress(address _DistenseAddress) public onlyApproved {\n        DistenseAddress = _DistenseAddress;\n    }\n\n    function setTasksAddress(address _TasksAddress) public onlyApproved {\n        TasksAddress = _TasksAddress;\n    }\n}\n",
  "sourcePath": "/Users/john/distense-contracts/contracts/PullRequests.sol",
  "compiler": {
    "name": "solc",
    "version": "0.4.24+commit.e67f0147.Emscripten.clang"
  },
  "schemaVersion": "2.0.1",
  "updatedAt": "2018-09-18T18:15:56.159Z"
}