{
  "contractName": "SafeMathMock",
  "abi": [
    {
      "constant": true,
      "inputs": [],
      "name": "result",
      "outputs": [
        {
          "name": "",
          "type": "uint256"
        }
      ],
      "payable": false,
      "stateMutability": "view",
      "type": "function"
    },
    {
      "constant": false,
      "inputs": [
        {
          "name": "a",
          "type": "uint256"
        },
        {
          "name": "b",
          "type": "uint256"
        }
      ],
      "name": "multiply",
      "outputs": [],
      "payable": false,
      "stateMutability": "nonpayable",
      "type": "function"
    },
    {
      "constant": false,
      "inputs": [
        {
          "name": "a",
          "type": "uint256"
        },
        {
          "name": "b",
          "type": "uint256"
        }
      ],
      "name": "subtract",
      "outputs": [],
      "payable": false,
      "stateMutability": "nonpayable",
      "type": "function"
    },
    {
      "constant": false,
      "inputs": [
        {
          "name": "a",
          "type": "uint256"
        },
        {
          "name": "b",
          "type": "uint256"
        }
      ],
      "name": "add",
      "outputs": [],
      "payable": false,
      "stateMutability": "nonpayable",
      "type": "function"
    },
    {
      "constant": false,
      "inputs": [
        {
          "name": "num",
          "type": "uint256"
        },
        {
          "name": "denom",
          "type": "uint256"
        },
        {
          "name": "precision",
          "type": "uint256"
        }
      ],
      "name": "percent",
      "outputs": [],
      "payable": false,
      "stateMutability": "nonpayable",
      "type": "function"
    }
  ],
  "bytecode": "0x608060405234801561001057600080fd5b50610264806100206000396000f30060806040526004361061006b5763ffffffff7c01000000000000000000000000000000000000000000000000000000006000350416622c1a9e8114610070578063165c4a16146100905780633ef5e445146100ab57806365372147146100c6578063771602f7146100ed575b600080fd5b34801561007c57600080fd5b5061008e600435602435604435610108565b005b34801561009c57600080fd5b5061008e6004356024356101b6565b3480156100b757600080fd5b5061008e6004356024356101c7565b3480156100d257600080fd5b506100db6101d1565b60408051918252519081900360200190f35b3480156100f957600080fd5b5061008e6004356024356101d7565b73__SafeMath______________________________622c1a9e8484846040518463ffffffff167c010000000000000000000000000000000000000000000000000000000002815260040180848152602001838152602001828152602001935050505060206040518083038186803b15801561018257600080fd5b505af4158015610196573d6000803e3d6000fd5b505050506040513d60208110156101ac57600080fd5b5051600055505050565b6101c082826101e1565b6000555050565b6101c08282610217565b60005481565b6101c08282610229565b6000808315156101f45760009150610210565b5082820282848281151561020457fe5b041461020c57fe5b8091505b5092915050565b60008282111561022357fe5b50900390565b60008282018381101561020c57fe00a165627a7a72305820ce032e00cbb212c6b2773a6208835def057a78132196cf93c316eb77011fec650029",
  "source": "pragma solidity ^0.4.21;\n\n\nimport './lib/SafeMath.sol';\n\n\ncontract SafeMathMock {\n    using SafeMath for uint256;\n    uint256 public result;\n\n    function multiply(uint256 a, uint256 b) public {\n        result = SafeMath.mul(a, b);\n    }\n\n    function subtract(uint256 a, uint256 b) public {\n        result = SafeMath.sub(a, b);\n    }\n\n    function add(uint256 a, uint256 b) public {\n        result = SafeMath.add(a, b);\n    }\n\n    function percent(uint256 num, uint256 denom, uint256 precision) public {\n        result =  SafeMath.percent(num, denom, precision);\n    }\n\n}",
  "sourcePath": "/Users/john/distense-contracts/contracts/SafeMathMock.sol",
  "compiler": {
    "name": "solc",
    "version": "0.4.24+commit.e67f0147.Emscripten.clang"
  },
  "schemaVersion": "2.0.1",
  "updatedAt": "2018-09-24T17:48:06.879Z"
}