{
  "contractName": "Tasks",
  "abi": [
    {
      "constant": true,
      "inputs": [],
      "name": "DistenseAddress",
      "outputs": [
        {
          "name": "",
          "type": "address"
        }
      ],
      "payable": false,
      "stateMutability": "view",
      "type": "function"
    },
    {
      "constant": true,
      "inputs": [
        {
          "name": "",
          "type": "uint256"
        }
      ],
      "name": "taskIds",
      "outputs": [
        {
          "name": "",
          "type": "bytes32"
        }
      ],
      "payable": false,
      "stateMutability": "view",
      "type": "function"
    },
    {
      "constant": false,
      "inputs": [
        {
          "name": "_address",
          "type": "address"
        }
      ],
      "name": "revokeApproval",
      "outputs": [],
      "payable": false,
      "stateMutability": "nonpayable",
      "type": "function"
    },
    {
      "constant": true,
      "inputs": [],
      "name": "DIDTokenAddress",
      "outputs": [
        {
          "name": "",
          "type": "address"
        }
      ],
      "payable": false,
      "stateMutability": "view",
      "type": "function"
    },
    {
      "constant": true,
      "inputs": [
        {
          "name": "",
          "type": "address"
        }
      ],
      "name": "approved",
      "outputs": [
        {
          "name": "",
          "type": "bool"
        }
      ],
      "payable": false,
      "stateMutability": "view",
      "type": "function"
    },
    {
      "constant": false,
      "inputs": [
        {
          "name": "_address",
          "type": "address"
        }
      ],
      "name": "approve",
      "outputs": [],
      "payable": false,
      "stateMutability": "nonpayable",
      "type": "function"
    },
    {
      "inputs": [
        {
          "name": "_DIDTokenAddress",
          "type": "address"
        },
        {
          "name": "_DistenseAddress",
          "type": "address"
        }
      ],
      "payable": false,
      "stateMutability": "nonpayable",
      "type": "constructor"
    },
    {
      "anonymous": false,
      "inputs": [
        {
          "indexed": false,
          "name": "taskId",
          "type": "bytes32"
        },
        {
          "indexed": false,
          "name": "title",
          "type": "string"
        }
      ],
      "name": "LogAddTask",
      "type": "event"
    },
    {
      "anonymous": false,
      "inputs": [
        {
          "indexed": false,
          "name": "taskId",
          "type": "bytes32"
        },
        {
          "indexed": false,
          "name": "reward",
          "type": "uint256"
        },
        {
          "indexed": false,
          "name": "pctDIDVoted",
          "type": "uint256"
        }
      ],
      "name": "LogTaskRewardVote",
      "type": "event"
    },
    {
      "anonymous": false,
      "inputs": [
        {
          "indexed": false,
          "name": "taskId",
          "type": "bytes32"
        },
        {
          "indexed": false,
          "name": "reward",
          "type": "uint256"
        }
      ],
      "name": "LogTaskRewardDetermined",
      "type": "event"
    },
    {
      "anonymous": false,
      "inputs": [
        {
          "indexed": false,
          "name": "someAddress",
          "type": "address"
        }
      ],
      "name": "LogAddress",
      "type": "event"
    },
    {
      "anonymous": false,
      "inputs": [
        {
          "indexed": false,
          "name": "boolean",
          "type": "bool"
        }
      ],
      "name": "LogBool",
      "type": "event"
    },
    {
      "anonymous": false,
      "inputs": [
        {
          "indexed": false,
          "name": "someBytes",
          "type": "bytes"
        }
      ],
      "name": "LogBytes",
      "type": "event"
    },
    {
      "anonymous": false,
      "inputs": [
        {
          "indexed": false,
          "name": "aBytes32",
          "type": "bytes32"
        }
      ],
      "name": "LogBytes32",
      "type": "event"
    },
    {
      "anonymous": false,
      "inputs": [
        {
          "indexed": false,
          "name": "aString",
          "type": "string"
        }
      ],
      "name": "LogString",
      "type": "event"
    },
    {
      "anonymous": false,
      "inputs": [
        {
          "indexed": false,
          "name": "someInt",
          "type": "uint256"
        }
      ],
      "name": "LogUInt256",
      "type": "event"
    },
    {
      "anonymous": false,
      "inputs": [
        {
          "indexed": false,
          "name": "someInt",
          "type": "int256"
        }
      ],
      "name": "LogInt256",
      "type": "event"
    },
    {
      "constant": false,
      "inputs": [
        {
          "name": "_taskId",
          "type": "bytes32"
        },
        {
          "name": "_title",
          "type": "string"
        }
      ],
      "name": "addTask",
      "outputs": [
        {
          "name": "",
          "type": "bool"
        }
      ],
      "payable": false,
      "stateMutability": "nonpayable",
      "type": "function"
    },
    {
      "constant": true,
      "inputs": [
        {
          "name": "_taskId",
          "type": "bytes32"
        }
      ],
      "name": "getTaskById",
      "outputs": [
        {
          "name": "",
          "type": "string"
        },
        {
          "name": "",
          "type": "address"
        },
        {
          "name": "",
          "type": "uint256"
        },
        {
          "name": "",
          "type": "uint8"
        },
        {
          "name": "",
          "type": "uint256"
        },
        {
          "name": "",
          "type": "uint64"
        }
      ],
      "payable": false,
      "stateMutability": "view",
      "type": "function"
    },
    {
      "constant": true,
      "inputs": [
        {
          "name": "_taskId",
          "type": "bytes32"
        }
      ],
      "name": "taskExists",
      "outputs": [
        {
          "name": "",
          "type": "bool"
        }
      ],
      "payable": false,
      "stateMutability": "view",
      "type": "function"
    },
    {
      "constant": true,
      "inputs": [],
      "name": "getNumTasks",
      "outputs": [
        {
          "name": "",
          "type": "uint256"
        }
      ],
      "payable": false,
      "stateMutability": "view",
      "type": "function"
    },
    {
      "constant": false,
      "inputs": [
        {
          "name": "_taskId",
          "type": "bytes32"
        },
        {
          "name": "_reward",
          "type": "uint256"
        }
      ],
      "name": "taskRewardVote",
      "outputs": [
        {
          "name": "",
          "type": "bool"
        }
      ],
      "payable": false,
      "stateMutability": "nonpayable",
      "type": "function"
    },
    {
      "constant": true,
      "inputs": [
        {
          "name": "_taskId",
          "type": "bytes32"
        }
      ],
      "name": "getTaskReward",
      "outputs": [
        {
          "name": "",
          "type": "uint256"
        }
      ],
      "payable": false,
      "stateMutability": "view",
      "type": "function"
    },
    {
      "constant": true,
      "inputs": [
        {
          "name": "_taskId",
          "type": "bytes32"
        }
      ],
      "name": "getTaskRewardAndStatus",
      "outputs": [
        {
          "name": "",
          "type": "uint256"
        },
        {
          "name": "",
          "type": "uint8"
        }
      ],
      "payable": false,
      "stateMutability": "view",
      "type": "function"
    },
    {
      "constant": false,
      "inputs": [
        {
          "name": "_taskId",
          "type": "bytes32"
        }
      ],
      "name": "setTaskRewardPaid",
      "outputs": [
        {
          "name": "",
          "type": "uint8"
        }
      ],
      "payable": false,
      "stateMutability": "nonpayable",
      "type": "function"
    },
    {
      "constant": false,
      "inputs": [
        {
          "name": "_taskId",
          "type": "bytes32"
        }
      ],
      "name": "deleteTask",
      "outputs": [
        {
          "name": "",
          "type": "bool"
        }
      ],
      "payable": false,
      "stateMutability": "nonpayable",
      "type": "function"
    },
    {
      "constant": false,
      "inputs": [
        {
          "name": "_DIDTokenAddress",
          "type": "address"
        }
      ],
      "name": "setDIDTokenAddress",
      "outputs": [],
      "payable": false,
      "stateMutability": "nonpayable",
      "type": "function"
    },
    {
      "constant": false,
      "inputs": [
        {
          "name": "_DistenseAddress",
          "type": "address"
        }
      ],
      "name": "setDistenseAddress",
      "outputs": [],
      "payable": false,
      "stateMutability": "nonpayable",
      "type": "function"
    }
  ],
  "bytecode": "0x6080604052633b9aca0060055534801561001857600080fd5b5060405160408061177a8339810160409081528151602092830151600160a060020a0333811660009081529485905292909320805460ff191660019081179091558054918316600160a060020a0319928316179055600280549290931691161790556116f1806100896000396000f3006080604052600436106100d75763ffffffff60e060020a6000350416630afdbaed81146100dc5780631efe3abf1461010d5780632a4caf671461013457806339118d2514610157578063484685b01461016f578063497a7b4814610190578063a022c15e146101bf578063ac847d49146101d7578063b7825cfc146101ec578063b7bf356a14610210578063b9c105cf14610228578063cf2fb7ca1461026b578063d30bf3231461028c578063d8b964e6146102c8578063d8f6dcf2146102e9578063daea85c5146103d0578063e64f15a2146103f1575b600080fd5b3480156100e857600080fd5b506100f1610409565b60408051600160a060020a039092168252519081900360200190f35b34801561011957600080fd5b50610122610418565b60408051918252519081900360200190f35b34801561014057600080fd5b50610155600160a060020a036004351661041f565b005b34801561016357600080fd5b50610122600435610475565b34801561017b57600080fd5b50610155600160a060020a0360043516610494565b34801561019c57600080fd5b506101ab6004356024356104f1565b604080519115158252519081900360200190f35b3480156101cb57600080fd5b50610122600435610d4b565b3480156101e357600080fd5b506100f1610d60565b3480156101f857600080fd5b506101ab600480359060248035908101910135610d6f565b34801561021c57600080fd5b506101ab600435611117565b34801561023457600080fd5b50610240600435611137565b6040518083815260200182600281111561025657fe5b60ff1681526020019250505060405180910390f35b34801561027757600080fd5b50610155600160a060020a0360043516611158565b34801561029857600080fd5b506102a46004356111ae565b604051808260028111156102b457fe5b60ff16815260200191505060405180910390f35b3480156102d457600080fd5b506101ab600160a060020a03600435166111fa565b3480156102f557600080fd5b5061030160043561120f565b604051808060200187600160a060020a0316600160a060020a0316815260200186815260200185600281111561033357fe5b60ff1681526020018481526020018367ffffffffffffffff1667ffffffffffffffff168152602001828103825288818151815260200191508051906020019080838360005b83811015610390578181015183820152602001610378565b50505050905090810190601f1680156103bd5780820380516001836020036101000a031916815260200191505b5097505050505050505060405180910390f35b3480156103dc57600080fd5b50610155600160a060020a036004351661136b565b3480156103fd57600080fd5b506101ab6004356113cb565b600254600160a060020a031681565b6003545b90565b600160a060020a03331660009081526020819052604090205460ff16151561044657600080fd5b6002805473ffffffffffffffffffffffffffffffffffffffff1916600160a060020a0392909216919091179055565b600380548290811061048357fe5b600091825260209091200154905081565b600160a060020a03331660009081526020819052604090205460ff1615156104bb57600080fd5b600160a060020a03811615156104d057600080fd5b600160a060020a03166000908152602081905260409020805460ff19169055565b600080600080600080600080600080600080600160009054906101000a9004600160a060020a03169a508a600160a060020a03166335046722336040518263ffffffff1660e060020a0281526004018082600160a060020a0316600160a060020a03168152602001915050602060405180830381600087803b15801561057657600080fd5b505af115801561058a573d6000803e3d6000fd5b505050506040513d60208110156105a057600080fd5b81019080805190602001909291905050509950600260009054906101000a9004600160a060020a03169850600460008f60001916600019168152602001908152602001600020975060008d101515156105f857600080fd5b6002880154670de0b6b3a76400008e02141561061357600080fd5b6001600389015460ff16600281111561062857fe5b141561063357600080fd5b600160a060020a033316600090815260068901602052604090205460ff161561065b57600080fd5b88600160a060020a0316638fc6ad2d8a600160a060020a0316636263a27f6040518163ffffffff1660e060020a028152600401602060405180830381600087803b1580156106a857600080fd5b505af11580156106bc573d6000803e3d6000fd5b505050506040513d60208110156106d257600080fd5b50516040805160e060020a63ffffffff851602815260048101929092525160248083019260209291908290030181600087803b15801561071157600080fd5b505af1158015610725573d6000803e3d6000fd5b505050506040513d602081101561073b57600080fd5b50518a1161074857600080fd5b88600160a060020a0316638fc6ad2d8a600160a060020a0316637da1373a6040518163ffffffff1660e060020a028152600401602060405180830381600087803b15801561079557600080fd5b505af11580156107a9573d6000803e3d6000fd5b505050506040513d60208110156107bf57600080fd5b50516040805160e060020a63ffffffff851602815260048101929092525160248083019260209291908290030181600087803b1580156107fe57600080fd5b505af1158015610812573d6000803e3d6000fd5b505050506040513d602081101561082857600080fd5b5051670de0b6b3a76400008e02111561084057600080fd5b600160a060020a03338116600081815260068b0160209081526040808320805460ff1916600117905580517f88004950000000000000000000000000000000000000000000000000000000008152600481019490945251938f1693638800495093602480820194918390030190829087803b1580156108be57600080fd5b505af11580156108d2573d6000803e3d6000fd5b505050506040513d60208110156108e857600080fd5b50516004808a01805483019055604080517fe2f97c8d0000000000000000000000000000000000000000000000000000000081529051929950600160a060020a038c1692638fc6ad2d92849263e2f97c8d92818301926020928290030181600087803b15801561095757600080fd5b505af115801561096b573d6000803e3d6000fd5b505050506040513d602081101561098157600080fd5b50516040805160e060020a63ffffffff851602815260048101929092525160248083019260209291908290030181600087803b1580156109c057600080fd5b505af11580156109d4573d6000803e3d6000fd5b505050506040513d60208110156109ea57600080fd5b505195508587116109fb57866109fd565b855b945087600201548d670de0b6b3a7640000021115610a5157610a2d8d670de0b6b3a7640000028960020154611538565b60028901805468056bc75e2d63100000888402049081019091559094509250610a8a565b610a6988600201548e670de0b6b3a764000002611538565b60028901805468056bc75e2d63100000888402049081900390915590945092505b60058801805467ffffffffffffffff8082166001011667ffffffffffffffff19909116179055604080517ffb4347eb0000000000000000000000000000000000000000000000000000000081529051600160a060020a038b1691638fc6ad2d91839163fb4347eb9160048083019260209291908290030181600087803b158015610b1357600080fd5b505af1158015610b27573d6000803e3d6000fd5b505050506040513d6020811015610b3d57600080fd5b50516040805160e060020a63ffffffff851602815260048101929092525160248083019260209291908290030181600087803b158015610b7c57600080fd5b505af1158015610b90573d6000803e3d6000fd5b505050506040513d6020811015610ba657600080fd5b5051604080517fcec9bb9f0000000000000000000000000000000000000000000000000000000081529051919350600160a060020a038b1691638fc6ad2d91839163cec9bb9f916004808201926020929091908290030181600087803b158015610c0f57600080fd5b505af1158015610c23573d6000803e3d6000fd5b505050506040513d6020811015610c3957600080fd5b50516040805160e060020a63ffffffff851602815260048101929092525160248083019260209291908290030181600087803b158015610c7857600080fd5b505af1158015610c8c573d6000803e3d6000fd5b505050506040513d6020811015610ca257600080fd5b50516004890154909150821080610cd75750610cc681670de0b6b3a764000061154a565b600589015467ffffffffffffffff16115b15610d37577fea376df55f15b85259aed67aa0f87a23ee9f3b625c6151a53eef59c2baa883ca8e89600201546040518083600019166000191681526020018281526020019250505060405180910390a160038801805460ff191660011790555b5060019d9c50505050505050505050505050565b60009081526004602052604090206002015490565b600154600160a060020a031681565b600154604080517f35046722000000000000000000000000000000000000000000000000000000008152600160a060020a0333811660048301529151600093849316918391829182918591633504672291602480830192602092919082900301818787803b158015610de057600080fd5b505af1158015610df4573d6000803e3d6000fd5b505050506040513d6020811015610e0a57600080fd5b5051600254604080517f65c4284b0000000000000000000000000000000000000000000000000000000081529051929550600160a060020a0390911693508391638fc6ad2d9183916365c4284b916004808201926020929091908290030181600087803b158015610e7a57600080fd5b505af1158015610e8e573d6000803e3d6000fd5b505050506040513d6020811015610ea457600080fd5b50516040805160e060020a63ffffffff851602815260048101929092525160248083019260209291908290030181600087803b158015610ee357600080fd5b505af1158015610ef7573d6000803e3d6000fd5b505050506040513d6020811015610f0d57600080fd5b5051905080831015610f1e57600080fd5b60025460008a815260046020526040902060018101805473ffffffffffffffffffffffffffffffffffffffff1916600160a060020a03338116919091179091559091169550610f6e908989611561565b5084600160a060020a0316638fc6ad2d86600160a060020a03166345a528bf6040518163ffffffff1660e060020a028152600401602060405180830381600087803b158015610fbc57600080fd5b505af1158015610fd0573d6000803e3d6000fd5b505050506040513d6020811015610fe657600080fd5b50516040805160e060020a63ffffffff851602815260048101929092525160248083019260209291908290030181600087803b15801561102557600080fd5b505af1158015611039573d6000803e3d6000fd5b505050506040513d602081101561104f57600080fd5b505160008a81526004602090815260409182902060028101939093556003808401805460ff1916905580546001810182557fc2575a0e9e593c00f959f8c92f12db2869c3395a3b0502d05e2516446f71f85b018d9055546000190160079093019290925580518b81529182018181529082018990527ffafee1e1d1d7b07d7e2e381764370256754d2d4b8b82d9c83e91d3bbba0b3291918b918b918b91606082018484808284376040519201829003965090945050505050a150600198975050505050505050565b600090815260046020526040902060010154600160a060020a0316151590565b6000818152600460205260409020600281015460039091015460ff16915091565b600160a060020a03331660009081526020819052604090205460ff16151561117f57600080fd5b6001805473ffffffffffffffffffffffffffffffffffffffff1916600160a060020a0392909216919091179055565b600160a060020a03331660009081526020819052604081205460ff1615156111d557600080fd5b506000908152600460205260409020600301805460ff19166002179081905560ff1690565b60006020819052908152604090205460ff1681565b606060008060008060006112216115df565b60008881526004602090815260409182902082518154601f60026101006001841615810260001901909316049081018590049094028201810190945260e081018381529093919284928491908401828280156112be5780601f10611293576101008083540402835291602001916112be565b820191906000526020600020905b8154815290600101906020018083116112a157829003601f168201915b50505091835250506001820154600160a060020a031660208201526002808301546040830152600383015460609092019160ff16908111156112fc57fe5b600281111561130757fe5b81526004820154602080830191909152600583015467ffffffffffffffff166040808401919091526007909301546060928301528351908401519284015191840151608085015160a090950151919d939c50919a5090985091965090945092505050565b600160a060020a03331660009081526020819052604090205460ff16151561139257600080fd5b600160a060020a03811615156113a757600080fd5b600160a060020a03166000908152602081905260409020805460ff19166001179055565b600160a060020a033316600090815260208190526040812054819081908190819060ff1615156113fa57600080fd5b600086815260046020526040902093506002600385015460ff16600281111561141f57fe5b141561152a5760008681526004602052604090206007015460038054919450908490811061144957fe5b6000918252602080832090910182905587825260049052604081209061146f828261163b565b506001818101805473ffffffffffffffffffffffffffffffffffffffff191690556000600283018190556003808401805460ff191690556004840182905560058401805467ffffffffffffffff1916905560079093015590549250821115611521576003805460001984019081106114e357fe5b906000526020600020015490508060038481548110151561150057fe5b600091825260209091200155600380549061151f906000198301611682565b505b6001945061152f565b600094505b50505050919050565b60008282111561154457fe5b50900390565b600080828481151561155857fe5b04949350505050565b828054600181600116156101000203166002900490600052602060002090601f016020900481019282601f106115a25782800160ff198235161785556115cf565b828001600101855582156115cf579182015b828111156115cf5782358255916020019190600101906115b4565b506115db9291506116ab565b5090565b60e060405190810160405280606081526020016000600160a060020a03168152602001600081526020016000600281111561161657fe5b815260200160008152602001600067ffffffffffffffff168152602001600081525090565b50805460018160011615610100020316600290046000825580601f10611661575061167f565b601f01602090049060005260206000209081019061167f91906116ab565b50565b8154818355818111156116a6576000838152602090206116a69181019083016116ab565b505050565b61041c91905b808211156115db57600081556001016116b15600a165627a7a72305820a68e037dba17ee85a7a71dda4d040ba01333fd3dd36cedbbd59a7efc9ffac38d0029",
  "source": "pragma solidity ^0.4.23;\n\n\nimport './DIDToken.sol';\nimport './Distense.sol';\nimport './lib/SafeMath.sol';\nimport './Debuggable.sol';\n\ncontract Tasks is Approvable, Debuggable {\n\n    using SafeMath for uint256;\n\n    address public DIDTokenAddress;\n    address public DistenseAddress;\n\n    bytes32[] public taskIds;\n\n    enum RewardStatus {TENTATIVE, DETERMINED, PAID}\n\n    struct Task {\n        string title;\n        address createdBy;\n        uint256 reward;\n        RewardStatus rewardStatus;\n        uint256 pctDIDVoted;\n        uint64 numVotes;\n        mapping(address => bool) rewardVotes;\n        uint256 taskIdsIndex;   // for easy later deletion to minimize query time and blockchain size\n    }\n\n    mapping(bytes32 => Task) tasks;\n\n    event LogAddTask(bytes32 taskId, string title);\n    event LogTaskRewardVote(bytes32 taskId, uint256 reward, uint256 pctDIDVoted);\n    event LogTaskRewardDetermined(bytes32 taskId, uint256 reward);\n\n    uint256 FLOAT_CONSTANT = 1000000000;\n\n    function Tasks (address _DIDTokenAddress, address _DistenseAddress) public {\n        DIDTokenAddress = _DIDTokenAddress;\n        DistenseAddress = _DistenseAddress;\n    }\n\n    function addTask(bytes32 _taskId, string _title) external hasEnoughDIDToAddTask() returns\n    (bool) {\n\n        Distense distense = Distense(DistenseAddress);\n\n        tasks[_taskId].createdBy = msg.sender;\n        tasks[_taskId].title = _title;\n        tasks[_taskId].reward = distense.getParameterValueByTitle(distense.defaultRewardParameterTitle());\n        tasks[_taskId].rewardStatus = RewardStatus.TENTATIVE;\n\n        taskIds.push(_taskId);\n        tasks[_taskId].taskIdsIndex = taskIds.length - 1;\n        emit LogAddTask(_taskId, _title);\n\n        return true;\n\n    }\n\n    function getTaskById(bytes32 _taskId) external view returns (\n        string,\n        address,\n        uint256,\n        Tasks.RewardStatus,\n        uint256,\n        uint64\n    ) {\n\n        Task memory task = tasks[_taskId];\n        return (\n            task.title,\n            task.createdBy,\n            task.reward,\n            task.rewardStatus,\n            task.pctDIDVoted,\n            task.numVotes\n        );\n\n    }\n\n    function taskExists(bytes32 _taskId) external view returns (bool) {\n        return tasks[_taskId].createdBy != 0;\n    }\n\n    function getNumTasks() external view returns (uint256) {\n        return taskIds.length;\n    }\n\n    function taskRewardVote(bytes32 _taskId, uint256 _reward) external returns (bool) {\n\n        DIDToken didToken = DIDToken(DIDTokenAddress);\n        uint256 balance = didToken.getAddressBalance(msg.sender);\n        Distense distense = Distense(DistenseAddress);\n\n        Task storage task = tasks[_taskId];\n\n        require(_reward >= 0);\n\n        //  Essentially refund the remaining gas if user's vote will have no effect\n        require(task.reward != (_reward * 1 ether));\n\n        // Don't let the voter vote if the reward has already been determined\n        require(task.rewardStatus != RewardStatus.DETERMINED);\n\n        //  Has the voter already voted on this task?\n        require(!task.rewardVotes[msg.sender]);\n\n        //  Does the voter own at least as many DID as the reward their voting for?\n        //  This ensures new contributors don't have too much sway over the issuance of new DID.\n        require(balance > distense.getParameterValueByTitle(distense.numDIDRequiredToTaskRewardVoteParameterTitle()));\n\n        //  Require the reward to be less than or equal to the maximum reward parameter,\n        //  which basically is a hard, floating limit on the number of DID that can be issued for any single task\n        require((_reward * 1 ether) <= distense.getParameterValueByTitle(distense.maxRewardParameterTitle()));\n\n        task.rewardVotes[msg.sender] = true;\n\n        uint256 pctDIDOwned = didToken.pctDIDOwned(msg.sender);\n        task.pctDIDVoted = task.pctDIDVoted + pctDIDOwned;\n\n        //  Get the current votingPowerLimit\n        uint256 votingPowerLimit = distense.getParameterValueByTitle(distense.votingPowerLimitParameterTitle());\n        //  For voting purposes, limit the pctDIDOwned\n        uint256 limitedVotingPower = pctDIDOwned > votingPowerLimit ? votingPowerLimit : pctDIDOwned;\n\n        uint256 difference;\n        uint256 update;\n\n        if ((_reward * 1 ether) > task.reward) {\n            difference = SafeMath.sub((_reward * 1 ether), task.reward);\n            update = (limitedVotingPower * difference) / (1 ether * 100);\n            task.reward += update;\n        } else {\n            difference = SafeMath.sub(task.reward, (_reward * 1 ether));\n            update = (limitedVotingPower * difference) / (1 ether * 100);\n            task.reward -= update;\n        }\n\n        task.numVotes++;\n\n        uint256 pctDIDVotedThreshold = distense.getParameterValueByTitle(\n            distense.pctDIDToDetermineTaskRewardParameterTitle()\n        );\n\n        uint256 minNumVoters = distense.getParameterValueByTitle(\n            distense.minNumberOfTaskRewardVotersParameterTitle()\n        );\n\n        if (task.pctDIDVoted > pctDIDVotedThreshold || task.numVotes > SafeMath.div(minNumVoters, 1 ether)) {\n            emit LogTaskRewardDetermined(_taskId, task.reward);\n            task.rewardStatus = RewardStatus.DETERMINED;\n        }\n\n        return true;\n\n    }\n\n    function getTaskReward(bytes32 _taskId) external view returns (uint256) {\n        return tasks[_taskId].reward;\n    }\n\n    function getTaskRewardAndStatus(bytes32 _taskId) external view returns (uint256, RewardStatus) {\n        return (\n            tasks[_taskId].reward,\n            tasks[_taskId].rewardStatus\n        );\n    }\n\n    function setTaskRewardPaid(bytes32 _taskId) external onlyApproved returns (RewardStatus) {\n        tasks[_taskId].rewardStatus = RewardStatus.PAID;\n        return tasks[_taskId].rewardStatus;\n    }\n\n    //  Allow deleting of PAID taskIds to minimize blockchain size & query time on client\n    //  taskIds are memorialized in the form of events/logs, so this doesn't truly delete them,\n    //  it just prevents them from slowing down query times\n    function deleteTask(bytes32 _taskId) external onlyApproved returns (bool) {\n        Task storage task = tasks[_taskId];\n\n        if (task.rewardStatus == RewardStatus.PAID) {\n            uint256 index = tasks[_taskId].taskIdsIndex;\n            delete taskIds[index];\n            delete tasks[_taskId];\n\n            // Move the last element to the deleted index.  If we don't do this there are no efficiencies and the index will still still be\n            // iterated over on the client\n            uint256 taskIdsLength = taskIds.length;\n            if (taskIdsLength > 1) {\n                bytes32 lastElement = taskIds[taskIdsLength - 1];\n                taskIds[index] = lastElement;\n                taskIds.length--;\n            }\n            return true;\n        }\n        return false;\n    }\n\n    modifier hasEnoughDIDToAddTask() {\n        DIDToken didToken = DIDToken(DIDTokenAddress);\n        uint256 balance = didToken.getAddressBalance(msg.sender);\n\n        Distense distense = Distense(DistenseAddress);\n        uint256 numDIDRequiredToAddTask = distense.getParameterValueByTitle(\n            distense.numDIDRequiredToAddTaskParameterTitle()\n        );\n        require(balance >= numDIDRequiredToAddTask);\n        _;\n    }\n\n    function setDIDTokenAddress(address _DIDTokenAddress) public onlyApproved {\n        DIDTokenAddress = _DIDTokenAddress;\n    }\n\n    function setDistenseAddress(address _DistenseAddress) public onlyApproved {\n        DistenseAddress = _DistenseAddress;\n    }\n\n}\n",
  "sourcePath": "/Users/john/distense-contracts/contracts/Tasks.sol",
  "compiler": {
    "name": "solc",
    "version": "0.4.23+commit.124ca40d.Emscripten.clang"
  },
  "schemaVersion": "2.0.0",
  "updatedAt": "2018-05-08T20:30:22.005Z"
}