{
  "contractName": "Tasks",
  "abi": [
    {
      "constant": true,
      "inputs": [],
      "name": "DistenseAddress",
      "outputs": [
        {
          "name": "",
          "type": "address"
        }
      ],
      "payable": false,
      "stateMutability": "view",
      "type": "function"
    },
    {
      "constant": true,
      "inputs": [
        {
          "name": "",
          "type": "uint256"
        }
      ],
      "name": "taskIds",
      "outputs": [
        {
          "name": "",
          "type": "bytes32"
        }
      ],
      "payable": false,
      "stateMutability": "view",
      "type": "function"
    },
    {
      "constant": false,
      "inputs": [
        {
          "name": "_address",
          "type": "address"
        }
      ],
      "name": "revokeApproval",
      "outputs": [],
      "payable": false,
      "stateMutability": "nonpayable",
      "type": "function"
    },
    {
      "constant": true,
      "inputs": [],
      "name": "DIDTokenAddress",
      "outputs": [
        {
          "name": "",
          "type": "address"
        }
      ],
      "payable": false,
      "stateMutability": "view",
      "type": "function"
    },
    {
      "constant": true,
      "inputs": [
        {
          "name": "",
          "type": "address"
        }
      ],
      "name": "approved",
      "outputs": [
        {
          "name": "",
          "type": "bool"
        }
      ],
      "payable": false,
      "stateMutability": "view",
      "type": "function"
    },
    {
      "constant": false,
      "inputs": [
        {
          "name": "_address",
          "type": "address"
        }
      ],
      "name": "approve",
      "outputs": [],
      "payable": false,
      "stateMutability": "nonpayable",
      "type": "function"
    },
    {
      "inputs": [
        {
          "name": "_DIDTokenAddress",
          "type": "address"
        },
        {
          "name": "_DistenseAddress",
          "type": "address"
        }
      ],
      "payable": false,
      "stateMutability": "nonpayable",
      "type": "constructor"
    },
    {
      "anonymous": false,
      "inputs": [
        {
          "indexed": false,
          "name": "taskId",
          "type": "bytes32"
        },
        {
          "indexed": false,
          "name": "title",
          "type": "string"
        }
      ],
      "name": "LogAddTask",
      "type": "event"
    },
    {
      "anonymous": false,
      "inputs": [
        {
          "indexed": false,
          "name": "taskId",
          "type": "bytes32"
        },
        {
          "indexed": false,
          "name": "reward",
          "type": "uint256"
        },
        {
          "indexed": false,
          "name": "pctDIDVoted",
          "type": "uint256"
        }
      ],
      "name": "LogTaskRewardVote",
      "type": "event"
    },
    {
      "anonymous": false,
      "inputs": [
        {
          "indexed": false,
          "name": "taskId",
          "type": "bytes32"
        },
        {
          "indexed": false,
          "name": "reward",
          "type": "uint256"
        }
      ],
      "name": "LogTaskRewardDetermined",
      "type": "event"
    },
    {
      "constant": false,
      "inputs": [
        {
          "name": "_taskId",
          "type": "bytes32"
        },
        {
          "name": "_title",
          "type": "string"
        }
      ],
      "name": "addTask",
      "outputs": [
        {
          "name": "",
          "type": "bool"
        }
      ],
      "payable": false,
      "stateMutability": "nonpayable",
      "type": "function"
    },
    {
      "constant": true,
      "inputs": [
        {
          "name": "_taskId",
          "type": "bytes32"
        }
      ],
      "name": "getTaskById",
      "outputs": [
        {
          "name": "",
          "type": "string"
        },
        {
          "name": "",
          "type": "address"
        },
        {
          "name": "",
          "type": "uint256"
        },
        {
          "name": "",
          "type": "uint8"
        },
        {
          "name": "",
          "type": "uint256"
        },
        {
          "name": "",
          "type": "uint64"
        }
      ],
      "payable": false,
      "stateMutability": "view",
      "type": "function"
    },
    {
      "constant": true,
      "inputs": [
        {
          "name": "_taskId",
          "type": "bytes32"
        }
      ],
      "name": "taskExists",
      "outputs": [
        {
          "name": "",
          "type": "bool"
        }
      ],
      "payable": false,
      "stateMutability": "view",
      "type": "function"
    },
    {
      "constant": true,
      "inputs": [],
      "name": "getNumTasks",
      "outputs": [
        {
          "name": "",
          "type": "uint256"
        }
      ],
      "payable": false,
      "stateMutability": "view",
      "type": "function"
    },
    {
      "constant": false,
      "inputs": [
        {
          "name": "_taskId",
          "type": "bytes32"
        },
        {
          "name": "_reward",
          "type": "uint256"
        }
      ],
      "name": "taskRewardVote",
      "outputs": [
        {
          "name": "",
          "type": "bool"
        }
      ],
      "payable": false,
      "stateMutability": "nonpayable",
      "type": "function"
    },
    {
      "constant": true,
      "inputs": [
        {
          "name": "_taskId",
          "type": "bytes32"
        }
      ],
      "name": "getTaskReward",
      "outputs": [
        {
          "name": "",
          "type": "uint256"
        }
      ],
      "payable": false,
      "stateMutability": "view",
      "type": "function"
    },
    {
      "constant": true,
      "inputs": [
        {
          "name": "_taskId",
          "type": "bytes32"
        }
      ],
      "name": "getTaskRewardAndStatus",
      "outputs": [
        {
          "name": "",
          "type": "uint256"
        },
        {
          "name": "",
          "type": "uint8"
        }
      ],
      "payable": false,
      "stateMutability": "view",
      "type": "function"
    },
    {
      "constant": false,
      "inputs": [
        {
          "name": "_taskId",
          "type": "bytes32"
        }
      ],
      "name": "setTaskRewardPaid",
      "outputs": [
        {
          "name": "",
          "type": "uint8"
        }
      ],
      "payable": false,
      "stateMutability": "nonpayable",
      "type": "function"
    },
    {
      "constant": false,
      "inputs": [
        {
          "name": "_taskId",
          "type": "bytes32"
        }
      ],
      "name": "deleteTask",
      "outputs": [
        {
          "name": "",
          "type": "bool"
        }
      ],
      "payable": false,
      "stateMutability": "nonpayable",
      "type": "function"
    },
    {
      "constant": false,
      "inputs": [
        {
          "name": "_DIDTokenAddress",
          "type": "address"
        }
      ],
      "name": "setDIDTokenAddress",
      "outputs": [],
      "payable": false,
      "stateMutability": "nonpayable",
      "type": "function"
    },
    {
      "constant": false,
      "inputs": [
        {
          "name": "_DistenseAddress",
          "type": "address"
        }
      ],
      "name": "setDistenseAddress",
      "outputs": [],
      "payable": false,
      "stateMutability": "nonpayable",
      "type": "function"
    }
  ],
  "bytecode": "0x6060604052633b9aca00600555341561001757600080fd5b6040516040806114548339810160405280805191906020018051600160a060020a033381166000908152602081905260409020805460ff191660019081179091558054958216600160a060020a0319968716179055600280549190921694169390931790925550506113c68061008e6000396000f3006060604052600436106100d75763ffffffff60e060020a6000350416630afdbaed81146100dc5780631efe3abf1461010b5780632a4caf671461013057806339118d2514610151578063484685b014610167578063497a7b4814610186578063a022c15e146101b3578063ac847d49146101c9578063b7825cfc146101dc578063b7bf356a146101fe578063b9c105cf14610214578063cf2fb7ca14610255578063d30bf32314610274578063d8b964e6146102ae578063d8f6dcf2146102cd578063daea85c5146103aa578063e64f15a2146103c9575b600080fd5b34156100e757600080fd5b6100ef6103df565b604051600160a060020a03909116815260200160405180910390f35b341561011657600080fd5b61011e6103ee565b60405190815260200160405180910390f35b341561013b57600080fd5b61014f600160a060020a03600435166103f5565b005b341561015c57600080fd5b61011e60043561044b565b341561017257600080fd5b61014f600160a060020a036004351661046a565b341561019157600080fd5b61019f6004356024356104c7565b604051901515815260200160405180910390f35b34156101be57600080fd5b61011e600435610ab8565b34156101d457600080fd5b6100ef610acd565b34156101e757600080fd5b61019f600480359060248035908101910135610adc565b341561020957600080fd5b61019f600435610dd9565b341561021f57600080fd5b61022a600435610df9565b6040518083815260200182600281111561024057fe5b60ff1681526020019250505060405180910390f35b341561026057600080fd5b61014f600160a060020a0360043516610e1a565b341561027f57600080fd5b61028a600435610e70565b6040518082600281111561029a57fe5b60ff16815260200191505060405180910390f35b34156102b957600080fd5b61019f600160a060020a0360043516610ebc565b34156102d857600080fd5b6102e3600435610ed1565b604051600160a060020a038616602082015260408101859052806060810185600281111561030d57fe5b60ff1681526020018481526020018367ffffffffffffffff1667ffffffffffffffff168152602001828103825288818151815260200191508051906020019080838360005b8381101561036a578082015183820152602001610352565b50505050905090810190601f1680156103975780820380516001836020036101000a031916815260200191505b5097505050505050505060405180910390f35b34156103b557600080fd5b61014f600160a060020a0360043516611045565b34156103d457600080fd5b61019f6004356110a5565b600254600160a060020a031681565b6003545b90565b600160a060020a03331660009081526020819052604090205460ff16151561041c57600080fd5b6002805473ffffffffffffffffffffffffffffffffffffffff1916600160a060020a0392909216919091179055565b600380548290811061045957fe5b600091825260209091200154905081565b600160a060020a03331660009081526020819052604090205460ff16151561049157600080fd5b600160a060020a03811615156104a657600080fd5b600160a060020a03166000908152602081905260409020805460ff19169055565b600154600090600160a060020a0316818080808080808080808a63350467223360405160e060020a63ffffffff8416028152600160a060020a039091166004820152602401602060405180830381600087803b151561052557600080fd5b5af1151561053257600080fd5b505050604051805190509950600260009054906101000a9004600160a060020a03169850600460008f60001916600019168152602001908152602001600020975060008d1015151561058357600080fd5b6005546002890154908e02141561059957600080fd5b6001600389015460ff1660028111156105ae57fe5b14156105b957600080fd5b600160a060020a033316600090815260068901602052604090205460ff16156105e157600080fd5b610695600160a060020a038a16638fc6ad2d81636263a27f6040518163ffffffff1660e060020a028152600401602060405180830381600087803b151561062757600080fd5b5af1151561063457600080fd5b5050506040518051905060405160e060020a63ffffffff84160281526004810191909152602401602060405180830381600087803b151561067457600080fd5b5af1151561068157600080fd5b50505060405180519050633b9aca00611213565b8a116106a057600080fd5b6106e6600160a060020a038a16638fc6ad2d81637da1373a6040518163ffffffff1660e060020a028152600401602060405180830381600087803b151561062757600080fd5b8d11156106f257600080fd5b600160a060020a0333818116600090815260068b01602052604090819020805460ff19166001179055918d1691638800495091905160e060020a63ffffffff8416028152600160a060020a039091166004820152602401602060405180830381600087803b151561076257600080fd5b5af1151561076f57600080fd5b505050604051805160048a01805482019055975050600160a060020a038916638fc6ad2d8163e2f97c8d6040518163ffffffff1660e060020a028152600401602060405180830381600087803b15156107c757600080fd5b5af115156107d457600080fd5b5050506040518051905060405160e060020a63ffffffff84160281526004810191909152602401602060405180830381600087803b151561081457600080fd5b5af1151561082157600080fd5b5050506040518051965050858711610839578661083b565b855b945087600201546005548e02111561087f5761085f6005548e02896002015461122a565b60028901805464174876e8008884020490810190915590945092506108ae565b61089188600201546005548f0261122a565b60028901805464174876e800888402049081900390915590945092505b60058801805467ffffffffffffffff8082166001011667ffffffffffffffff19909116179055600160a060020a038916638fc6ad2d8163fb4347eb6040518163ffffffff1660e060020a028152600401602060405180830381600087803b151561091757600080fd5b5af1151561092457600080fd5b5050506040518051905060405160e060020a63ffffffff84160281526004810191909152602401602060405180830381600087803b151561096457600080fd5b5af1151561097157600080fd5b5050506040518051925050600160a060020a038916638fc6ad2d8163cec9bb9f6040518163ffffffff1660e060020a028152600401602060405180830381600087803b15156109bf57600080fd5b5af115156109cc57600080fd5b5050506040518051905060405160e060020a63ffffffff84160281526004810191909152602401602060405180830381600087803b1515610a0c57600080fd5b5af11515610a1957600080fd5b5050506040518051905090508188600401541180610a515750610a4081633b9aca00611213565b600589015467ffffffffffffffff16115b15610aa4577fea376df55f15b85259aed67aa0f87a23ee9f3b625c6151a53eef59c2baa883ca8e896002015460405191825260208201526040908101905180910390a160038801805460ff191660011790555b5060019d9c50505050505050505050505050565b60009081526004602052604090206002015490565b600154600160a060020a031681565b6001546000908190600160a060020a03168180808363350467223360405160e060020a63ffffffff8416028152600160a060020a039091166004820152602401602060405180830381600087803b1515610b3557600080fd5b5af11515610b4257600080fd5b5050506040518051600254909450600160a060020a03169250829050638fc6ad2d816365c4284b6040518163ffffffff1660e060020a028152600401602060405180830381600087803b1515610b9757600080fd5b5af11515610ba457600080fd5b5050506040518051905060405160e060020a63ffffffff84160281526004810191909152602401602060405180830381600087803b1515610be457600080fd5b5af11515610bf157600080fd5b505050604051805190509050610c0b81633b9aca00611213565b831015610c1757600080fd5b60025460008a815260046020526040902060018101805473ffffffffffffffffffffffffffffffffffffffff1916600160a060020a03338116919091179091559091169550610c6790898961123c565b50600160a060020a038516638fc6ad2d816345a528bf6040518163ffffffff1660e060020a028152600401602060405180830381600087803b1515610cab57600080fd5b5af11515610cb857600080fd5b5050506040518051905060405160e060020a63ffffffff84160281526004810191909152602401602060405180830381600087803b1515610cf857600080fd5b5af11515610d0557600080fd5b505050604051805160008b815260046020526040902060028101919091556003908101805460ff19169055805490915060018101610d4383826112ba565b5060009182526020808320919091018b90556003548b835260049091526040918290206000199091016007909101557ffafee1e1d1d7b07d7e2e381764370256754d2d4b8b82d9c83e91d3bbba0b3291908a908a908a905183815260406020820181815290820183905260608201848480828437820191505094505050505060405180910390a150600198975050505050505050565b600090815260046020526040902060010154600160a060020a0316151590565b6000818152600460205260409020600281015460039091015460ff16915091565b600160a060020a03331660009081526020819052604090205460ff161515610e4157600080fd5b6001805473ffffffffffffffffffffffffffffffffffffffff1916600160a060020a0392909216919091179055565b600160a060020a03331660009081526020819052604081205460ff161515610e9757600080fd5b506000908152600460205260409020600301805460ff19166002179081905560ff1690565b60006020819052908152604090205460ff1681565b610ed96112e3565b6000806000806000610ee96112f5565b600088815260046020526040908190209060e090519081016040529081600082018054600181600116156101000203166002900480601f016020809104026020016040519081016040528092919081815260200182805460018160011615610100020316600290048015610f9e5780601f10610f7357610100808354040283529160200191610f9e565b820191906000526020600020905b815481529060010190602001808311610f8157829003601f168201915b50505091835250506001820154600160a060020a031660208201526002808301546040830152600383015460609092019160ff1690811115610fdc57fe5b6002811115610fe757fe5b815260048201546020820152600582015467ffffffffffffffff1660408201526007909101546060909101529050805181602001518260400151836060015184608001518560a00151949d939c50919a509850965090945092505050565b600160a060020a03331660009081526020819052604090205460ff16151561106c57600080fd5b600160a060020a038116151561108157600080fd5b600160a060020a03166000908152602081905260409020805460ff19166001179055565b600160a060020a033316600090815260208190526040812054819081908190819060ff1615156110d457600080fd5b600086815260046020526040902093506002600385015460ff1660028111156110f957fe5b14156112055760008681526004602052604090206007015460038054919450908490811061112357fe5b600091825260208083209091018290558782526004905260408120906111498282611339565b506001818101805473ffffffffffffffffffffffffffffffffffffffff191690556000600283018190556003808401805460ff191690556004840182905560058401805467ffffffffffffffff19169055600790930155905492508211156111fc576003805460001984019081106111bd57fe5b9060005260206000209001549050806003848154811015156111db57fe5b60009182526020909120015560038054906111fa9060001983016112ba565b505b6001945061120a565b600094505b50505050919050565b600080828481151561122157fe5b04949350505050565b60008282111561123657fe5b50900390565b828054600181600116156101000203166002900490600052602060002090601f016020900481019282601f1061127d5782800160ff198235161785556112aa565b828001600101855582156112aa579182015b828111156112aa57823582559160200191906001019061128f565b506112b6929150611380565b5090565b8154818355818115116112de576000838152602090206112de918101908301611380565b505050565b60206040519081016040526000815290565b60e0604051908101604052806113096112e3565b815260006020820181905260408201819052606082018190526080820181905260a0820181905260c09091015290565b50805460018160011615610100020316600290046000825580601f1061135f575061137d565b601f01602090049060005260206000209081019061137d9190611380565b50565b6103f291905b808211156112b657600081556001016113865600a165627a7a7230582088c39702754f499c3398ce89414c83630378868c08e9c20b2b4c56c224ca981b0029",
  "source": "pragma solidity ^0.4.21;\n\nimport './DIDToken.sol';\nimport './Distense.sol';\nimport './lib/SafeMath.sol';\n\ncontract Tasks is Approvable {\n\n    using SafeMath for uint256;\n\n    address public DIDTokenAddress;\n    address public DistenseAddress;\n\n    bytes32[] public taskIds;\n\n    enum RewardStatus {TENTATIVE, DETERMINED, PAID}\n\n    struct Task {\n        string title;\n        address createdBy;\n        uint256 reward;\n        RewardStatus rewardStatus;\n        uint256 pctDIDVoted;\n        uint64 numVotes;\n        mapping(address => bool) rewardVotes;\n        uint256 taskIdsIndex;   // for easy later deletion to minimize query time and blockchain size\n    }\n\n    mapping(bytes32 => Task) tasks;\n\n    event LogAddTask(bytes32 taskId, string title);\n    event LogTaskRewardVote(bytes32 taskId, uint256 reward, uint256 pctDIDVoted);\n    event LogTaskRewardDetermined(bytes32 taskId, uint256 reward);\n\n    uint256 FLOAT_CONSTANT = 1000000000;\n\n    function Tasks(address _DIDTokenAddress, address _DistenseAddress) public {\n        DIDTokenAddress = _DIDTokenAddress;\n        DistenseAddress = _DistenseAddress;\n    }\n\n    function addTask(bytes32 _taskId, string _title) external hasEnoughDIDToAddTask() returns\n    (bool) {\n\n        Distense distense = Distense(DistenseAddress);\n\n        tasks[_taskId].createdBy = msg.sender;\n        tasks[_taskId].title = _title;\n        tasks[_taskId].reward = distense.getParameterValueByTitle(distense.defaultRewardParameterTitle());\n        tasks[_taskId].rewardStatus = RewardStatus.TENTATIVE;\n\n        taskIds.push(_taskId);\n        tasks[_taskId].taskIdsIndex = taskIds.length - 1;\n        emit LogAddTask(_taskId, _title);\n\n        return true;\n\n    }\n\n    function getTaskById(bytes32 _taskId) external view returns (\n        string,\n        address,\n        uint256,\n        Tasks.RewardStatus,\n        uint256,\n        uint64\n    ) {\n\n        Task memory task = tasks[_taskId];\n        return (\n            task.title,\n            task.createdBy,\n            task.reward,\n            task.rewardStatus,\n            task.pctDIDVoted,\n            task.numVotes\n        );\n\n    }\n\n    function taskExists(bytes32 _taskId) external view returns (bool) {\n        return tasks[_taskId].createdBy != 0;\n    }\n\n    function getNumTasks() external view returns (uint256) {\n        return taskIds.length;\n    }\n\n    function taskRewardVote(bytes32 _taskId, uint256 _reward) external returns (bool) {\n\n        DIDToken didToken = DIDToken(DIDTokenAddress);\n        uint256 balance = didToken.getAddressBalance(msg.sender);\n        Distense distense = Distense(DistenseAddress);\n\n        Task storage task = tasks[_taskId];\n\n        require(_reward >= 0);\n\n        //  Essentially refund the remaining gas if user's vote will have no effect\n        require(task.reward != (_reward * FLOAT_CONSTANT));\n\n        // Don't let the voter vote if the reward has already been determined\n        require(task.rewardStatus != RewardStatus.DETERMINED);\n\n        //  Has the voter already voted on this task?\n        require(!task.rewardVotes[msg.sender]);\n\n        //  Does the voter own at least as many DID as the reward their voting for?\n        //  This ensures new contributors don't have too much sway over the issuance of new DID.\n        require(balance > SafeMath.div(distense.getParameterValueByTitle(distense.numDIDRequiredToTaskRewardVoteParameterTitle()), 1000000000));\n\n        //  Require the reward to be less than or equal to the maximum reward parameter,\n        //  which basically is a hard, floating limit on the number of DID that can be issued for any single task\n        require(_reward <= SafeMath.div(distense.getParameterValueByTitle(distense.maxRewardParameterTitle()), 1000000000));\n\n        task.rewardVotes[msg.sender] = true;\n\n        uint256 pctDIDOwned = didToken.pctDIDOwned(msg.sender);\n        task.pctDIDVoted = task.pctDIDVoted + pctDIDOwned;\n\n        //  Get the current votingPowerLimit\n        uint256 votingPowerLimit = distense.getParameterValueByTitle(distense.votingPowerLimitParameterTitle());\n        //  For voting purposes, limit the pctDIDOwned\n        uint256 limitedVotingPower = pctDIDOwned > votingPowerLimit ? votingPowerLimit : pctDIDOwned;\n\n        uint256 difference;\n        uint256 update;\n\n    if ((_reward * FLOAT_CONSTANT) > task.reward) {\n            difference = SafeMath.sub((_reward * FLOAT_CONSTANT), task.reward);\n            update = (limitedVotingPower * difference) / 100000000000;\n            task.reward += update;\n        } else {\n            difference = SafeMath.sub(task.reward, (_reward * FLOAT_CONSTANT));\n            update = (limitedVotingPower * difference) / 100000000000;\n            task.reward -= update;\n        }\n\n        task.numVotes++;\n\n        uint256 pctDIDVotedThreshold = distense.getParameterValueByTitle(\n            distense.pctDIDToDetermineTaskRewardParameterTitle()\n        );\n\n        uint256 minNumVoters = distense.getParameterValueByTitle(\n            distense.minNumberOfTaskRewardVotersParameterTitle()\n        );\n\n        if (task.pctDIDVoted > pctDIDVotedThreshold || task.numVotes > SafeMath.div(minNumVoters, 1000000000)) {\n            emit LogTaskRewardDetermined(_taskId, task.reward);\n            task.rewardStatus = RewardStatus.DETERMINED;\n        }\n\n        return true;\n\n    }\n\n    function getTaskReward(bytes32 _taskId) external view returns (uint256) {\n        return tasks[_taskId].reward;\n    }\n\n    function getTaskRewardAndStatus(bytes32 _taskId) external view returns (uint256, RewardStatus) {\n        return (\n            tasks[_taskId].reward,\n            tasks[_taskId].rewardStatus\n        );\n    }\n\n    function setTaskRewardPaid(bytes32 _taskId) external onlyApproved returns (RewardStatus) {\n        tasks[_taskId].rewardStatus = RewardStatus.PAID;\n        return tasks[_taskId].rewardStatus;\n    }\n\n    //  Allow deleting of PAID taskIds to minimize blockchain size & query time on client\n    //  taskIds are memorialized in the form of events/logs, so this doesn't truly delete them,\n    //  it just prevents them from slowing down query times\n    function deleteTask(bytes32 _taskId) external onlyApproved returns (bool) {\n        Task storage task = tasks[_taskId];\n\n        if (task.rewardStatus == RewardStatus.PAID) {\n            uint256 index = tasks[_taskId].taskIdsIndex;\n            delete taskIds[index];\n            delete tasks[_taskId];\n\n            // Move the last element to the deleted index.  If we don't do this there are no efficiencies and the index will still still be\n            // iterated over on the client\n            uint256 taskIdsLength = taskIds.length;\n            if (taskIdsLength > 1) {\n                bytes32 lastElement = taskIds[taskIdsLength - 1];\n                taskIds[index] = lastElement;\n                taskIds.length--;\n            }\n            return true;\n        }\n        return false;\n    }\n\n    modifier hasEnoughDIDToAddTask() {\n        DIDToken didToken = DIDToken(DIDTokenAddress);\n        uint256 balance = didToken.getAddressBalance(msg.sender);\n\n        Distense distense = Distense(DistenseAddress);\n        uint256 numDIDRequiredToAddTask = distense.getParameterValueByTitle(\n            distense.numDIDRequiredToAddTaskParameterTitle()\n        );\n        require(balance >= SafeMath.div(numDIDRequiredToAddTask, 1000000000));\n        _;\n    }\n\n    function setDIDTokenAddress(address _DIDTokenAddress) public onlyApproved {\n        DIDTokenAddress = _DIDTokenAddress;\n    }\n\n    function setDistenseAddress(address _DistenseAddress) public onlyApproved {\n        DistenseAddress = _DistenseAddress;\n    }\n\n}\n",
  "sourcePath": "/Users/john/distense-contracts/contracts/Tasks.sol",
  "compiler": {
    "name": "solc",
    "version": "0.4.21+commit.dfe3193c.Emscripten.clang"
  },
  "schemaVersion": "1.0.1",
  "updatedAt": "2018-04-10T22:29:18.004Z"
}